:020000040000FA
:200000000000042081180000A9180000AB180000AD180000AF180000B1180000000000004A
:20002000000000000000000000000000B3180000B518000000000000B7180000B918000088
:2000400075350000592D0000E17E0000BB180000BB180000BB18000081320000BB18000012
:2000600019410000BB180000BB1800007D360000BB18000085350000BB180000BB1800009A
:200080002D370000BB180000BB180000BB180000BB180000BB180000BB180000BB18000037
:2000A000BB180000BB180000BB180000BB180000BB180000BB18000000000000000000004E
:2000C000BB180000BB180000BB180000BB180000BB180000BB180000BB180000BB18000088
:2000E000BB180000BB180000BB1800000000000000000000BB18000000000000BB180000E1
:200100000000000000000000000000000000000000000000000000000000000000000000DF
:200120000000000000000000000000000000000000000000000000000000000000000000BF
:2001400000000000000000000000000000000000000000000000000000000000000000009F
:2001600000000000000000000000000000000000000000000000000000000000000000007F
:2001800000000000000000000000000000000000000000000000000000000000000000005F
:2001A00000000000000000000000000000000000000000000000000000000000000000003F
:2001C00000000000000000000000000000000000000000000000000000000000000000001F
:2001E0000000000000000000000000000000000000000000000000000000000000000000FF
:2002000001F0FF01102A2BDB10F0070F08D010F8013B013A8B422DD010F0070F42B3F6D1A4
:20022000F0B441EA012141EA014122F007047FF000070023F0E80256083C85EA010586EA51
:20024000010685FA47F5A3FA87F586FA47F6A5FA87F68EB9EED1F0BC01F0FF0102F007024C
:2002600032B110F8013B013A83EA010313B1F8D10020704701387047002D06BF35460338AF
:20028000073815F0010F07D1013015F4807F02BF013015F4C03F0130F0BC0138704700BF73
:2002A0000348044B834202D0034B03B1184770476003002060030020000000000548064B51
:2002C0001B1AD90F01EBA301491002D0034B03B11847704760030020600300200000000028
:2002E00010B5064C237843B9FFF7DAFF044B13B10448AFF300800123237010BDCC2E002062
:200300000000000004CC000008B5054B1BB105490548AFF30080BDE80840FFF7CFBF00BF47
:2003200000000000300A002004CC0000A3F5803A704700BF174B002B08BF134B9D46FFF740
:20034000F5FF00218B460F461348144A121A0BF028F80E4B002B00D098470D4B002B00D0DC
:2003600098470020002104000D000D48002802D00C48AFF300800AF03FF92000290000F01C
:20038000E9F90AF015F800BF0000080000000000000000000000042060030020F02E0020C8
:2003A000000000000000000000B585B00346002101AA44F20100CDE90111039300F004F8BD
:2003C00005B05DF804FB00BF72B6094BD3F8F030DB0700D500BEBFF34F8F0549054BCA6819
:2003E00002F4E0621343CB60BFF34F8F00BFFDE700ED00E00400FA0572B6024A136801331E
:2004000013607047480A0020034A1368013B136003B962B6704700BF480A002010B50446FE
:20042000006830B1002103F09DFC54F8040F0028F8D110BDF0B5038883B0044663B1B3F540
:20044000867F04D182290BD0012003B0F0BD00230380032003B0F0BD4FF486732380F3E7D9
:2004600001F0BEFABFF35F8F1649174B0E6800220A601F781A70FFB2BFF35F8F134D01F0AD
:20048000B3FA286820B9E7E755F8040F0028E3D090F84A3026FA03F3DA07F5D590F8493079
:2004A00047FA03F3DB07EFD500F0C6FD0028EBD0074B084A1B6800932B680221184600F00B
:2004C00059FDE1E75C0A0020CD2E0020000000202C1200204905000010B50C4A90F84B3073
:2004E00011680B4A82B0013380F84B300446009103468021203000F03DFD064B1978002094
:20050000224602B0BDE8104003F0D8BC2C120020D9040000CE2E002010B4084A084C136809
:200520000B4313602378012282401343DBB2237004485DF8044B03F0F3BC00BF5C0A00202D
:20054000CD2E00205401002070B582B0044600F073FD08B902B070BD04F12006304600F0E9
:200560006BFD94F84A10054694F8490001F0FAF980B994F848309BB9002DEBD1304600F049
:2005800041FD0F4B19782246284602B0BDE8704003F094BC0128EFD194F84830002BEBD13E
:2005A000002DD7D0074B084A1B68002584F84B50304600937E21234600F0DCFC034BE1E715
:2005C000CF2E00202C120020D9040000D02E0020F8B503F0BDFB304B304F187003F0B8FB25
:2005E0002F4B304D187003F0B3FB2F4A7A60FF2139722A682D4B00261870FE60002A42D06B
:200600002B4C09E091F84A00F9683A72834055F8042F0B43FB60B2B392F84A3092F8491062
:20062000526C03F01F0343EA41131F2BCABF03F01F034FF0A041214603F5E07342F08C02EC
:2006400041F823602B6893F84A1093F8490001F047F92A6892F84A3092F8490003F01F03E3
:2006600043EA4010012102F05BFD2968387A91F8492082424FF00103C4D0FF28C2D055F8BB
:20068000042F002AC8D10B48002103F06BFBBDE8F840024801F07AB9D02E00204C0A0020B8
:2006A000CF2E00200000002019050000CE2E00200003005054010020042800D0704708B58B
:2006C000054A13680133136000F0AAFD00B908BDBDE8084000F08ABD600A002000B5134BD3
:2006E00083B000221A6002F095FBC0B9002002F0ABFB0F4B0F4A93E803000090ADF80410FE
:200700000D48694602F052FF60B901210A4802F09FFF094802F090FF03B05DF804FBFFF7A6
:2007200043FEE3E7FFF740FEEFE700BF600A0020ECC90000B9060000E4C90000014B18686E
:20074000704700BF600A0020014B1868C0097047600A00202DE9F04103F0F2F9FFF7BEFFEB
:2007600003F0A0FC03F02CFB00216348634FDFF8E081634D634C644E03F0F4FA00F0F0FB4D
:2007800009F0DAFD06F02EFA03F0E2F903F0E6FB5E4B1B6898477B689847D8F80430984719
:2007A000EB885BBA33802368022B36DC584B29686A68196057485A60002103F0D3FA4FF03C
:2007C000FF3007F031FF2368022B054610DC03F0DBF95148FFF722FE09F0D6FD03F0F6FAAF
:2007E000044609F0D9FD002CF8D103F0D3F9F5E74A4A4B494B4803F0E9F94B4803F0E6F95B
:200800002368022BE3DD284601F0C4FA2368022BDDDD0A2003F092FBD9E7404A40494148CB
:2008200003F0D4F9414803F08BFB2368022BBDDD3A4A3B493B4803F0C9F93D4B3D481968D6
:2008400003F0C4F92368022BB0DD344A3449354803F0BCF9D8F80010374803F0B7F92368F6
:20086000022BA3DD2D4A2E492E4803F0AFF93348396803F0ABF92368022B97DD274A28490B
:20088000284803F0A3F92E484CF6FE2103F09EF92368022B8ADD214A2149224803F096F918
:2008A0002848142103F092F92368022B7FF77EAF1A4A1B491B4803F089F92348318803F003
:2008C00085F92368022B7FF771AF144A1449154803F07CF91D4803F079F92368022B7FF7D4
:2008E00065AF284601F066FA2368022B7FF75EAF0A2003F023FB59E798010020F4C90000F9
:200900009C0C0020B8010020B82E002024CA0000482D002064020020B0CA0000DCB700001A
:20092000E4B70000ECB70000B8B80000FCB700005CCA00002CB800003CB8000048B8000058
:2009400054B8000070B8000090B80000A0B80000BCCA00002DE9F0430D468B6892F82C9068
:2009600083B00646506BD3E90078144601F0E4F9686803F031FBA9681C4801F0D9FA1C4855
:20098000294601F0D5FA636B1B6813B30023A38503F050FB174BA3FB0023C21A03EB520346
:2009A0009B08C3EBC303C11A134B144A1B68009304F10C00234600F0DDFA3FB14A4631464B
:2009C00040463B4603B0BDE8F043184703B0BDE8F08304F10C0000F015FB2146084801F0B2
:2009E000ABF92146074801F0A3FAE6E76401002070010020254992242C120020090A000097
:200A0000640A00207C010020002842D02DE9F047436B1D6886B00446002D37D0686803F07A
:200A2000F1FA7C490C2003F073F80121072003F063F8794B5B68984700282BDAAB682BB361
:200A400005202246294606B0BDE8F047FFF782BF03F05AFB6FF02806361A03E003F054FB87
:200A6000C64202D5C8470028F8D0C847002800F0A4803B69032105A898470328AA6835D1B6
:200A80009DF81630434531D1002A6ED106B0BDE8F087704702F0D2FF604F90F802807B68A0
:200AA000039302F0CBFF064602F0D2FF039B01463046984703F03CF8BB690393064698478F
:200AC00098B9002E48D1D7F81C90C84768B9BB681E4602F0BDFFB047002851D0022804D060
:200AE000AB68002BD2D00420ABE7AA68002ACDD094F82D3094F82C100133DBB2052B84F869
:200B00002D301BD8127A8A4222D9012B88BF1F267BD903F08FFA424AB0FBF6F11268009280
:200B2000404A01FB1601234604F10C0000F022FA686806B0BDE8F04703F048BA01310023F6
:200B4000C9B284F82D3084F82C10137A8B4215D822462946012076E7BE6802F079FFB04766
:200B60000028BBD1AB68002B90D094F82C300020013384F82D0084F82C3062E70726C8E741
:200B800003F0C2FA6FF0180AAAEB000A04E003F0BBFA1AEB000F02D5C8470028F7D0039B73
:200BA000984700287FF454AFC84700287FF450AF7B69984700283FF44BAFA96800293FF48A
:200BC00065AF94F82C3001330022DBB284F82D2084F82C300A7A9A4203D822462946022061
:200BE00031E703F027FA104BA3FB0023C21A03EB52030B4A9B0812680092C3EBC303C11A3B
:200C0000084A234604F10C0090E7033301269E40013E7EE79C0C002010CA000024CA000032
:200C20002C120020090A0000254992242DE9F041064682B00D200F4602F072FF054601F039
:200C4000E5F801210B2002F057FF464B1C681CB954E02468002C51D02946201D01F01AF87C
:200C60000028F6D0606B01F081F8072808DD66B3012206213846334602B0BDE8F0411847FC
:200C8000394801F039F9054650B3384801F034F9A86008B303F076F9D5F808806860B8B119
:200CA000052002F02FFF10F0FF0308BF082388F80830C8F80060C8F80470606B294600F0C5
:200CC000F1FF636B1B689D4232D002B0BDE8F0812648414601F02CF92348294601F028F933
:200CE000606B01F043F80028C1D121461D4801F023F821461E4801F01BF9B8E71C4801F0A5
:200D0000FBF804460028B2D02946043000F0BCFF002304F130021348A3856263236321461F
:200D200000F0C0FF606B01F021F807289FDCA7E794F82D30012B10D91F2503F07BF90D4BF6
:200D4000B0FBF5F11B68009301FB15010A4A234604F10C0000F00EF9B7E7033301259D404E
:200D6000013DEAE7640A002070010020640100207C0100202C120020090A000008B50548A8
:200D800001F0A8F8044801F0A5F8BDE80840034801F0A0B870010020640100207C010020B4
:200DA000014B1B6A184700BF24CA0000014B5B6A184700BF24CA000010B50D4B82B01B6867
:200DC00098470C4B04469B6A01A91920984701280BD0002C019BB8BF1524802BD4BFC4EB63
:200DE0000300C4F1800002B010BD002002B010BD10CA000024CA0000FFF718BF30B50D4CCA
:200E000083B0A56A69461920A84748B901A90420A84738B100F0F2FFFFF7B0FF236A984720
:200E200003B030BD0199E36A21F00201019104209847EFE724CA000000B583B002F002FEE4
:200E4000032804D0244B9B689847002802DA03B05DF804FB0D2002F063FE204900F01AFF45
:200E600018B902F065FE0028F1D00C2002F058FE1A4900F00FFF0028E9D100F0D1FF90B1AB
:200E8000072002F03FFE0028E1D00223ADF8043002F0D4FD124B8278DB688DF806200321F9
:200EA00001A89847D3E700F0E3FF072002F02AFE18B90C4B9B689847C9E70223ADF8043025
:200EC00002F0BCFD064B8278DB688DF80620032101A89847EDE700BF10CA00009C0C00204D
:200EE00024CA0000BCCA0000F8B5038805464BB1452B03D1882915D00120F8BD00230380A9
:200F00000320F8BD134B1C6834B1A168201D00F073F92468002CF8D10F4B01221A704523A0
:200F20002B80E9E70B4B1C681CB9F8E72468002CF5D0231D9A42F9D10648084E214600F04A
:200F4000FBFED4E90523376832600BB1E06998473760E4E7AC0B0020D12E00202C120020E8
:200F6000024B03480021196002F0FCBEAC0B00208801002070B582610D4A04461078E3619E
:200F8000049B636130B9A1600A482146BDE8704000F088BE084D094B2E682B60201D00F0C9
:200FA0002BF92E6021460348BDE8704000F07ABED12E0020AC0B00202C1200208801002053
:200FC00070B50C4B1B7804462BB921460A48BDE8704000F067BE094D094B2E682B600430B2
:200FE00000F014F92E6021460348BDE8704000F059BE00BFD12E0020AC0B00202C12002045
:201000008801002010B50A4B1B7804463BB9C0E9033321460748BDE8104000F08DBE043043
:2010200000F006F921460348BDE8104000F084BED12E0020AC0B002008B5084B1B78014608
:2010400023B10069B0FA80F0400908BD044800F097FE80F00100C0B208BD00BFD12E0020D4
:20106000AC0B002010B50446C0B206F0F7FE204610BD00BF70B570B10E46451E002404E036
:20108000A64206D006F0EAFE013415F8010F0028F6D1204670BD0446FBE700BF10B5FFF73A
:2010A0004DFB0B4B1A68D2E9003192680B44191A52B1D2E9003423441B1A9268994228BF5E
:2010C0001946002AF5D14318024A136010BD00BFB40B0020B00B0020F8B5038805464BB3E0
:2010E000592B03D000232B800320F8BD872926D082291BD1284E3468C4B1002703E0A3681A
:2011000027469BB11C46204606F09AFE0028F6D0E0682246882102F0D1FE03461F483BB31A
:2011200002F0FEFEA3682746002BEBD1592301202B80F8BD184A012013605923F8E7164EB0
:201140003168002021B9F1E78C680120E4B12146CB689342F8D000B134608B68002BE5D02B
:20116000D3E90204944214BF194688600346F5E7E360A3686FB1BB6033680022A2602BB174
:20118000FFF78CFF3468B7E73460CFE7044A1360CCE73360F1E700BFB40B00209801002014
:2011A000B00B002010B504460D4802F0B9FE0D490D48E3680A6800685BB152B1134601E02E
:2011C0009B6833B19C42FBD1E060BDE81040FFF765BFC4E902200C60BDE81040FFF75EBFEC
:2011E00098010020B40B00202C120020014802F097BE00BF9801002010B5044606F00AFEE4
:201200002046BDE81040FFF7CDBF00BF10B5044606F008FE2046BDE81040FFF7C3BF00BF95
:20122000024B1868003818BF01207047B40B002010B5124B19688142044614D00B462BB15A
:201240009A68A24206D01346002BF9D10023C4E9023310BDA2689A6049B1FFF71FFF00237D
:20126000C4E9023310BD82681A60002AF5D1044B00221A600023C4E9023310BDB40B0020CF
:20128000B00B0020014B1888704700BF54030020002831D0037A022B30B410D00378022B5B
:2012A00013D00379A3B10024C37913F0030318BF012301B10C6002B1136030BC7047C379F4
:2012C0000579447A53B1C4B915B300231C46F0E7447A14F0030418BF0124E5E744B1002D7A
:2012E000F3D1023C012C8CBF002401242B46E0E7012DF4D12B46DCE77047032B14D0022BD6
:2013000023D0022C1FD0002DDFD12B460024D0E7022B11D0032B4FF00103F7D1A4F10204B2
:20132000B4FA84F46409C4E7032C15D0022C17D0002DCAD12B46F1E7A4F10304B4FA84F473
:2013400064090123B5E70123E0E7002DFBD1022CF2D101231C46ACE7002DB6D10123DDE7D6
:201360000123002DDAD0D1E730B5002383B00B608B80437DDB075CBF01230B70037E012B00
:201380000D46044627D901AA694604F11000FFF77FFF009B0BB10223EB70019B0BB1022389
:2013A0006B70E37D03F00303022B05D0A3F10303B3FA83F35B09DB00AB70637E03F0030306
:2013C000022B05D0A3F10303B3FA83F35B09DB002B7103B030BDC37D13F0030309D0437EF0
:2013E00013F0030305D0C38B828B9B1AB3FA83F35B092375C7E700BF022814BF0823022326
:201400000B4403E013F8012DFF2A03D19942F9D1012070470020704700B583B06946FFF783
:20142000A3FF9DF800309DF801209DF802009DF803100233134403449DF804209DF805002A
:201440000B441344184403B05DF804FB4378827890F800C0DB00120102F0100203F0080396
:2014600013430CF0070290F803C0134302794FEA4C1C0CF0200C920143EA0C0302F0400229
:2014800013430B704379827990F809C003F00103520043EA8C1302F0020290F807C01343C3
:2014A000027A4FEA8C0000F00C001201034302F0300213434B70704770B582B00D460446B6
:2014C0006946FFF751FF04F110002946FFF7BEFF9DF80030012B04BFA37EAB709DF801303A
:2014E0000CBF03200220022B06D1A38B2B54A28B431C120AEA5402309DF8026046B1A31969
:201500002A1813F8011D02F8011BA342F9D130449DF80330022B06D1E38B2B54E28B431CA2
:20152000120AEA5402309DF804605EB106F1080323442918083413F8012D01F8012BA342EE
:20154000F9D1304402B070BD10B40278437894094FF0000C002062F3070C64F30700D408CB
:2015600064F30F2C140964F3174C520963F30F2062F31F6C5A0862F317409A0862F31F60BE
:20158000074C084A0CEA04040240C3F301109B090C604A605DF8044B08724B72704700BF94
:2015A0000701010101010103012942DD2DE9F04186B00E4603A914460546FFF7C5FF0B46A5
:2015C00003CB9DF811201B8820616161238362B3AF1C03A802AA01A9FFF75AFE9DF8138094
:2015E000B8F1000F39D0029B63BBB8F1020FA3835DD0B8F1030F43D09DF81580B8F1000FB2
:2016000023D0019BBBB9A38BE383B8F1020F43D0B8F1030F28D0781B331A8642C4E90E73DD
:2016200000DA002006B0BDE8F081AB78A376EF1CCFE700207047029A3B88E38302B9A3836A
:201640000237E2E737F8023BCFE71E4904F1080000F01AFBA4F81E80DDE71A49204600F046
:2016600013FBA4F81C80C7E707F108000346E21D13F8011D02F8011FBB42F9D10746CAE726
:2016800007F108000346621E13F8011D02F8011FBB42F9D10746AFE70A4904F1080000F054
:2016A000F3FA7B78237217F8023B6372B3E70549204600F0E9FA7B78237017F8023B6370CE
:2016C0009AE700BF1CCA000030B591B002F0A6F9044602F0B7F96A4601462046FFF764FF8B
:2016E00000283ED0044602F07FF9D0B39DF810100B2002F001FA9DF81310072002F0FCF9EA
:201700009DF817308BB1BDF81C50FFF7BBFD854205D0BDF81C204FF6FF739A4221D19DF83B
:2017200017006946FFF768FEB0B102A90C2002F0EFF99DF815303BB14FF6FF71062002F0E2
:20174000DBF9204611B030BD9DF81A10062002F0D3F9204611B030BD69460D2002F0D8F94B
:20176000E3E74FF0FF34ECE7F8B505460B2014460F46A84700232074A37417B90720A847E5
:20178000C3B20026E37466750820A84701232376A07566740620A847A076FFF773FDE083C5
:2017A0000920A847012814BF032333466376FFF769FDA0830A20A847012803D0B74214BF3D
:2017C00002260326637EE675022B1DBF023EB6FA86F6760901262675F8BD00BF30B591B02C
:2017E0000546FFF74FFD4FF6FF74A0423AD040220021684609F0D5FD02F09AF96A46014640
:201800001A48FFF7B1FF02F093F918B3ADF800400C2002F085F9014602A800F035FA02F0F4
:20182000FDF80E9002F00EF9034668460F93FFF7F3FD044615B9204611B030BD02F0A4F8E3
:2018400080B102F0FBF801466846FFF735FE204611B030BD0D2002F063F90146684600F0E0
:2018600013FAD5E74FF0FF34E5E700BF053B00000120FFF7B3BF00BF0020FFF7AFBF00BFD7
:201880000649074A074B9B1A03DD043BC858D050FBDC06F051F8FEF74DFD000010CC000011
:2018A0000000002060030020FEE7FEE7FEE7FEE7FEE7FEE7FEE7FEE7FEE7FEE700F01F0381
:2018C00001219940C0F3471000F066B808B501F08DFB00B108BDBDE8084001F051BB00BFA0
:2018E00030B583B0154602238DF8063005F00C03002201F01F01082BADF8042041EA4014E3
:2019000026D00C2B1AD0042B02D101238DF8043015F0030306D0022B1ED0012B04BF0323C0
:201920008DF805300E4A01A9204601F069FB2B0608D4204601F06AFC03B030BD03238DF81B
:201940000430E5E70121204601F0EAFB03B030BD02238DF80430DBE701238DF80530E1E743
:20196000BD18000001F01F0141EA40101F28CABF054B4FF0A04300F01F00D3F8103523FA88
:2019800000F000F001007047000300500146014800F088B9B80B002070B50C4B1C689CB16B
:2019A00005460E4601E0246874B1237AAB42FAD1E36816EA0301F6D063682846002BF2D066
:2019C00098472468002CF0D170BD00BFB80B0020024B00221A60FFF779BF00BFB80B002027
:2019E000EFF3108072B6704780F31088704700BF2049002340FA03F2D20720D510B40A7846
:201A000091F801C08C7802F01F0242EA4C12E4B11F2AC6BF184C02F01F024FF0A0444FF09F
:201A2000010C0CFA02F2C4F808250133042B01F103011CD040FA03F2D407F6D5DFE70133A2
:201A4000042B01F10301D5D170471F2AC6BF0A4C02F01F024FF0A0444FF0010C01330CFA24
:201A600002F2042BC4F80C2501F10301E2D15DF8044B7047D8C90000000300500F4A1048AD
:201A800010B402F10C0C03241378517803F01F0343EA41131F2BC6BF03F01F0301464FF0FC
:201AA000A04103F5E0730332944541F82340EBD15DF8044B0F20FFF79BBF00BFD8C9000011
:201AC0000003005008B50848FFF77AFA074800F08FFB40B1037A5B0801460372034800F0AB
:201AE00051FB0028F6D108BDBC0B0020A801002006292CD8F8B54523CB40DB070F4625D5B2
:201B0000054629462748144600F0A0FB064618B3062F1BD0FEF712FE337A30602344102B9C
:201B2000A8BF1023022F337212D0E401A4B2FEF705FE3368C01AB0F5963F31D2337A032B53
:201B40008CBF0A221922B388F3B9B480F8BD70470C34E401A4B2EAE7002FF7D13346114837
:201B60000822294600F0A8FB06460028EED047F6FF73C380FEF7E2FD337A30602344102B62
:201B8000A8BF10233372D0E7C2F16400064904FB02F203FB0022A1FB02125209B280F8BDE4
:201BA0001922D0E7A80100201F85EB5138B50546042001F0A7FF29460446224800F046FB43
:201BC00024B2034638B3B0F9062047F6FF718A422CD004EB840464005A201B4912FB0042AF
:201BE00081FB0201D217C2EB6112998814B2DC8081B904F15A0212B222EAE2721E2A1349C7
:201C0000A8BF1E22D201A1FB0212120902F5807292B29A8038BD0B480822294600F04CFB20
:201C200003460028F6D047F6FF72C2809A88DC80002AEFD147F6FF729442DAD14FF48072B1
:201C4000E7E700BFA80100201F85EB518988888800B5002183B0084800F072FA074B084AD4
:201C60001B680093074800234FF4E131FFF782F903B05DF804FB00BFA80100202C12002029
:201C8000C51A0000BC0B00200B684A6842600360704700BF08B5082209F05AFBB0FA80F08F
:201CA000400908BD0368D3B110B4002400E0134699421A680ED01C46002AF8D100230B60E8
:201CC0000368C3B11A461B68002BFBD111605DF8044B70476CB1226000221A60EEE700234C
:201CE0000B6003684BB11A461B68002BFBD1116070470260F0E70160E9E70160704700BFCF
:201D000030B405684DB12B46002400E0134699421A6806D01C46002AF8D10D6030BC016064
:201D200070473CB1226000221A6005680D6030BC016070470260F6E703689BB110B4002425
:201D400000E0134699421A6805D01C46002AF8D15DF8044B704734B1226000221A605DF810
:201D6000044B704770470260F7E700BF03682BB100201B680130002BFBD1704718467047C9
:201D8000006810B904E0006818B18142FBD101207047704700B58BB002462821684608F0B8
:201DA000B1FA6946024801F011FF0BB05DF804FB00B90000D8B138B505460E48297801F00D
:201DC00005FF0124E3070B4807D515F8011F013401F0FCFE082CF5D138BD2E2002F0AEF89F
:201DE00015F8011F034801F0F1FE0134EAE7024801F0ECBE14B9000004B9000008B502F067
:201E000019F9014B187008BDD22E0020034B197806204A1C1A7001F06FBE00BFD22E002005
:201E2000F8B5FEF78BFC114E0746344600250C2001F076FE2146FFF72DFF30B90135102DB8
:201E400004F11004F3D10020F8BD062001F05AFE06EB05131A7B8242F5D19868381AB0F552
:201E6000206F8CBF00200120F8BD00BFA40C002070B5174E002534460C2001F051FE214607
:201E8000FFF708FF10342B460135F0B9102DF3D10F2306EB031CE646ACF1100C9CE80F00F6
:201EA00066458EE80F00F6D1062001F02BFE3073FEF744FC03460C20B36001F031FEBDE8C6
:201EC000704001460248FFF7DFBE002BE1D1EBE7A40C002010B5044642884068002109F014
:201EE00060FA23886288A0680021BDE8104003FB02F209F056BA00BF30B44588ADB1436861
:201F0000002202E00132AA420CD0194601330C78002CF7D101230B700388806802FB0300A5
:201F200030BC7047002030BC70472846F8E700BF10B4448882688CB1002305E0B0F800C008
:201F40000133A342624409D09142F7D14268D15C21B10020D0545DF8044B70474FF0FF3098
:201F60005DF8044B704700BF83688B4208D84288008800FB023399422CBF0020012070476F
:201F800000207047418849B143680020194413F8012B02B901308B42F9D170470846704709
:201FA0002DE9F84FDFF89CA0224CDAF80830DFF898B0214E07468846A0EB030C04F12009D8
:201FC00054F8041F4FEAAC0306FB03F3C1B18D68B5B11CF10C0F23D04868CA6800FB0320CB
:201FE00070B11BF8032009680A41D20708D5A847DAF80830A7EB030C4FEAAC0306FB03F39F
:202000004C45DDD10D490E480022CA5439460BF80320FFF791FEB8F1000F04D1BDE8F88FB2
:202020004FF0FF33ECE739460648BDE8F84FFFF77FBF00BF780E0020ABAAAAAA9C0E002097
:20204000A40D0020C0010020600300202DE9F84F364B1D68002D65D0DFF8D8A0DFF8D890F8
:20206000DFF8D8800026D9F80830EB1A9B1008FB03F31AF80330002B4AD1002E4ED02B4B0C
:202080001C682F1D14B943E02468CCB1211D3846FFF700FE0028F7D0D9F80830E31A9A1028
:2020A0000C3308FB02F208BF002409D0204B9B5C002B35D0002403F001025B101444FAD1EC
:2020C0001A4BD3F800B0BBF1000F05D120E0DBF800B0BBF1000F1BD00BF104013046FFF7F9
:2020E000D9FD0028F3D0D9F80820ABEB02039A100C3308FB02F20BD00D4B9B5C43B100226B
:2021000003F001015B100A44FAD19442B8BF3E462D68002DA7D13046BDE8F88F2E1DF7E770
:202120001C46CDE72E463046BDE8F88FA40D0020600300209C0E0020C0010020ABAAAAAACB
:2021400038B10368072B04D80C4A52F82330984211D00B4A1368072B0BD810B48160074995
:2021600003605C1C41F82300146001205DF8044B7047002070478160012070477C0E0020FE
:20218000780E0020174B9A6840B341B3F0B5DFF85CE0C5684468144E16E012EB83011BD0F9
:2021A00052F82310A1EB020C4FEAAC030EFB03F391B11CF10C0F03FB04510CD061B1F35C27
:2021C00007683B41DB0707D4491B91FBF4F101EB41030131E1D100210846F0BD01460846BD
:2021E000704700BFC001002060030020ABAAAAAA124B1968F9B1124B9B68C91AD0B111F10E
:202200000C0F17D00F4BC268891001FB03F3416801FB032179B110B40B4C0268E35C1341A2
:20222000DB0703D508465DF8044B70475DF8044BFFF7A8BF0021FFF7A5BF00BFA40D00202F
:20224000C0010020ABAAAAAA6003002070B5154A154B1468002914BF0D461D46064614B946
:202260001DE02468DCB1211D2846FFF713FD0028F7D00E4B0E4A9B68E41AA31002FB03F34F
:202280006EB10C340BD07268F06802FB030030B108493268CB5C1341DB0700D570BD002087
:2022A00070BD00BFA40D00201CCA0000C0010020ABAAAAAA600300202DE9F843002873D0B2
:2022C0004C4B4D4F0D46002908BF1D4629460646FFF7BCFF002831D04FF000083C681CB9D0
:2022E00048E02468002C45D0211D2846FFF7D2FC0028F6D0DFF80C91404AD9F80830E41A86
:20230000A3100C3402FB03F334D07268F46803FB02440021204609F044F8F3687268E31A6B
:2023200093FBF2F35A1C06D03068354901228240C85C0243CA542046BDE8F8833C6814B965
:202340000EE0246864B1211D2846FFF7A3FC0028F7D0DFF8B090D9F80830E41A0C34BBD1D4
:202360002848FFF70FFE0028B6D1FFF76FFE8046D0B1B3E72348FFF7BFFD0446C0B1DFF848
:2023800084901D482146FFF78DFCD9F80830201D2946E41AFFF778FC14F10C0F726824D1D2
:2023A0000021084608F0FDFF00242046BDE8F883B8F1000FF8D03C681CB9F5E72468002C83
:2023C000F2D0211D4046FFF765FC0028F6D0DFF83490D9F80830E31A0C33E5D0002CE3D0BE
:2023E00000212046FFF7DCFDCBE7044BA41004FB03F38BE71CCA0000A40D0020ABAAAAAA0B
:2024000060030020C001002028B311B3C3684268CB1A93FBF2F35A1C1BD030B50E4C05687F
:2024200014F803C0012202FA05FE2CEA0E0C04F803C0C3684468CB1A93FBF4F3591C06D040
:20244000064C0068E15C824021EA0202E254012030BD002070477047600300209C0E002095
:2024600088B179B1C2684368891A91FBF3F14B1C08D0054B986801EB410110EB810002D006
:202480000430704700207047C001002038B5104B1C6834B101280D4608D090B12468002C9B
:2024A000FBD1002038BD2468002CFAD0A3682846002BF8D098470028F5D038BD2468002CD4
:2024C000EFD06368002BF9D098470028F6D038BDAC0E0020054A01231361D2F8503513F0A9
:2024E000FF03FAD1C2F8FC3F0120704700100040F1B119281AD8DFE800F0170D19196D643F
:20250000605C443F193B1919193835322F192C292623201D344B354AD3F80835A2FB032352
:202520009B080A33DBB20B600020704701207047022070477D230B60F6E700230B60F3E7EB
:2025400010230B60F0E70A230B60EDE720230B60EAE703230B60E7E708230B60E4E7D82360
:202560000B60E1E71A230B60DEE70B230B60DBE71F4B1B780B60D7E71E4B93F900300B60AA
:20258000D2E7194A012382B05361D2F81C31002BFBD00023C2F81C31D2F81C310193019B97
:2025A000D2F8483503F07F035B4200200B6002B07047114B5B790B60B6E70F4B5B780B60FE
:2025C000B2E70D4BDB7800220A60002BACD001230B60A9E7084B1B7800220A60002BA3D055
:2025E00004230B60A0E700BF00100040CDCCCCCCD32E0020D42E0020CC010020012070477A
:2026000030B583B0FFF7ECF9BFF35F8F1D4B1B78ABB11D4B1D4902224FF0FF34C1F8084368
:20262000C3F88021C3F88020BFF34F8FBFF36F8FBFF35F8F03B0BDE83040FFF7D5B903F0C4
:20264000FF02124B1049C3F83021D3F830410194019CC3F83421D3F8342100924FF0FF3415
:20266000009DC3F8084302224FF44054C1F88021C3F804430A60BFF35F8F03B0BDE830408E
:20268000FFF7B2B9CC01002000E100E000100040154BD3F8FC0F30B1D3F85025D2B2032AD3
:2026A00002D000207047704710B4104C104922780978053AD2B201F0FF0051B17A2A11D8E4
:2026C000D3F8302172B9D3F83401B0FA80F0400905E07A2A03D894F8800080F001005DF81A
:2026E000044B70470020FAE700100040B00E0020CC010020074A1378053B7A2B08D8064BC6
:20270000D3F8303113B992F8800070470120704700207047B00E0020001000400D2801D01D
:2027200001207047042A05D121B1034B1B680B600020704702207047B40F002070B51B4C90
:20274000D4F85055EDB2032D82B02AD0184B194A1949C4F80415C3F8102502F5DE421432C3
:20276000C3F8142501264FF00062C3F80465C3F80425FFF745FFD4F8003243F01003C4F85B
:202780000032D4F80032022D43F40023C4F8003209D00023C4F85831D4F858310193019BCC
:2027A000666002B070BDA66002B070BD0010004000F0014038110040B00E002070B5324B05
:2027C000324D002284B0C3F83821D3F838410094009CC3F80C21D3F80C410194019CC3F8AF
:2027E0003421D3F834410294029CC3F830212C78D3F830310393631F7A2B039A02D8023CC2
:20280000A1420ADA81220021204808F0CAFDFFF795FF0024204604B070BD2246691C08F02C
:20282000CBFD2B191A4E5B78174A3F2B9ABF9B00DBB2FF233370D2F84815164B01F07F0147
:20284000494249B21970042089B201F055F93178032001F051F9104B2A7810491A74D1F817
:202860004C055860D1F8481599605200DA6059680648023919608122002108F092FDFFF7A0
:202880005DFF204604B070BD00100040B00E0020D32E0020D42E0020B40F00200080004081
:2028A0007D2910B50C4609D801460A48A31C00F8013B224608F080FD002010BD064A074984
:2028C000074801F083F97D222146064801F07EF9012010BD340F00201CB900002CB9000075
:2028E000ECB7000030B9000010B4174B17490F22C3F810258A780A3A02EB8202C3F8082506
:202900000879CC798A794979120642EA0422024342EA0142C3F86C260D4C0E4840F20221BD
:202920000022C3F83415C3F838457F21C3F83C2540F20122C3F81405C3F81815C3F850263B
:202940005DF8044B704700BF00100040CC010020211001000800000608B5084BD3F8FC2FDA
:202960001AB1FFF7EBFE012008BD0122C3F8FC2FFFF7BAFFFFF7E2FE012008BD0010004003
:2029800010B51C491C4C1D484FF08042002382B00B6023704B6003708B60CB600B74C2F87F
:2029A0000031D2F800310093012300991360D2F80031002BFBD00024C2F80041D2F800311D
:2029C000019321460E48019B01F0CCF9214681220C4808F0E6FC0C4B0122C3F8FC2FFFF7C6
:2029E00083FF0A4A1378DBB21370FFF709FE204602B010BDB40F0020D42E0020D32E00205E
:202A0000D4010020B00E002000100040CC01002000B51B4BD3F8FC2F85B052B3FFF78EFED9
:202A2000174B0022C3F84821D3F8481103910399C3F84421D3F8441102910299C3F84C2104
:202A4000D3F84C21019201220199DA6202E0D3F844211AB9D3F84821002AF8D0084BD3F889
:202A60004801D3F84431B0FA80F0400905B05DF804FB0122C3F8FC2FFFF736FFCEE700BFB9
:202A80000010004010B50388044683B140F2D332934203D1822905D0012010BD0023038024
:202AA000032010BD114A1378053B7A2B03D940F2D3332380F0E70E4BD3F830311BB992F8EA
:202AC0008030002BF3D007F067FC00F0D9FE00F0A5FF8021FFF772FE0028E8D080B200F09A
:202AE00097FF044BDB689847E1E700BFB00E002000100040F4C9000010B57D2884B060D887
:202B0000364BD3F8FC2F002A4FD0354CFFF716FEE378002B43D16378304ADBB20121C2F812
:202B20000C35D160D2F85035DBB2022BFAD100232C49C2F80415C2F80C31D2F80C11019174
:202B40000199C2F86C31D2F86C1102910299C2F85431D2F854310393039BD2F8003223F03E
:202B60001003C2F80032D2F80032012143F48023C2F80032116001F0C7FA6FF00204241AAC
:202B800001F0C2FAE042FBD4144AD2F85035DBB20B2BFAD0FFF7D2FD002004B010BDFFF701
:202BA00037FF0028B7D10220F7E701220C4CC3F8FC2FFFF799FEFFF7C1FDE378002BAAD08D
:202BC000EDE7094A09490446094800F0FFFF2146084800F0FBFF012004B010BD0010004060
:202BE000CC010020340F00201CB900002CB90000ECB700004CB900007D2910B50C460CD882
:202C000001460D48A31C224600F8013B08F0D4FB2046BDE81040FFF76FBF084A0849094883
:202C200000F0D4FF214608487D2200F0CFFF2046BDE81040FFF760BF340F00201CB9000015
:202C40002CB90000ECB7000030B9000008B507280FD8DFE800F0101F0E0E40494F043C4BCB
:202C60003C48C9B25971D0F8FC2F002A55D1002008BD012008BD01295FD0002945D1354A66
:202C800001231361D2F8503513F0FF03FAD1C2F8FC3FECE7A1F10B030F2B36D82C4B2D4ADF
:202CA000C8B29870D2F8FC3F002BE0D001231361D2F8503513F0FF03FAD10A3909B201EB11
:202CC0008101C2F8FC3FC2F80815D2F8FC3FF3B1FFF734FDCBE7072917D81D4BC1F3800168
:202CE0001970FFF78DFCC2E701290ED8184BC9B2D970BCE7164A174BC9B25170D3F8FC2F55
:202D0000002AB4D0C3F80C15B1E7022008BD0123C2F8FC3FFFF7E8FDDAE793F804C093F81B
:202D200007E09A795979130643EA0E2343EA0C0343EA0143C0F86C3699E7064BD3F8FC2F82
:202D4000002AC5D1C3F8FC1FFFF7CEFDC0E700BFCC01002000100040184B1B7803B1704718
:202D600000B503F0FF02164BD3F8301183B029B9D3F8342192B903B05DF804FBC3F83021AA
:202D8000D3F8302100920F4B00990F48012283F8802003B05DF804EB01F0C2B8C3F834119B
:202DA000D3F83431019381220648019B08F0F9FA03B05DF804EBFFF7C1BC00BFCC010020C1
:202DC00000100040B00E0020D401002010B580B1012800D010BD0E4C2369A070002BF9D02A
:202DE0001A6822615B68012098472369002BF7D1F0E7074CA36801226270002BEAD01A68FB
:202E0000A2605B6800209847A368002BF7D110BDCC0F002038B50A4C237813B1852528466E
:202E200038BD08486360A3602361E36000F042F8054600F04BF801232370284638BD00BF3F
:202E4000CC0F0020CD2D000038B5194DAB78044673B110B14368012098470020FDF7CCFA53
:202E6000EB680133EB60BDE838400020FDF7CCBA03F0FF00FDF7C0FA3CB12A697AB1134625
:202E800001E01B685BB19C42FBD1EB6863B1EB680133EB60BDE838400020FDF7B5BA2260BD
:202EA000EB682C61002BF2D100F026F8EFE700BFCC0F0020044A137923B90121106091804D
:202EC0001846704785207047E00F0020084B1A68D20707D5074A4FF080410123C1F818356D
:202EE00013707047C02283F8002301221A60F1E700E100E0D52E00204FF08043002282B069
:202F0000C3F80421D3F804210192019802210122C3F804139A6002B0704700BF10B54FF077
:202F2000804382B0D3F8002162B10021134AC3F80011D3F80011507900910121009CC3F8A4
:202F40000813B8B14FF08043D3F8042182B10022C3F80421D3F8042101920221074A019836
:202F6000C3F808131368012002B0BDE81040184702B010BD136851719847E3E7E00F002065
:202F800030B5174D95F86A4083B034BB3022A818FF2108F006FA3022FF21284608F001FA92
:202FA000104BA5F868404FF0FF31C022C5E9181483F8062340221A600B4BC3F87C41D3F82D
:202FC0007C11019101984FF000420121204685F86A10C3F8042303B030BD082003B030BDEF
:202FE0007003002000E100E000600040034B93F86A00003818BF0120704700BF7003002061
:20300000F0B5444D2B1893F93030002B01DB0820F0BD8B78C3F340069B0754BF082300236D
:2030200003F1804C0CF1FF3C54BF4FF00C0E4FF0080E05EB8C0C02E001339E453ED95CF8EB
:20304000044F0134F8D12C1845F823205AB284F8302016B9EC1884F858008C7867071ED478
:20306000E60747D51F2887BF2B4C00F01F0606464FF0A04404EB8604D4F8006726F00206F5
:20308000C4F80067254FC60800F0070E17F806C0012404FA0EF444EA0C04BC558C780978F8
:2030A000A4070DD4A2F1080345FA83F393F8602042EA811283F860200020F0BD0420F0BDCE
:2030C0009B0003F1804303F5C0430202D3F8100520F44F3020F44070C3F810050904D3F8C0
:2030E000100502F47C5201F440310A430243C3F81025E1E71F284E7887BF074F00F01F048B
:2031000004464FF0A04704F5E074B60047F82460B8E700BF7003002000030050D40300203E
:2031200030B4374C04EB000C82B09CF93030072B11DD234493F858309B09032B35D0012B69
:203140000CBF4FF400324FF440321F2849D900F01F002C4B35E0DAB2072A23D8980000F135
:20316000804000F5C04003F140029200D0F8105592B202F1804202F5C04245F00105C0F8C0
:2031800010550020106012680192019A51B19CF9302054F822202AB11B49012202FA03F3C9
:2031A000C1F8043302B030BC70471F281CD84FF0A0421346D2F81025C24002F001020232EB
:2031C000120403EB8003D3F8001721F44031C3F80017D3F800170A43C3F8002702B030BC7F
:2031E00070474FF0A043ECE7064BD3F8102500F01F00C24002F0010202321204A9E700BF33
:20320000700300200003005000600040194B034493F93030072B18DCDAB2072A14D810B4FE
:203220009A0002F1804202F5C042134CD2F81005012120F0010001FA03F3C2F81005C4F859
:2032400008335DF8044B704770471F2886BF0B4B00F01F004FF0A04303EB8003D3F80027AB
:2032600022F44032C3F80027D3F80027C3F80027704700BF70030020006000400003005014
:203280002DE9F04F0022164689B0CDE90222724B724C73480122354604E0043383424FEA5B
:2032A000420211D019680129F7D1D4F804131142F3D01D60196800910433834246EA0206BA
:2032C00000994FEA4202EDD1644BD3F87C110129F2B220D0D2B1634F01250024A30003F13F
:2032E00080432E4203F5C0430BD0D3F8100557F82420D3F81015C0F30520C1F3014102B1E1
:2033000090470134082C4FEA4505E7D1002E15DB09B0BDE8F08F0021C3F87C11D3F87C3156
:2033200001934FF0A041019BD1F810154E4B0291D3F810350393002A40F08B8000224B4D5E
:20334000CDE904224FF0FF330693A5F16308484C07934FF00009012614F9013F5A1C32D024
:20336000C3F3C20E0EF120020DEB020C03F007021CF8087C06FA02F21742D9B203F03F0002
:2033800021D008EB0007890997F9307058F82770002F4CD003294CD01F288BBFDFF8C8E0F6
:2033A0004FF0A04E03F01F0303460EEB83031CF818ECD3F800C71EEA020FCCF3014C1AD04A
:2033C000BCF1020F40D0AC42C6D1B9F1000F9FD04FF0A0430299D3F81035234A9942D2F893
:2033E000102502D10399914292D0CDE90232DDE904230692ABE7BCF1030FE4D1032903D080
:20340000002FE0D0B847DEE74FF40032D3F800C72CF4403CC3F800C7D3F800C709F101094E
:2034200042EA0C025FFA89F9C3F80027E8E70329C9D10DF1100B0DF1100A1BF80EB04BEAC9
:20344000020B0AF80EB0A7E70329D9D14FF44032DCE746F000463EE70061004000600040E1
:20346000206100407003002000030050D3030020CF03002010B54FF0804386B0D3F80443AE
:20348000620703D5D3F80821002A62D1A30605D54FF08043D3F81421002A4FD1600605D58B
:2034A0004FF08043D3F81821002A3BD1210604D54FF08043D3F81C214ABBE20504D54FF0C2
:2034C0008043D3F82021B2B9A30512D54FF08043D3F824216AB10022C3F82421D3F82421C4
:2034E000214B0592059A1B68022006B0BDE81040184706B010BD0022C3F820211A4AD3F8AB
:203500002031049301201368049A9847DCE70020C3F81C01144AD3F81C3103931368039ACB
:203520009847CAE70022C3F81821104AD3F81831029301201368029A9847B7E70020C3F852
:2035400014010A4AD3F8143101931368019A9847A4E70022C3F80821054AD3F808310093F2
:203560001368009A984791E7E80F0020EC0F0020F00F002008B5FFF77DFFBDE80840FFF77C
:20358000CDBC00BF074B002282B0C3F80021D3F800210192019A044AD3F808051368C0B234
:2035A00002B0184700D00040F40F002030B41E4C437944F823201D4C03EB4303E35C83BB24
:2035C0008A7890F904305201002BD2B224DB03F1604303F5614383F8002390F90430002B72
:2035E00009DB134D4FEA531C012203F01F0302FA03F345F82C3003680A88C3F8082543797B
:203600000879C97803EB4303E21850700120E0549170002030BC7047064D03F00F03EA544B
:20362000DBE7082030BC7047FC0F0020F80F002000E100E014ED00E00368044A01211960B5
:20364000437903EB43030221D1547047F80F002010B40368002483B0C3F80041D3F80041C6
:20366000036801940122019CC3F8442311B10368C3F8042303B05DF8044B70472DE9F04104
:20368000274E284FDFF8A08084B000244FF48035D6F804332B4211D057F824300022E0B24D
:2036A00063B1C6F84853C6F8085347F8242057F824200392D8F80030039A98470134032CF9
:2036C0004FEA4505E4D1164BD3F80423D10702D5D3F80021C2B9124BD3F80423920710D57C
:2036E000D3F804216AB10022C3F80421D3F804210D4B0192019A1B68052004B0BDE8F04115
:20370000184704B0BDE8F0810022C3F80021064AD3F80031029304201368029A9847DAE7C6
:2037200000B0004040B10040FC0F002010B5084CD4F8003182B04BB1064B1B689847002323
:20374000C4F80031D4F800310193019B02B010BD000001400010002070B5114B114A1D78EE
:203760001160DDB9104E027801211970C6F80C25416804464FF47A720023C803490C07F074
:2037800033FCC6F80405237A084A5B01DBB282F810334FF480331360284670BD082070BD45
:2037A000D72E0020001000200000014000E100E0044B054901220220C3F804231A600870FC
:2037C000704700BF00000140D72E002010B504460020FCF711FE0E4A1378072B11D80D4988
:2037E0002370581C1070D1F80805012202FA03F30343C1F8083500240020FCF705FE20467B
:2038000010BD04240020FCF7FFFD204610BD00BFD62E002000000140034B044A00F5C0708C
:2038200043F82020704700BF000001403546526E704700BF704700BF002070470020704781
:203840000020704701207047704700BF01207047704700BF0020704706F096B8704700BF64
:203860000020704700207047002070470120704701207047704700BF704700BF704700BFB1
:203880000D490E4A0E4808B500230B800D4913600B800D4953600B700C49C2E90233C2E901
:2038A0000433FEF7F1F9064B084903F10800BDE80840FEF7E9B900BFBA2E00209410002045
:2038C00084100020BC2E0020D82E00201CCA0000124A70B50023124C1370124E124A23803A
:2038E00005460C46114812493380C2E90033C2E90233C2E90433FEF7C7F90C4B0C4903F1CF
:203900000800FEF7C1F9802C28BF802422462946084807F051FD3480204670BDD82E0020E0
:20392000BA2E0020BC2E002094100020841000201CCA0000041000202DE9F0410E4A0F4BEA
:2039400014781F88E519802D03DD00252846BDE8F081DFF8308022464146064607F02CFD1E
:20396000074B1B8830191C443A4658FA84F107F023FD2846BDE8F081D82E0020BC2E002097
:20398000BA2E00200410002030B5134B134C144A94F800C01B881288634452FA83F39BB2AC
:2039A0001A18802A16DC013B9AB21BB2002B0CDB0C4D511C024429442A44013B1BB211F8D9
:2039C00001ED02F801E95D1CF7D1844484F800C0012030BD002030BDBA2E0020D82E002087
:2039E000BC2E002004100020074A1388834209DB0649B1F800C080B21B1A60440880138016
:203A00000120704700207047BC2E0020BA2E0020014B1880704700BFBC2E0020044A054BE3
:203A200012881B780448134450FA83F0704700BFBA2E0020D82E0020041000200048704722
:203A400004100020014B1888704700BFBC2E00200549064A064B128808781B88104453FA79
:203A600080F080B2704700BFD82E0020BA2E0020BC2E002030B50E4C0E4D84468E460FCCE3
:203A8000CCF80000CCF80410CCF80820CCF80C3003CCCCF81000CCF814100FCDCEF8000071
:203AA000CEF80410CEF80820CEF80C3030BD00BF941000208410002010B584468E4600684D
:203AC000DCF80410DCF80820DCF80C30084C0FC4DCF81000DCF8141003C4064CDEF8000000
:203AE000DEF80410DEF80820DEF80C300FC410BD9410002084100020014B23F81010704776
:203B000094100020014B33F81000704794100020024B0C3803EBC000FEF7B6B88410002089
:203B2000024B0C3803EBC000704700BF8410002001490248FEF7AEB81CCA00008C1000208B
:203B400008B5FDF745FFBDE80840FDF797BF00BF08B5FCF73DFD002000F072FA04F092F995
:203B600000F050FC4FF08052064BD2F8A810D2F8A4205A604CF6F46C3620A3F800C0987082
:203B8000D97008BD9C0C00200148002100F0EAB81C02002010B5FDF723FF0446BFF35F8F50
:203BA00000F080F900B930BFBFF35F8F2046BDE81040FDF719BF00BF0AB90020704708B517
:203BC00008461146FDF756FA002008BD0FB400B583B004AA054852F8041B019203F0B8F8D2
:203BE00003B05DF804EB04B0704700BFEC0100202DE9F8432F4D2A688242044618BF1346FA
:203C000040D0002B3CD01B689C42FAD1002C37D0294EA37B376853B1A36843B18C4206D023
:203C200000223460832104F10C0098472A68A2422FD02AB11368A34236D01A46002AF9D140
:203C4000A37BE3B12D680023A373C5B14FF002084FF00109AB7BDB070ED5AB6822468721CE
:203C600005F10C0043B1356085F80E8098470238012814D985F80E902D68002DEAD1376050
:203C8000BDE8F883002AFBD00B4E937B3768002BC2D123682B60A37B002BD3D1EFE7294603
:203CA0002846FFF7A5FFE7E723681360A37B002BC8D1E4E7301200202C12002038B58368EB
:203CC0007BB104460A4804600220A07304F10C000D4698470238012804D9832D02D001236A
:203CE000A37338BD21462046BDE83840FFF780BF2C120020F8B5134A134B146800221A70AC
:203D0000D4B1124F0125022601E02468A4B1E37B002BFAD0A368E5810022822104F10C0023
:203D2000002BF2D03C60A67398470238012804D9A5732468002CEAD1F8BD21462046FFF7BF
:203D400057FFE2E730120020D92E00202C120020034B1878FF281ABF421C1A708020704740
:203D6000DC2E0020F8B5144A1568854205D004462B461BB11B689C42FBD1F8BD002CFCD094
:203D80002560A3810D4DA3682F6814600126A6735BB10A460221A1732C60812104F10C0008
:203DA00098470238B04202D9A6732F60F8BD21462046FFF71DFFF8E7301200202C12002042
:203DC000014B8B221A707047DC2E00202DE9F8432E4D2B78FBB92E4E3378BBB12D4C2E49D9
:203DE000227802EB4200013202F01F02227001EB8002013B546851F82080177ADBB2337012
:203E000064B1812F1FD0A27BD2071ED428781844C0B2BDE8F883FFF76DFFDCE71F4A14686E
:203E20005CB9F3E7A37B13F0010F42463946204601D0FFF743FF246814B32B78002BF1D00A
:203E4000FFF758FFEEE70122A273D4F80890B9F1000FDBD0124B1C6002234246A373394625
:203E600004F10C00C8470238012805D9832F03D001223378A273C9E721462046FFF7B8FE60
:203E8000337828781844C0B2BDE8F883D92E0020DB2E0020DA2E0020AC1000203012002033
:203EA0002C120020034A044B10781B781844C0B2704700BFD92E0020DB2E002030B40F4C1A
:203EC00094F800C0BCF1200F15D00D4B1B78634403F01F030CF1010C03EB430384F800C0B4
:203EE000084C44F8232004EB8303054619725D60002030BC7047012030BC7047DB2E002037
:203F0000DA2E0020AC10002038B5837B034CDB07256801D5FFF7D2FE256038BD2C12002080
:203F200018B1837B013B012B00D97047024A0123C3731370704700BFD92E0020FDF792B8BE
:203F400010B5044607F046FA01462046FDF792F8BDE810400A20FDF785B800BF08B50448D8
:203F6000FDF7B8FFBDE808400248FDF7B3BF00BFF4010020000200200148FEF703B800BF4B
:203F80000002002038B50F48FDF7B6FFB0B104460D48FDF7B1FF0546206058B1FFF7CCFCDC
:203FA00005F19A01A5F8800005F18200FFF762FD204638BD03482146FDF7BAFF0024204642
:203FC00038BD00BF00020020F4010020006800F19A018230FFF74EBD10B50446214607488A
:203FE000FDF7C2FF00B910BD21680548FDF7A0FF21460248BDE81040FDF79ABF0002002008
:20400000F401002010B5044621460948FDF7ACFF00B910BD2468B4F880102046FFF758FC27
:2040200004F19A0104F18200BDE81040FFF744BD0002002008B506F0FBF980B208BD00BF0E
:204040000E4A012100231160C2F80031D2F80031002BFBD0D2F8080508490023C0B2C2F8FF
:204060000031D1F80031002BFBD0D1F80825012340EA02204B6080B206F0ACB900D0004071
:20408000817942790379521A1A4208D0026801F1010C525C03EA0C038371104670474FF0FC
:2040A000FF30704710B4164B1649002283B0C3F84021D3F840210192019AD3F8102522F0B9
:2040C0000F0242F00802C3F81025D3F8082542F00302C3F80825D3F804254FF480344FF45E
:2040E000807022F00302C3F80425C3F80443C1F88001086001221A6003B05DF8044B704786
:204100000080004000E100E0024B01225A64D3F84405704700800040074BD3F8402102B92C
:204120007047002282B0C3F84021D3F840310193019B02B000F002B800800040054B186800
:2041400038B110B400241C60D0E901215DF8044B10477047B4170020704700BF70B5058872
:2041600082B004466DB14C2D06D1364DE868002839D0012002B070BD00230380032002B0D6
:2041800070BD3048304E4FF42071FDF735F82F4A009241F2E1032A4642F23D212C4802F07D
:2041A000ADFC2C4B48F2FE021A602B4A3046C3E901522A4ADA60294600F80F5B342207F075
:2041C000F0F8274A274B956807CB1B78C6F80300C6F80710C6F80B20F37301218120A8471B
:2041E0004C232380C5E71E4B174E5B6898471E4AA6F801001D491E48FFF7E8FC3346B6F8BD
:20420000012013F8031B1B48FFF7E0FC164A17491748FFF7DBFC1848FFF7D8FC0D48FDF7C0
:20422000B9FD0A20FFF78AFE0A4B09484322314602F050FC3378284601333370FCF7E6FF98
:20424000CEE700BF20180020B817002059410000FC17002030180020F6CE365AB2BE027434
:2042600000CB00008CB900009CB90000E4B70000ECB70000A4B90000E4B900002DE9F0415A
:204280000488752C064643D07C2C22D0002C3AD1FFF75EFD2D4B2E4F18702E4D3A682C604A
:2042A00082B123462C4C984604F8038000219368802098472B6801332B6057F82320002AE4
:2042C000F2D1DAB2254B1A70752333800120BDE8F0811E4B1B788B42F8D11E4D1E4CDFF8D5
:2042E0007C801F4F2B68E25C02F07F02E2543A6801323A6098F80020013393422B6013DB39
:204300003B685BB9E0E7002303800320BDE8F081DFF848800F4D98F80020114F00233B6077
:204320002B60002AD0D00C4CE256002A01DB2B68E0E7074A52F82320044B00201978FFF764
:20434000BDFD0028CED17C233380BFE7DE2E0020E401002044180020C80F0020DD2E002015
:204360004018002070B50488672C064619D0792C31D04CB300230380032070BD5A1C2260B9
:204380001B4A0024D4541B4B20461978FFF796FD194B852118682246FFF790FD20B300231B
:2043A0002B60164C06E00A282368E7D00D28E5D07E2B14DD1248FFF763FE431C2546F2D1F4
:2043C00067233380012070BDFFF7C2FC094A0B4B10701C60E5E78529F4D1084DDFE7044952
:2043E0005A1CC8542260E5E7792333800120EAE748180020DF2E00202C120020C818002091
:204400004C190020064B074810B40021064C1C607F2299719A805DF8044BFFF7A3BC00BF47
:204420004C1900202C020020CC180020014B024A1A607047581900200100FD0010B51A4C22
:204440000220A179FFF758FBA379112B17D0062B07D03A2B1DD0BDE8104000210120FFF711
:204460004BBB124B1B8828331A19E15A53889942BDE8104028BF19460120FFF73DBB218DBF
:20448000638D9942BDE8104028BF19460120FFF733BB064B28341B88E15A49BABDE810408E
:2044A00089B20120FFF728BB48280020CA2E002010B5137891F808C083F002039C45864659
:2044C00017D0214C0B89226833B94B89B3F57F4F02D18B89FE2B2DD001F1080303CB02F169
:2044E00008031060012000FA0EF023605160C0B210BD487A53789842E3D1887A93789842B3
:20450000DFD1C87AD3789842DBD1087B13799842D7D1487B53799842D3D1887B9379984251
:20452000CFD1C87BD3799842CBD1032303FA0EF0C0B210BDCB8922F8023B022303FA0EF0AB
:204540002260C0B210BD00BF5419002070B5124B1B680C46154613B19B68084698470F4B4E
:204560000D201C60FFF7DCFA0D490646FDF792FB00B170BD2A4621463046FDF7B9FA094B7D
:20458000304621462A465B6C984729462046BDE8704003F09BBD00BF64190020C81A002055
:2045A0001CCA00005CCA0000F8B507460E46FFF749FA134B1A78851A6B1E6D2B0AD811487D
:2045C000002384469CF802400CF1710C34B101330C2BF7D14FF0FF352846F8BD0A4909682C
:2045E0001144C3EBC30203EB0213C218C75403335670957018442A4606F0DEFE2846F8BD39
:20460000E22E0020E0030020D41A00202DE9F04715090F2DDFF8248102F00F0408BF102535
:204620000F2C99460646D8F800300F465AD0032BA2464ADC27B139462A46304606F0BCFE6C
:2046400005EB0A020F2A08DD7CB94DBBD8F80030032B2DDC0120BDE8F087C2F110020021A9
:20466000701906F09EFE002CEFD02D4BDFF8D0901A68D9F800309B1A03EB0A07FFF7E2F97D
:20468000874238DDD8F80030012B07DD254A26492648FFF79BFA2648FFF752FC0020DAE7C2
:2046A0004946304604F0D0F9D8F80030032BD1DD3046FDF76FFBD8F80030032BCADD0A2089
:2046C000FFF73CFCC6E71024A246164A19491748FFF77CFA184852462946FFF777FA002F59
:2046E000A9D1ADE7032BEEDC11B12A4606F064FE1024A246B9E7D9F80070CAF110003044EE
:204700002246394606F058FE022C05D10A2D9CBF4FF6FF63A6F80B302744C9F8007095E738
:20472000D41A00209CB9000038BA0000ECB7000040BA000014BA000018BA0000BC0100200A
:204740005419002038B52349234A244B0C7815681B6823492A460144181906F02DFE601927
:2047600080B2FFF755F9FFF70DFCD8B11D4B00219B6804461C48984705F00EFE2046FFF7C5
:2047800041FC2046FFF728FC184B1B68012B03D0032B01DC012038BD154B1B68002B0FDC5D
:2047A000002038BD124B1B68012BF9DD114A12491248FFF70BFA1248FFF7C2FB0020F0E7F3
:2047C0000C4A10490D48FFF701FA0F48FFF7B8FB0020E6E7E22E0020D01A0020D41A0020AF
:2047E00048280020F4C900004D450000C81A0020BC0100209CB9000038BA0000ECB7000011
:2048000074BA00002CB90000ACBA00002DE9F04F3B49DFF80CB128228BB00A70394A00230D
:2048200013700446FFF72CF8FFF7F8F8364BCBF800001B680BB1FFF701FEDFF8E890D9F813
:204840000030022B00F36182042005F0A7FC01460520FFF751F92D4BDFF8CCA0002C14BF03
:20486000214619460D20FFF753F9294B9B6998470028D9F80030CAF8000040F33A82032BA4
:2048800000F34E821F4BDBF800201B78214F0233D118104401F126048442396008D3D9F85C
:2048A0000030012B00F3668200200BB0BDE8F08F0024D45418480378012B00F0C4814FF0FB
:2048C00000084546154E71783278080940EA0210C0F3850343EA801311F00F0C4FFA83FE21
:2048E00002F00F02DBB221D17088F8B9002A40F06D820F2900F26A827823089322E000BF37
:20490000E12E0020E22E0020641900201CCA0000F4C900005419002058190020482800204A
:20492000D41A0020BC010020CC1A00203868002A00F0318201463268026001F8043B60231B
:2049400039600893B3792C2B00F26B835A1E292A00F26A83112B00F067833A6802F8013B28
:204960003A60F379402B00F06F84FF2B00F06684012B40F05D84089B43F001030893338971
:20498000002B40F0348373891BB9B389002B00F0D784002C00F00184D9F80030032B00F3C0
:2049A0009584B64BDBF800001B786478B44A0233C15C41EA0411C154B2490420FFF778FD6C
:2049C00060F03F05EDB2337EFF2B00F05783B8F1000F00F0BA83A94BDBF800101B7898F820
:2049E000014002330D20CA5C2243CA54FFF798F8A54902460020FFF75BFD45EA0003DBB282
:204A000043F0040309933B680593D9F80020032A00F373839D490691B379002104912C2BC8
:204A200000F24682591E292900F2D781112B40F05D82032A00F341822B2B00F27382049B9F
:204A400003F128083B68032A03F101033B6006EB080500F3DD8336F808305BBA99B26B88C5
:204A600021F00F024FF2B0005BBA82429BB21FFA82FC00F0A68303F47F43B3F5704F00F03D
:204A80000B8401F47F43B3F5704F00F0A483059AF0231370D9F80030032B00F32C853868AA
:204AA000DBF80030DAF80020011D1A44914280F0158556F808400460881C9042396080F02F
:204AC000A284EA880A80724938600A7808320A706A4A0899127899541A4409995170D9F8CD
:204AE0000010032900F3AC843C686A4DDAF800702A88E41A614B1C70654B93F80080A2EB8A
:204B0000080353FA84F30229049300F39282049BBB4240F30E82A2EB0803584ADAF8006032
:204B20001478341B043C24F00704053E1B1B9B1B002B26F0070A40F340835F1E97FBFAF7C4
:204B4000FB1C04930437FFF717FAD9F80030022B804600F3DB83B845C0F0C383002CC0F24F
:204B6000E0834D4B454A188892F800804B4ADBF80070059000211160024601321A8039466E
:204B80004246381D06F0F4FB3C49059AFA7008F104030B702B881B0A63F03F033B702B887F
:204BA0007B70130ABB70D9F800303D4F022B3C6000F30484364C2078FFF7C4FD00283FF4C5
:204BC00073AE2B88DBF8001024782C481B0A63F01F030B702B884B703B681C442B88A4B27F
:204BE00005229C42027080F0AD824FF0020810E02046FFF7A7FD00283FF456AE3B682344FD
:204C00009CB22B88A34208F1010840F29B82DBF800101B1B9E42B8BF53463B60D9F80030B8
:204C2000E208022B0A71E3DD1E4A1F491F48FEF7CDFF01943B6800934146DDE904231C4887
:204C4000FEF7C4FFD4E70F4A45881488A54200F1020340D000240C4A1D881088854229D0BB
:204C60004FF00008002C3FF42AAED9F80030032B00F3A28001313960802523E6E22E0020C9
:204C8000482D002050280020602800204E280020E12E0020C82E0020BE2E0020C81A002056
:204CA000D01A00209CB90000E4B70000ECB70000ECBF0000588853889842D1D1A74D938866
:204CC00028889842CCD1D38835F8022F9A42C7D1A5F10808C9E75D885488A542BAD1C588AA
:204CE0009488A542B6D1D28804899442B2D10446B1E7012B7FF7D8AD994A9A499A48FEF744
:204D000065FF9A48FFF71CF9CEE5954A98499648FEF75CFF974B98481988FEF757FF93E57B
:204D2000964E8F4A96499048FEF750FF95487179FEF74CFF3546D9F80020002404E0737954
:204D400001342733A3420FDB032A2B4605F10105F5DD19788C48FEF739FF7379D9F800201A
:204D600001342733A342EFDA032A00F3CB82DAF8000087E57B497A4A7B48FEF727FF83481A
:204D80002621DBF80030DAF800403A6823449A1AFEF71CFF88E50F293FF6CCAD2EF03F0E2C
:204DA0004CEA0E0C80F800C07388A0F801300330682338600893C5E57149694A6A48FEF7F8
:204DC00005FF7348FFF7BCF8396853E73A6802F8013B70233A600893B4E5032A6DDC2B2B8A
:204DE00000F0F7802C2B00F0968000230793049B03F1280535446C78032A4FEAC40404F1F2
:204E000008040ADD564A5E495748FEF7DFFE069B604819782246FEF7D9FE2978DAF8003036
:204E2000DBF80020069511291A443B680FD071B12C2900F2D8802A2909D801339342D9F8FB
:204E4000001080F0A58303293B6000F3E98203EB0408904580F05B8322461846294606F03D
:204E6000ABFA049AC7F800802244E4B20492A21E4270494A13781C442B7814702C2B44D894
:204E80005A1E292A00F2F880A3F11103B3FA83F35B09079A43EA4203059ACDF8148063F050
:204EA0001F0313702B78D9F800202C2B7FF6BAAD3C2B1BD1032A7FF7BFAD294A30492A48C6
:204EC000FEF784FE069C35482178FEF77FFE2378D9F800202B2B00F0988167D8002B00F0EC
:204EE0001483112B3FF4ABAD002A65DC032A09DD23491B4A1C48FEF769FE069B28481978A3
:204F0000FEF764FEDBF80030E2E5A3F13C03B3FA83F35B09BDE7049B03F128050223354414
:204F2000079368E7049B03F1280503233544079361E7904540F2ED80D9F80030002B7FF731
:204F4000B3AC074A17490848FEF740FE124B29881A781548FEF73AFEA6E400BF5E190020B4
:204F60009CB9000038BA0000ECB7000018BB0000E4B70000C82E0020ECBA0000482800208D
:204F800014BA000054BB000014B9000070BB0000C0BB000098BC0000E12E002078BC00000A
:204FA0004CBE00002CB9000024C000002C2BB2D03C2BB7D0002AA5DDA64AA749A748FEF7E7
:204FC00005FEA748FEF702FE069BD9F800201B7825E5049B03F12805354401236C780793E0
:204FE000E400083419E73C293FF431AF25E7002C7FF4D2AC48F2FE02934240F0CE80B28B26
:20500000738B1343F28B13439BB2002B40F0C580944A95490420FFF74BFA45EA0003DDB2A0
:20502000D1E43C2B7FF499AC089B43F00403089397E4884A8D498948FEF7C8FD8C4B8D4AC8
:2050400019782B8812788C48A3EB010C9444CDF800C0DAF800400194049CBC42D4BF4FF09F
:20506000000C4FF0010CCDF808C0FEF7AFFD804B2A8893F800804AE501230AE7737ED7F81E
:2050800000C045F00802022B0992728B00F0058222BBB28B12BB318CF28B0A43718C92B226
:2050A000114319D196F82420002A00F0998296F822209AB945F009020992624602F8013BCF
:2050C0006E4BD6F82310CCF801101B7913710CF1060305933B6098E4002AE8D0684C0CF1E1
:2050E000100305933B600FCCCCF80000CCF80410CCF80820CCF80C3087E4564A61495748B3
:20510000FEF764FD6048B179FEF760FDD9F8002080E4584BDBF800001C78A2EB080206EB2E
:205120000801204406F048F92B88E018A0EB080080B2FEF76DFC554B55489B6800219847BD
:2051400005F02AF90120FFF7B0BB328B48F2FE039A4215D1B28B738B1343F28B13439BB24A
:2051600073B90D20FEF7DCFC454902464046FFF79FF945EA0003DBB209933B68059344E461
:2051800009953D683E4C05F1100305933B600FCC28606960AA60EB6037E4D7F800C0324C5D
:2051A0000CF110033B600FCCCCF80000CCF80410CCF80820CCF80C3005E402230327049312
:2051C000C1E423F00F02624500F0D78003F47F43B3F5704F60D0059AF2231370D9F8003090
:2051E000032B00F3B4813868DBF80030DAF80020C11C1A44914280F0F08036F80840240A32
:2052000004706C88A0F8014056E401230793EEE5104A1C491148FEF7D9FC6A8836F8081068
:205220001C4852BA49BA92B289B2FEF7CFFC12E43A6802F8013B3A60FFF7A1BB089B43F02C
:2052400003030893FFF79BBB089B43F002030893FFF795BB9CB900002CB90000ECB70000C8
:2052600018BE0000482D002050280020E4B70000E12E0020E22E0020A0BE00006B28002020
:205280006028002014BA000058BC0000F4C900004D450000FCBC0000059AF1231370D9F876
:2052A0000030032B00F3A6803868DBF80030DAF80020C11C1A44914280F08F8036F80840DF
:2052C00004806C88240A8470FFF7F6BBB24AB349B348FEF77BFC6178B248FEF777FCFFF7FD
:2052E00060BBD9F80030012B7FF7DEAAAA4AAE49AB48FEF76BFC42463946AC48FEF766FCDC
:20530000FFF7D2BA0A20FEF719FE30E5A24AA849A348FEF75BFC0499A6484246FEF756FC52
:2053200019E4D9F80030012B7FF7BEAA9A4A9E499B48FEF74BFCA048FEF702FEFFF7B4BA3A
:20534000F389002B7FF425AB338A002B7FF421AB738A002B7FF41DABB38A002B7FF419AB3A
:20536000F38A002B7FF415ABD9F80030032B00F34A8145F04005FFF726BB059AF3231370DC
:20538000D9F80030032B00F3FA80D7F800C0DBF80030DAF800200CF101011A44914280F04D
:2053A000E18036F808406888240A000A00EB041000F5AA608CF80000FFF77EBB764A7C49B8
:2053C0007748FEF703FC3B6800930121DDE904237A48FEF7FBFBFFF7EDBBD9F80030012B5D
:2053E0007FF762AA70496C4A6D48FEF7EFFB74480321C6E4684A69496948FEF7E7FB7148F9
:20540000FEF79EFD50E7D9F80030012B7FF74CAA6549614A6248FEF7D9FB69480221B0E4F8
:205420005D4A5E495E48FEF7D1FB67482978FEF7CDFBDAF80030DBF800201A443B6806E5C9
:20544000554A56495648FEF7C1FBDBF8003039685E48C91AFEF7BAFBDBF800203B68D9F881
:2054600000109B1A002B12DD002407E0DBF800203B680134A4B29B1A9C4208DA0329F5DDAE
:20548000115D5348FEF7A2FBD9F80010EEE7032954DCDBF80030FFF727BB002A7FF41EAE1B
:2054A000F18BB28B0A43318C0A43718C0A43B18C0A4392B2002A7FF4ECAD96F82620002A90
:2054C0007FF4E9AD624645F00B03099396F8273002F8013B05923A60FFF797BAD9F80030A8
:2054E000012B7FF7E1A930492B4A2D48FEF76EFB3348042145E4284A28492948FEF766FB4C
:205500003448FEF71DFDFFF7CABA07936FE4D9F80030012B7FF7C8A91F4A23492048FEF753
:2055200055FBDAF80010DBF800303A6824480B449A1A2146FEF74AFBFFF7B6B90A20FEF700
:20554000FDFCDBF80030D9F80010FFF7CDBA124A12491348FEF73AFB059B1F481978FEF728
:2055600035FB40E6D9F80030012B7FF79DA90E49094A0B48FEF72AFB1148012101E4064A25
:2055800006490748FEF722FB1448FEF7D9FCFCE601297FF789A9EAE79CB9000014BA00008D
:2055A000ECB700001CBC000038BA00003CBF0000E4B70000F8BE000084BF0000BCBF000074
:2055C00070BB000070BD0000C0BC000084BE000014B90000F4BD0000ACBD000034BD0000DD
:2055E00045F00A020992624602F8013B0A4BB6F825109B78ACF8011093700CF10403059352
:205600003B60FFF702BA054A05490648FEF7DEFA0548FEF795FCACE66D2800209CB9000016
:2056200014BA0000ECB70000F0BB00002DE9F0470546144642BB894E36F8063C0F46ABBB5D
:205640001C46B036002C7CD136F8063C01244FF000086BBB0024824EB02202FB04626342B9
:205660000C201581578103F0B005FEF759FA01467019FCF709FB05F110003044402102F00C
:20568000C9FB2046BDE8F087754E338983425AD0B6F8B830AB4274D0724B1B68012B00F330
:2056A000D2804FF0FF342046BDE8F0874FF0FF38304602F0C5FBF8B9B8F1000F31D036F86E
:2056C000063C002BBDD0B0366CB1664B1B68012BE7DD654A65496648FEF778FA294665481B
:2056E000FEF774FADDE736F8063C53B3304602F0A7FB01240028E2D05F4B4FF0000C26F8F1
:2057000006CC03F24C51E0B29A7822B11A78824208BF83F802C071339942F5D1B8F1000F57
:20572000CDD1002C96D1B6F8AA30B036002B91D0304602F085FB01244FF00008002889D069
:20574000DAE7012487E77389002BA1D00C20FEF7E7F901463046FCF79DFA002898D0002560
:20576000EFB221463846FEF71FFF431C19D0B02303FB05636CB29A89104498812046BDE856
:20578000F087B6F8BA30002B86D00C20FEF7C8F901463A48FCF77EFA00283FF47DAF0125B6
:2057A000DEE7DFF8B88038F8063C4BB3002D47D04FF00009CA46404602F042FB50BB08F150
:2057C000B008BAF1000F06D138F8063C1BB14FF0010A002DEFD0B9F1000F14DC214B1B6874
:2057E000012B7FF75EAF204A20492148FEF7EEF9B02303FB056322481989FEF7E7F950E791
:2058000099469A46DBE721463846FEF7CDFE0028ADDCE3E7184A002028F8060C5FFA8AFC54
:2058200002F24C51864693782BB11378634504BF82F802E0013071328A42F4D18144BEE703
:20584000A946AA46BBE7084A08490948FEF7BEF9224629460B48FEF7B9F922E7781900209C
:2058600068190020BC0100209CB9000038BA0000ECB7000060C00000E0030020181A00204B
:20588000F4C000009CC000002DE9F04F0C2095B0AA4EAB4CAB4DFEF743F90027FCF786F981
:2058A00037702770FEF7BAF82860FEF7CBF888B9A54B1B68012B02DC15B0BDE8F08FA34A2F
:2058C000A349A448FEF782F9A34815B0BDE8F04FFEF736BB04F09CFB0420FEF713F901460F
:2058E000062004F065FC0320FEF70CF90146072004F05EFC296820780B885BBAC3F30722A4
:2059000002F0F802C02A9BB200F0AB80E02A48D0924A0692DFF830A207974FF4A06205978B
:2059200008970992049723788D4FCA5C0020387002F0F000F0286ED002F0E003602BDAF8C3
:20594000000000F01F81412A7CD1032800F3B98221782A684B1C52FA83F3069A03F120009E
:20596000D3F800E0D3F804C09F68D3F80C80C2F80C8010338342C2F800E0C2F804C0976032
:2059800002F11002ECD118685B6853601060337829312833217033704FF00009089FC8464E
:2059A00028E0C3F30A0304934B8891F8048004995BBA9AB205302070079210464246FFF775
:2059C00035FE03460133059000F02A83654B05990697B02202FB0133049A9B894FF0010CE9
:2059E00093424FF4A063CDE908C334BF4FF000094FF00109FEF726F82378834259D9524B45
:205A00001B68002B7FF758AF504A57495148FEF7DDF8564859E702F00F0C0133DBB2BCF165
:205A2000010FDAF80000237087F800C071D1022800F3BE82CB5C03F0E002602A00F0A58078
:205A4000412B85D000287FF737AF404A46494148FEF7BCF823782A684548D15C01F0E001FD
:205A600067E04A88DFF8E0A0C3F30A0352BA049393B20793DAF800300430022B207000F38B
:205A8000D881049907980022FFF7D0FD03460133059000F0D282059B364A29685B4203F0F5
:205AA000B003134406934FF001089423CDE9088339E7FDF7C7FF2378DFF8C4A0C21A089BD4
:205AC000CAF8002023B1204B1B68022B00F346824FEAC80833781FFA88F803EB080B934415
:205AE000BBF5A06F00F270820699002900F0068209989918814240F3F681134B1B68002BF8
:205B00007FF7DAAE114A18491248FEF75FF81A48DBE612F00E0F08BFCA5C3FF40DAF0028DF
:205B20007FF7CAAE1049094A0A48FEF74FF81348397815B0BDE8F04FFEF748B8E12E002064
:205B4000E22E0020D41A0020BC0100209CB9000038BA0000ECB7000044C1000048280020AB
:205B6000E02E0020681900202CB9000054C7000018C700008219002034C800001CC20000E2
:205B8000D01A0020032800F35F81FDF75BFF23780A905A1C824280F208822968C8189A1C1D
:205BA00090F901B0CF5CAD4B90F801800A44BBF1000F1A60C0F28E81F80607F0080140F10C
:205BC0006581002940F09282A44B0A981A682B68D31A984240F3658213780698C3F3830386
:205BE00043F06003037012F8010B9C4B1A608308069A03F0300343EA80135180537017F079
:205C0000040912D1954B2A681B680A98991A8842DAF8002040F34782069819788171032A44
:205C200000F3E5838D4A0133136017F0030700F04F828B4B069ADB5DD37118F0400FC8F3B5
:205C4000011300F0A381BBF1000FC0F260830022002B40F00782069A194602F10807814AFA
:205C60000C91D25C0B920C20FDF75AFFDDE90B2103463846FEF7CAFC002800F0968118F098
:205C8000080208F0030108F0040300F0C582FBB940F2FF23ADF84C304B1E012B0DD86F4B6B
:205CA0002A681B680A989A1A904240F3BD8413F8012B8DF84D20694A13606B4B06985A5CDA
:205CC0001830002313A9FEF7A1FC002800F06D8133782A680A9828333370604B19688B1A57
:205CE000984240F3DE81B9F1000F00F05C84069BCDF83CA0981D03F1280700230E93834608
:205D00001346BA4661E055488A1C026048780D900B98032800F30683D21A0A9B9A4280F2BE
:205D200015834E4891F80290CB1C036018F0040F40F08F844D4B099ADB5D11938BF80030A8
:205D4000069BAAEB030302334B44934200F3BD8409F10208C8F3C7075FEAE8088AF8017081
:205D600000F0A1840D9B8AF800303C4B0A9819682B6809F1010ECA1A724407F1FF3C9042CF
:205D80008AF801C0D346C0F275844A460AF1020010930D91FF0005F00FFB0E9A0D992F4B68
:205DA000FFB23A4449441960D3B20E9332780B9B1744032B0AEBC808109B377000F3E48140
:205DC0000C9A002A00F06681C2460A7802F0F000E02840F0F983214F481C38600F9F3F683B
:205DE0000B974FEA5208C2F3420702F001020C920A9AA0EB030C624540F3A8820C9A002ACB
:205E000081D000230D93154B10F8019B18600B9B032B8BDD164A17491748FDF7D7FE4B463D
:205E20000D9A16483946FDF7D1FE0F9B1B680B937CE70F4A12491048FDF7C8FE049A0799E9
:205E40001048FDF7C3FE1CE6094A0A490A48FDF7BDFE0D48FEF774F897E600BF541900200D
:205E6000CCCA0000D8CA0000D4CA0000B8CA00009CB9000014BA0000ECB70000A4C300009D
:205E8000E4B7000058C100003CC20000A64B1A682B68D31A002940F02F810A9903339942A0
:205EA00000F35B82DAF80020012A00F3C182002A7FF702AD9D4A9E499E48FDF787FE9E485D
:205EC00003E59A4A9D499B48FDF780FE9C48FEF737F83DE5DAF80030032B00F30D82924B02
:205EE00001321A6068E628682178014406981844CDE9062305F060FADDE90623049900295C
:205F000000F0A78047B18F49059CB02000FB0411981880B288810883B9F1000F40F0A38196
:205F2000089900297FF4C8AC13449BB20493DFF834A2854CDAF80030049A2280022B00F395
:205F40003681824C236823B1FEF778FA23685B68984715B0BDE8F04F01F0D4BD7C49734A1C
:205F60007448FDF733FEDAF800200A92FDF76AFD009023780A9A01934FEAC808079975488E
:205F80004346FDF723FEDAF80020A3E5724A0C20D75CFDF7C5FD0346069870493A460830C0
:205FA000FEF734FB00287FF46AAEDAF800207EE75E4A67495F48FDF709FE6948FDF7C0FF55
:205FC00023782A68D25CB7E4664B1B68002B12DD564A57495748FDF7F9FDCDF804B0DAF869
:205FE00000303278604800934FF4A064059902944346FDF7EBFD0598524A5C4BB02101FBFF
:2060000000220024C0B2548103F24C519A781AB11A78824208BF9C7071338B42F6D14BE4F4
:20602000504B1B68002B7FF747AC41493F4A4148FDF7CCFD07994E487BE5DAF80030002B92
:206040007FF73AAC394A3A493A48FDF7BFFD49483BE4089900293FF467AFB9F1000F7FF4BD
:2060600066AF29E444490878012803D14878904200F05381DAF80030002B7FF71DAC2B4ABD
:206080002B492C48FDF7A2FD3C48FDF759FFDAF800200CE7C91A0A9BDDF83CA09942C0F20A
:2060A0008282DAF80020012A7FF701AF34491F4A2048FDF78BFD334801211B4B1A682B68B7
:2060C000D21A0A9B9A1AFDF781FDDAF80020EEE6154B2A681B680A999A1A9142E1DD069947
:2060E00013F8012BCA71104A1360A6E5069A602313800023538082E50698602101700A9990
:206100000233994240F3668111780748D31C03608B0803F0300301F00F010B4306994B70C9
:20612000B2F801304B806AE5541900209CB900002CB90000ECB70000D0C6000014BA00009C
:20614000F8C6000068190020C82E002064190020E4B7000088C70000DCCA0000D0CA000003
:2061600004C20000BC010020C4C70000E0030020D4C10000A0C10000581900200CC3000098
:2061800038BA000094C20000AD4AAE49AE48FDF71DFD9AF801301199581CC00000904A4604
:2061A000AA48FDF713FDAA4B19682B6808E6A44AA849A548FDF70AFDA7482188FDF706FD9C
:2061C000DAF80030032B7FF7BCAEA44C9C4A9D499D48FDF7FBFCA2486179FDF7F7FC002652
:2061E000DAF80020254604E0637901362733B3420BDB032A2B4605F10105F5DD1978994838
:20620000FDF7E4FCDAF80020EEE7032A7FF799AE0A20FDF793FE94E6002B00F04181BBF147
:20622000000F05DA22782B6813449A7802F00F02DFF8648298F80030012B04D198F8013098
:20624000934200F0E180DAF80030002B7FF734AB7B4A85497C48FDF7B9FC8448FDF770FE68
:20626000DAF8002023E60599814EB02202FB016204995589178B9181BD42C0F08A80B5F5F2
:20628000A06F00F286800693059B744CDFF80C82594201F0B0011A313A463144204605F0C1
:2062A0008BF8EA1BE019002105F07BF8069BDDF814B0A8F1030508F24C57994604E008F1A0
:2062C0007108474500F0FC8018F8012C002AF6D018F8033C9B45F2D118F8021C02EBC1034F
:2062E000B3F5A06F4FEAC10104EB010000F21482414605F061F8E2E7514A52495248FDF712
:2063000065FC5C48FDF71CFE514B1A68E7E521782A680A44927812099AE4069A023102F19E
:2063200008079CE4464A47494748FDF74FFC0D995148FDF74BFC464B0F9A186812682B689F
:206340000B920A9AC31A9A423FF75DAD0B9ADDF83CA0012A7FF7ABADA8E60698B2F80130AD
:20636000D178A0F80130C170417812F8043B01F00F0C37490A609A0802F0300242EA83125B
:20638000C3F3830342EA0C0243F060034270037035E43A4B1B68012B07DD294A38492A4835
:2063A000FDF714FC3748FDF7CBFD0599364BB02202FB01620024C8B2548103F24C519A7836
:2063C0001AB11A78824208BF9C7071339942F6D1FFF772BADAF80020012A7FF768AD284948
:2063E000174A1948FDF7F2FB2848032165E6144A14491548FDF7EAFB069B25489979FDF716
:20640000E5FB134B1B680DE4224B0D205F5CFDF787FB034606983A4608F102011830FEF75F
:20642000F5F800287FF454ACBFE5012A7FF73FAD1349034A0448FDF7C9FB144804213CE653
:206440009CB9000014BA0000ECB700006CC4000054190020E4B70000ACC80000482800201A
:20646000D8C8000014B900002CB900003CC30000681900205CC2000070C30000BC010020FC
:2064800038BA000064C80000E003002094C20000E4C20000D8CA000058190020E3030020A6
:2064A000B64B0D205F5CFDF73BFB03460698B4493A461830FEF7AAF800287FF409AC74E5DD
:2064C0000599B02202FB01660024C8B24B46748105F24C51AA781AB12A78824208BFAC70FA
:2064E0007135A942F6D1089A002A7FF420ADDAF8002019E52B680A98DAF80020CB1A013308
:20650000984240F352824B781B09A3F575631B0243F0F003A9F800304B7803F00F03A3F5CF
:2065200075631B0243F0F003032AA9F8023000F32B82944B1B680233924A79071360DAF868
:20654000002000F1158229680A98591A0131884240F32B8233F8021BA9F806108949032A13
:206560000B6000F3FC81FDF76DFA864B2A681B689B1AC3F10803C718049BBFB2002B00F081
:20658000E1810E9A283B9B1A9BB21A0212B21B0A1A43DAF80030A9F80420032B00F3C281FF
:2065A000337808333370774B2A681B689B1A2370049B002B00F09B80049B069A283B5371F8
:2065C0001B121371FFF7E8B990460A9ACB1A9342D1465F46DDF83CA0BFF663AD08F0F80815
:2065E000B8F1F00FDFD1069A09984B469B1A07338342DAF8002080F2DD8011233B70032AF0
:206600000F7800F3E68007F0F303F03B032B3FF64EAC01A050F823F05368000011680000F5
:206620007F680000F5640000DAF80030012B7FF7BCAC554A55495648FDF7C8FA514B554844
:206640001A682B68D21A0A9B01219A1AFDF7BEFAABE40B9ADDF83CA0032A7FF728AC4A4A22
:206660004D494B48FDF7B2FA4C48FDF769FCDAF800201CE40B9ADDF83CA0012A74467FF7C1
:2066800016AC414A41494248FDF7A0FA3D4B41481A682B68D21A0A9B21469A1AFDF796FAB5
:2066A000DAF8002003E40B9ADDF83CA0012A7FF7FEAB354A35493648FDF788FA3848FDF7FC
:2066C0003FFCDAF80020FFF7F2BB0B9ADDF83CA0012A7FF7ECAB2C4A2C492D48FDF776FA98
:2066E0003048FDF72DFCDAF80020FFF7E0BBFDF7A9F92278DAF80030871A3278032B17447C
:20670000A7F1280728DC069B7FBA4FF000099F80C846089FFFF76EB9234B1B68012B07DD9A
:20672000194A1A491A48FDF751FA2048FDF708FC059AB02303FB02630021D0B2598105F249
:206740004C52AB781BB12B78834208BFA9707135AA42F6D1FFF7B0B80B4A0F490C48FDF7B8
:2067600035FAFDF76FF93378009328230193024623780F483946FDF729FAC4E7DCCA000050
:20678000D0CA0000541900209CB9000038BA0000ECB7000094C2000014BA0000E0C3000021
:2067A00048C400000CC40000BC0100208CC8000094C60000012A7FF77AAB8A4A8A498B4832
:2067C000FDF704FA8A48FDF7BBFBDAF80020FFF76EBB844A87498548FDF7F8F9864B87484A
:2067E0001B681978FDF7F2F9834B19680B7803F0F303F03B032B00F2E48001A252F823F03C
:2068000053680000116800007F680000F5640000DAF80030032B7CDC774B0A9819682B6804
:20682000DAF80020CB1A033398427FF7FEADB1F80130A9F80030CB78A3F580531B0243F0A7
:20684000F003032AA9F8023035DC6B4B1B68043372E62B680A98DAF80020CB1A043398424F
:206860004BDDB1F80130A9F80030B1F80330A9F80230032A30DC604B1B6805335CE6DAF8E3
:206880000030032B62DC5C4B0A9819682B68DAF80020CB1A033398427FF7C7AD4B78A3F5D3
:2068A00080531B0243F0F003A9F800304B88A9F80230032AC9DD4B4A4E494C48FDF786F945
:2068C000B9F80220B9F800104D4852BA49BA92B289B2FDF77BF9B8E7424A46494348FDF760
:2068E00075F9B9F80220B9F80010464852BA49BA92B289B2FDF76AF9BDE7012A7FF7D7AA5D
:206900003949384A3948FDF761F93F480521FFF7D4BB344A37493548FDF758F93B48FDF73B
