:020000040000FA
:2000000000000420410C0000690C00006B0C00006D0C00006F0C0000710C00000000000012
:20002000000000000000000000000000730C0000750C000000000000770C0000790C0000B8
:2000400041200000251800006D4000007B0C00007B0C00007B0C00004D1D00007B0C0000CF
:20006000352A00007B0C00007B0C0000492100007B0C0000512000007B0C00007B0C0000A3
:20008000F92100007B0C00007B0C00007B0C00007B0C00007B0C00007B0C00007B0C000095
:2000A0007B0C00007B0C00007B0C00007B0C00007B0C00007B0C0000000000000000000016
:2000C0007B0C00007B0C00007B0C00007B0C00007B0C00007B0C00007B0C00007B0C0000E8
:2000E0007B0C00007B0C00007B0C000000000000000000007B0C0000000000007B0C00005D
:200100000000000000000000000000000000000000000000000000000000000000000000DF
:200120000000000000000000000000000000000000000000000000000000000000000000BF
:2001400000000000000000000000000000000000000000000000000000000000000000009F
:2001600000000000000000000000000000000000000000000000000000000000000000007F
:2001800000000000000000000000000000000000000000000000000000000000000000005F
:2001A00000000000000000000000000000000000000000000000000000000000000000003F
:2001C00000000000000000000000000000000000000000000000000000000000000000001F
:2001E0000000000000000000000000000000000000000000000000000000000000000000FF
:2002000001F0FF01102A2BDB10F0070F08D010F8013B013A8B422DD010F0070F42B3F6D1A4
:20022000F0B441EA012141EA014122F007047FF000070023F0E80256083C85EA010586EA51
:20024000010685FA47F5A3FA87F586FA47F6A5FA87F68EB9EED1F0BC01F0FF0102F007024C
:2002600032B110F8013B013A83EA010313B1F8D10020704701387047002D06BF35460338AF
:20028000073815F0010F07D1013015F4807F02BF013015F4C03F0130F0BC0138704700BF73
:2002A0000348044B834202D0034B03B1184770477402002074020020000000000548064B2B
:2002C0001B1AD90F01EBA301491002D0034B03B11847704774020020740200200000000002
:2002E00010B5064C237843B9FFF7DAFF044B13B10448AFF300800123237010BD080F002045
:20030000000000000459000008B5054B1BB105490548AFF30080BDE80840FFF7CFBF00BFBA
:2003200000000000E402002004590000A3F5803A704700BF174B002B08BF134B9D46FFF707
:20034000F5FF00218B460F461348144A121A04F079FE0E4B002B00D098470D4B002B00D08C
:2003600098470020002104000D000D48002802D00C48AFF3008003F0B9FF2000290000F0A3
:20038000E3F903F0CDFE00BF0000080000000000000000000000042078020020240F0020EB
:2003A000000000000000000000B585B00346002101AA44F20100CDE90111039300F004F8BD
:2003C00005B05DF804FB00BF72B6094BD3F8F030DB0700D500BEBFF34F8F0549054BCA6819
:2003E00002F4E0621343CB60BFF34F8F00BFFDE700ED00E00400FA0572B6024A136801331E
:2004000013607047FC020020034A1368013B136003B962B6704700BFFC02002010B50446A6
:20042000006830B1002102F085F954F8040F0028F8D110BDF0B5038883B0044663B1B3F55C
:20044000867F04D182290BD0012003B0F0BD00230380032003B0F0BD4FF486732380F3E7D9
:2004600000F09EFCBFF35F8F1649174B0E6800220A601F781A70FFB2BFF35F8F134D00F0CD
:2004800093FC286820B9E7E755F8040F0028E3D090F84A3026FA03F3DA07F5D590F8493097
:2004A00047FA03F3DB07EFD500F0A4FA0028EBD0074B084A1B6800932B680221184600F030
:2004C00059FAE1E710030020090F002000000020B40600204905000010B50C4A90F84B3030
:2004E00011680B4A82B0013380F84B300446009103468021203000F03DFA064B1978002097
:20050000224602B0BDE8104002F0C0B9B4060020D90400000A0F002010B4084A084C13688C
:200520000B4313602378012282401343DBB2237004485DF8044B02F0CFB900BF10030020A8
:20054000090F00205401002070B582B0044600F051FA08B902B070BD04F12006304600F0F1
:2005600049FA94F84A10054694F8490000F0DAFB80B994F848309BB9002DEBD1304600F08D
:200580001FFA0F4B19782246284602B0BDE8704002F07CB90128EFD194F84830002BEBD17F
:2005A000002DD7D0074B084A1B68002584F84B50304600937E21234600F0DCF9034BE1E718
:2005C0000B0F0020B4060020D90400000C0F0020F8B502F0A5F8304B304F187002F0A0F8A7
:2005E0002F4B304D187002F09BF82F4A7A60FF2139722A682D4B00261870FE60002A42D087
:200600002B4C09E091F84A00F9683A72834055F8042F0B43FB60B2B392F84A3092F8491062
:20062000526C03F01F0343EA41131F2BCABF03F01F034FF0A041214603F5E07342F08C02EC
:2006400041F823602B6893F84A1093F8490000F027FB2A6892F84A3092F8490003F01F0302
:2006600043EA4010012101F0C1FA2968387A91F8492082424FF00103C4D0FF28C2D055F859
:20068000042F002AC8D10B48002102F053F8BDE8F840024800F05ABB0C0F00200003002029
:2006A0000B0F002000000020190500000A0F00200003005054010020042800D0704708B551
:2006C000054A13680133136000F088FA00B908BDBDE8084000F068BA1403002000B5134B70
:2006E00083B000221A6001F0FBF8C0B9002001F011F90F4B0F4A93E803000090ADF8041039
:200700000D48694601F0B8FC60B901210A4801F005FD094801F0F6FC03B05DF804FBFFF77F
:2007200043FEE3E7FFF740FEEFE700BF140300200C570000B906000004570000014B186865
:20074000704700BF140300202DE9F04101F0E0FEFFF7C4FF02F034F902F01AF800214E4843
:200760004E4FDFF880814E4E4E4C4F4D01F0E2FF00F0F6F803F098FC02F04AFC01F0D0FE04
:2007800002F0C8F8494B1B6898477B689847D8F804309847F3885BBA2B802368022B10DC2D
:2007A00001F0DAFE4248FFF739FE03F0A5FC01F0F5FF044603F0A8FC002CF8D101F0D2FEA9
:2007C000F5E73C4A3C493D4801F0E8FE3C4802F093F82368022BE3DD364A3749374801F0ED
:2007E000DDFE384B3848196801F0D8FE2368022BD6DD304A3049314801F0D0FED8F800105D
:20080000324801F0CBFE2368022BC9DD294A2A492A4801F0C3FE2E48396801F0BFFE2368EC
:20082000022BBDDD234A2449244801F0B7FE29484AF6CD3101F0B2FE2368022BB0DD1D4A09
:200840001D491E4801F0AAFE23481A2101F0A6FE2368022BA4DD174A1749184801F09EFE11
:200860001E48298801F09AFE2368022B98DD114A1149124801F092FE194801F08FFE2368B1
:20088000022B8DDD304600F055FB2368022B87DD0A2002F02FF883E774010020B85700009E
:2008A0002803002084010020000F00201C570000D8570000805400008854000090540000E3
:2008C000A054000064570000D0540000E0540000EC540000F8540000145500003455000093
:2008E0004455000054570000F8B5038805464BB1452B03D1882915D00120F8BD00230380DF
:200900000320F8BD134B1C6834B1A168201D00F051F92468002CF8D10F4B01221A704523C8
:200920002B80E9E70B4B1C681CB9F8E72468002CF5D0231D9A42F9D10648084E214600F050
:20094000D5FAD4E90523376832600BB1E06998473760E4E7180300200D0F0020B40600201B
:20096000024B03480021196001F0E4BE180300206401002070B582610D4A04461078E3617D
:20098000049B636130B9A1600A482146BDE8704000F07EBA084D094B2E682B60201D00F0DD
:2009A00009F92E6021460348BDE8704000F070BA0D0F002018030020B406002064010020B0
:2009C00010B50A4B1B7804463BB9C0E9033321460748BDE8104000F089BA043000F006F94C
:2009E00021460348BDE8104000F080BA0D0F00201803002008B5084B1B78014623B1006988
:200A0000B0FA80F0400908BD044800F089FA80F00100C0B208BD00BF0D0F00201803002011
:200A200010B50446C0B203F0DFFA204610BD00BF70B570B10E46451E002404E0A64206D0B4
:200A400003F0D2FA013415F8010F0028F6D1204670BD0446FBE700BF10B5FFF76FFE0B4B9A
:200A60001A68D2E9003192680B44191A52B1D2E9003423441B1A9268994228BF1946002AB9
:200A8000F5D14318024A136010BD00BF200300201C030020F8B5038805464BB3592B03D090
:200AA00000232B800320F8BD872926D082291BD1284E3468C4B1002703E0A36827469BB1FE
:200AC0001C46204603F05EFA0028F6D0E0682246882101F0DBFE03461F483BB301F0FCFE69
:200AE000A3682746002BEBD1592301202B80F8BD184A012013605923F8E7164E316800202C
:200B000021B9F1E78C680120E4B12146CB689342F8D000B134608B68002BE5D0D3E9020468
:200B2000944214BF194688600346F5E7E360A3686FB1BB6033680022A2602BB1FFF78CFFFB
:200B40003468B7E73460CFE7044A1360CCE73360F1E700BF20030020740100201C0300205C
:200B600010B504460D4801F0B7FE0D490D48E3680A6800685BB152B1134601E09B6833B16B
:200B80009C42FBD1E060BDE81040FFF765BFC4E902200C60BDE81040FFF75EBF7401002084
:200BA00020030020B4060020014801F095BE00BF7401002010B5044603F0CEF92046BDE863
:200BC0001040FFF7CDBF00BF10B5044603F0CCF92046BDE81040FFF7C3BF00BF024B18685E
:200BE000003818BF012070472003002010B5124B19688142044614D00B462BB19A68A24224
:200C000006D01346002BF9D10023C4E9023310BDA2689A6049B1FFF71FFF0023C4E90233C7
:200C200010BD82681A60002AF5D1044B00221A600023C4E9023310BD200300201C03002054
:200C40000649074A074B9B1A03DD043BC858D050FBDC03F06FF8FFF76DFB00001059000096
:200C60000000002078020020FEE7FEE7FEE7FEE7FEE7FEE7FEE7FEE7FEE7FEE700F01F03B6
:200C800001219940C0F3471000F066B808B500F013FF00B108BDBDE8084000F0D7BE00BFDB
:200CA00030B583B0154602238DF8063005F00C03002201F01F01082BADF8042041EA40142F
:200CC00026D00C2B1AD0042B02D101238DF8043015F0030306D0022B1ED0012B04BF03230D
:200CE0008DF805300E4A01A9204600F0EFFE2B0608D4204600F0F0FF03B030BD03238DF858
:200D00000430E5E70121204600F070FF03B030BD02238DF80430DBE701238DF80530E1E706
:200D20007D0C000001F01F0141EA40101F28CABF054B4FF0A04300F01F00D3F8103523FA20
:200D400000F000F001007047000300500146014800F09EB82403002070B50C4B1C689CB13E
:200D600005460E4601E0246874B1237AAB42FAD1E36816EA0301F6D063682846002BF2D0B2
:200D800098472468002CF0D170BD00BF24030020024B00221A60FFF779BF00BF24030020AB
:200DA000EFF3108072B6704780F31088704700BF2049002340FA03F2D20720D510B40A7892
:200DC00091F801C08C7802F01F0242EA4C12E4B11F2AC6BF184C02F01F024FF0A0444FF0EC
:200DE000010C0CFA02F2C4F808250133042B01F103011CD040FA03F2D407F6D5DFE70133EF
:200E0000042B01F10301D5D170471F2AC6BF0A4C02F01F024FF0A0444FF0010C01330CFA70
:200E200002F2042BC4F80C2501F10301E2D15DF8044B7047F8560000000300500F4A10484C
:200E400010B402F10C0C03241378517803F01F0343EA41131F2BC6BF03F01F0301464FF048
:200E6000A04103F5E0730332944541F82340EBD15DF8044B0F20FFF79BBF00BFF8560000B0
:200E8000000300500B684A6842600360704700BF0368D3B110B4002400E0134699421A68F2
:200EA0000ED01C46002AF8D100230B600368C3B11A461B68002BFBD111605DF8044B7047EC
:200EC0006CB1226000221A60EEE700230B6003684BB11A461B68002BFBD1116070470260A9
:200EE000F0E70160E9E70160704700BF03689BB110B4002400E0134699421A6805D01C46A7
:200F0000002AF8D15DF8044B704734B1226000221A605DF8044B704770470260F7E700BF6F
:200F2000006810B904E0006818B18142FBD1012070477047D8B138B505460E48297801F0A4
:200F40002DFB0124E3070B4807D515F8011F013401F024FB082CF5D138BD2E2001F0CAFCC5
:200F600015F8011F034801F019FB0134EAE7024801F014BB885500007855000010B504462B
:200F800042884068002104F05DF823886288A0680021BDE8104003FB02F204F053B800BF12
:200FA000054A01231361D2F8503513F0FF03FAD1C2F8FC3F0120704700100040F1B119282B
:200FC0001AD8DFE800F0170D19196D64605C443F193B1919193835322F192C292623201DA1
:200FE000344B354AD3F80835A2FB03239B080A33DBB20B60002070470120704702207047C8
:201000007D230B60F6E700230B60F3E710230B60F0E70A230B60EDE720230B60EAE70323FA
:201020000B60E7E708230B60E4E7D8230B60E1E71A230B60DEE70B230B60DBE71F4B1B7823
:201040000B60D7E71E4B93F900300B60D2E7194A012382B05361D2F81C31002BFBD0002381
:20106000C2F81C31D2F81C310193019BD2F8483503F07F035B4200200B6002B07047114B79
:201080005B790B60B6E70F4B5B780B60B2E70D4BDB7800220A60002BACD001230B60A9E746
:2010A000084B1B7800220A60002BA3D004230B60A0E700BF00100040CDCCCCCC0E0F00208A
:2010C0000F0F0020880100200120704730B583B0FFF766FEBFF35F8F1D4B1B78ABB11D4B80
:2010E0001D4902224FF0FF34C1F80843C3F88021C3F88020BFF34F8FBFF36F8FBFF35F8F59
:2011000003B0BDE83040FFF74FBE03F0FF02124B1049C3F83021D3F830410194019CC3F825
:201120003421D3F8342100924FF0FF34009DC3F8084302224FF44054C1F88021C3F804433C
:201140000A60BFF35F8F03B0BDE83040FFF72CBE8801002000E100E000100040154BD3F8F8
:20116000FC0F30B1D3F85025D2B2032A02D000207047704710B4104C104922780978053A5F
:20118000D2B201F0FF0051B17A2A11D8D3F8302172B9D3F83401B0FA80F0400905E07A2A19
:2011A00003D894F8800080F001005DF8044B70470020FAE70010004030030020880100202F
:2011C000074A1378053B7A2B08D8064BD3F8303113B992F8800070470120704700207047B5
:2011E00030030020001000400D2801D001207047042A05D121B1034B1B680B600020704785
:20120000022070473404002070B51B4CD4F85055EDB2032D82B02AD0184B194A1949C4F8C1
:201220000415C3F8102502F5DE421432C3F8142501264FF00062C3F80465C3F80425FFF78E
:2012400045FFD4F8003243F01003C4F80032D4F80032022D43F40023C4F8003209D00023A7
:20126000C4F85831D4F858310193019B666002B070BDA66002B070BD0010004000F0014099
:20128000381100403003002070B5324B324D002284B0C3F83821D3F838410094009CC3F8B8
:2012A0000C21D3F80C410194019CC3F83421D3F834410294029CC3F830212C78D3F8303157
:2012C0000393631F7A2B039A02D8023CA1420ADA81220021204803F0B5FEFFF795FF002455
:2012E000204604B070BD2246691C03F0B6FE2B191A4E5B78174A3F2B9ABF9B00DBB2FF2326
:201300003370D2F84815164B01F07F01494249B21970042089B201F0DFF83178032001F03E
:20132000DBF8104B2A7810491A74D1F84C055860D1F8481599605200DA605968064802392F
:2013400019608122002103F07DFEFFF75DFF204604B070BD00100040300300200E0F002069
:201360000F0F002034040020008000407D2910B50C4609D801460A48A31C00F8013B224685
:2013800003F06BFE002010BD064A0749074801F005F97D222146064801F000F9012010BDFA
:2013A000B403002090550000A055000090540000A455000010B4174B17490F22C3F81025F8
:2013C0008A780A3A02EB8202C3F808250879CC798A794979120642EA0422024342EA0142C5
:2013E000C3F86C260D4C0E4840F202210022C3F83415C3F838457F21C3F83C2540F201222D
:20140000C3F81405C3F81815C3F850265DF8044B704700BF0010004088010020211001009A
:201420000800000608B5084BD3F8FC2F1AB1FFF7EBFE012008BD0122C3F8FC2FFFF7BAFF50
:20144000FFF7E2FE012008BD0010004010B51C491C4C1D484FF08042002382B00B60237035
:201460004B6003708B60CB600B74C2F80031D2F800310093012300991360D2F80031002BEA
:20148000FBD00024C2F80041D2F80031019321460E48019B01F04EF9214681220C4803F0F1
:2014A000D1FD0C4B0122C3F8FC2FFFF783FF0A4A1378DBB21370FFF709FE204602B010BDB5
:2014C000340400200F0F00200E0F00209001002030030020001000408801002000B51B4B21
:2014E000D3F8FC2F85B052B3FFF78EFE174B0022C3F84821D3F8481103910399C3F844211E
:20150000D3F8441102910299C3F84C21D3F84C21019201220199DA6202E0D3F844211AB9AC
:20152000D3F84821002AF8D0084BD3F84801D3F84431B0FA80F0400905B05DF804FB01224F
:20154000C3F8FC2FFFF736FFCEE700BF0010004010B50388044683B140F2D332934203D108
:20156000822905D0012010BD00230380032010BD114A1378053B7A2B03D940F2D3332380E5
:20158000F0E70E4BD3F830311BB992F88030002BF3D002F0B9FD00F027FF00F087FF80211E
:2015A000FFF772FE0028E8D080B200F079FF044BDB689847E1E700BF3003002000100040B0
:2015C000B857000010B57D2884B060D8364BD3F8FC2F002A4FD0354CFFF716FEE378002B55
:2015E00043D16378304ADBB20121C2F80C35D160D2F85035DBB2022BFAD100232C49C2F881
:201600000415C2F80C31D2F80C1101910199C2F86C31D2F86C1102910299C2F85431D2F8D2
:2016200054310393039BD2F8003223F01003C2F80032D2F80032012143F48023C2F80032FF
:20164000116001F0EFF96FF00204241A01F0EAF9E042FBD4144AD2F85035DBB20B2BFAD09E
:20166000FFF7D2FD002004B010BDFFF737FF0028B7D10220F7E701220C4CC3F8FC2FFFF7D1
:2016800099FEFFF7C1FDE378002BAAD0EDE7094A09490446094800F081FF2146084800F0D4
:2016A0007DFF012004B010BD0010004088010020B403002090550000A0550000905400007E
:2016C000C05500007D2910B50C460CD801460D48A31C224600F8013B03F0BFFC2046BDE8A4
:2016E0001040FFF76FBF084A0849094800F056FF214608487D2200F051FF2046BDE810404C
:20170000FFF760BFB403002090550000A055000090540000A455000008B507280FD8DFE88C
:2017200000F0101F0E0E40494F043C4B3C48C9B25971D0F8FC2F002A55D1002008BD0120F9
:2017400008BD01295FD0002945D1354A01231361D2F8503513F0FF03FAD1C2F8FC3FECE72E
:20176000A1F10B030F2B36D82C4B2D4AC8B29870D2F8FC3F002BE0D001231361D2F850354A
:2017800013F0FF03FAD10A3909B201EB8101C2F8FC3FC2F80815D2F8FC3FF3B1FFF734FD71
:2017A000CBE7072917D81D4BC1F380011970FFF78DFCC2E701290ED8184BC9B2D970BCE730
:2017C000164A174BC9B25170D3F8FC2F002AB4D0C3F80C15B1E7022008BD0123C2F8FC3FF3
:2017E000FFF7E8FDDAE793F804C093F807E09A795979130643EA0E2343EA0C0343EA014383
:20180000C0F86C3699E7064BD3F8FC2F002AC5D1C3F8FC1FFFF7CEFDC0E700BF8801002041
:2018200000100040184B1B7803B1704700B503F0FF02164BD3F8301183B029B9D3F83421AC
:2018400092B903B05DF804FBC3F83021D3F8302100920F4B00990F48012283F8802003B041
:201860005DF804EB01F038B8C3F83411D3F83431019381220648019B03F0E4FB03B05DF818
:2018800004EBFFF7C1BC00BF8801002000100040300300209001002010B580B1012800D03B
:2018A00010BD0E4C2369A070002BF9D01A6822615B68012098472369002BF7D1F0E7074C00
:2018C000A36801226270002BEAD01A68A2605B6800209847A368002BF7D110BD4C040020A2
:2018E00038B50A4C237813B18525284638BD08486360A3602361E36000F042F8054600F0F7
:201900004BF801232370284638BD00BF4C0400209918000038B5194DAB78044673B110B1E5
:201920004368012098470020FEF766FDEB680133EB60BDE838400020FEF766BD03F0FF006B
:20194000FEF75AFD3CB12A697AB1134601E01B685BB19C42FBD1EB6863B1EB680133EB60E4
:20196000BDE838400020FEF74FBD2260EB682C61002BF2D100F026F8EFE700BF4C040020C6
:20198000044A137923B9012110609180184670478520704760040020084B1A68D20707D56F
:2019A000074A4FF080410123C1F8183513707047C02283F8002301221A60F1E700E100E0BC
:2019C000100F00204FF08043002282B0C3F80421D3F804210192019802210122C3F804135E
:2019E0009A6002B0704700BF10B54FF0804382B0D3F8002162B10021134AC3F80011D3F8B8
:201A00000011507900910121009CC3F80813B8B14FF08043D3F8042182B10022C3F8042137
:201A2000D3F8042101920221074A0198C3F808131368012002B0BDE81040184702B010BD1F
:201A4000136851719847E3E76004002030B5174D95F86A4083B034BB3022A818FF2103F055
:201A6000F1FA3022FF21284603F0ECFA104BA5F868404FF0FF31C022C5E9181483F8062353
:201A800040221A600B4BC3F87C41D3F87C11019101984FF000420121204685F86A10C3F85E
:201AA000042303B030BD082003B030BD7802002000E100E000600040034B93F86A00003821
:201AC00018BF0120704700BF78020020F0B5444D2B1893F93030002B01DB0820F0BD8B78BA
:201AE000C3F340069B0754BF0823002303F1804C0CF1FF3C54BF4FF00C0E4FF0080E05EB3E
:201B00008C0C02E001339E453ED95CF8044F0134F8D12C1845F823205AB284F8302016B90D
:201B2000EC1884F858008C7867071ED4E60747D51F2887BF2B4C00F01F0606464FF0A044D8
:201B400004EB8604D4F8006726F00206C4F80067254FC60800F0070E17F806C0012404FA59
:201B60000EF444EA0C04BC558C780978A4070DD4A2F1080345FA83F393F8602042EA8112E6
:201B800083F860200020F0BD0420F0BD9B0003F1804303F5C0430202D3F8100520F44F30E8
:201BA00020F44070C3F810050904D3F8100502F47C5201F440310A430243C3F81025E1E730
:201BC0001F284E7887BF074F00F01F0404464FF0A04704F5E074B60047F82460B8E700BFB5
:201BE0007802002000030050DC02002030B4374C04EB000C82B09CF93030072B11DD2344EA
:201C000093F858309B09032B35D0012B0CBF4FF400324FF440321F2849D900F01F002C4BCA
:201C200035E0DAB2072A23D8980000F1804000F5C04003F140029200D0F8105592B202F16D
:201C4000804202F5C04245F00105C0F810550020106012680192019A51B19CF9302054F806
:201C600022202AB11B49012202FA03F3C1F8043302B030BC70471F281CD84FF0A0421346D4
:201C8000D2F81025C24002F001020232120403EB8003D3F8001721F44031C3F80017D3F88E
:201CA00000170A43C3F8002702B030BC70474FF0A043ECE7064BD3F8102500F01F00C24032
:201CC00002F0010202321204A9E700BF780200200003005000600040194B034493F9303052
:201CE000072B18DCDAB2072A14D810B49A0002F1804202F5C042134CD2F81005012120F099
:201D0000010001FA03F3C2F81005C4F808335DF8044B704770471F2886BF0B4B00F01F0008
:201D20004FF0A04303EB8003D3F8002722F44032C3F80027D3F80027C3F80027704700BF6A
:201D40007802002000600040000300502DE9F04F0022164689B0CDE90222724B724C7348DA
:201D60000122354604E0043383424FEA420211D019680129F7D1D4F804131142F3D01D609E
:201D8000196800910433834246EA020600994FEA4202EDD1644BD3F87C110129F2B220D064
:201DA000D2B1634F01250024A30003F180432E4203F5C0430BD0D3F8100557F82420D3F8C6
:201DC0001015C0F30520C1F3014102B190470134082C4FEA4505E7D1002E15DB09B0BDE866
:201DE000F08F0021C3F87C11D3F87C3101934FF0A041019BD1F810154E4B0291D3F8103509
:201E00000393002A40F08B8000224B4DCDE904224FF0FF330693A5F16308484C07934FF0B9
:201E20000009012614F9013F5A1C32D0C3F3C20E0EF120020DEB020C03F007021CF8087C6C
:201E400006FA02F21742D9B203F03F0021D008EB0007890997F9307058F82770002F4CD099
:201E600003294CD01F288BBFDFF8C8E04FF0A04E03F01F0303460EEB83031CF818ECD3F81D
:201E800000C71EEA020FCCF3014C1AD0BCF1020F40D0AC42C6D1B9F1000F9FD04FF0A043CF
:201EA0000299D3F81035234A9942D2F8102502D10399914292D0CDE90232DDE9042306921D
:201EC000ABE7BCF1030FE4D1032903D0002FE0D0B847DEE74FF40032D3F800C72CF4403CB7
:201EE000C3F800C7D3F800C709F1010942EA0C025FFA89F9C3F80027E8E70329C9D10DF140
:201F0000100B0DF1100A1BF80EB04BEA020B0AF80EB0A7E70329D9D14FF44032DCE746F0A9
:201F200000463EE70061004000600040206100407802002000030050DB020020D702002051
:201F400010B54FF0804386B0D3F80443620703D5D3F80821002A62D1A30605D54FF080435B
:201F6000D3F81421002A4FD1600605D54FF08043D3F81821002A3BD1210604D54FF0804399
:201F8000D3F81C214ABBE20504D54FF08043D3F82021B2B9A30512D54FF08043D3F824215A
:201FA0006AB10022C3F82421D3F82421214B0592059A1B68022006B0BDE81040184706B0CD
:201FC00010BD0022C3F820211A4AD3F82031049301201368049A9847DCE70020C3F81C012B
:201FE000144AD3F81C3103931368039A9847CAE70022C3F81821104AD3F8183102930120F3
:202000001368029A9847B7E70020C3F814010A4AD3F8143101931368019A9847A4E70022A2
:20202000C3F80821054AD3F8083100931368009A984791E7680400206C04002070040020BA
:2020400008B5FFF77DFFBDE80840FFF7CDBC00BF074B002282B0C3F80021D3F80021019225
:20206000019A044AD3F808051368C0B202B0184700D000407404002030B41E4C437944F8B3
:2020800023201D4C03EB4303E35C83BB8A7890F904305201002BD2B224DB03F1604303F594
:2020A000614383F8002390F90430002B09DB134D4FEA531C012203F01F0302FA03F345F8A3
:2020C0002C3003680A88C3F8082543790879C97803EB4303E21850700120E05491700020DD
:2020E00030BC7047064D03F00F03EA54DBE7082030BC70477C0400207804002000E100E01D
:2021000014ED00E00368044A01211960437903EB43030221D15470477804002010B40368D0
:20212000002483B0C3F80041D3F80041036801940122019CC3F8442311B10368C3F804234F
:2021400003B05DF8044B70472DE9F041274E284FDFF8A08084B000244FF48035D6F80433F2
:202160002B4211D057F824300022E0B263B1C6F84853C6F8085347F8242057F82420039289
:20218000D8F80030039A98470134032C4FEA4505E4D1164BD3F80423D10702D5D3F8002139
:2021A000C2B9124BD3F80423920710D5D3F804216AB10022C3F80421D3F804210D4B0192EF
:2021C000019A1B68052004B0BDE8F041184704B0BDE8F0810022C3F80021064AD3F80031BF
:2021E000029304201368029A9847DAE700B0004040B100407C04002010B5084CD4F8003198
:2022000082B04BB1064B1B6898470023C4F80031D4F800310193019B02B010BD00000140E0
:202220008004002070B5114B114A1D781160DDB9104E027801211970C6F80C25416804461D
:202240004FF47A720023C803490C02F047FDC6F80405237A084A5B01DBB282F810334FF437
:2022600080331360284670BD082070BD120F0020800400200000014000E100E0044B0549C4
:2022800001220220C3F804231A600870704700BF00000140120F002010B504460020FEF709
:2022A000ABF80E4A1378072B11D80D492370581C1070D1F80805012202FA03F30343C1F8B6
:2022C000083500240020FEF79FF8204610BD04240020FEF799F8204610BD00BF110F0020BE
:2022E00000000140034B044A00F5C07043F82020704700BF000001403546526E014B002201
:202300001A6070478404002010B5044600F06CF80D4A0E4B1188186800F08EF874B12146B6
:202320000D2000F0E5F80A490C2000F0E1F8094B002108469B689847012010BD06490D204C
:2023400000F0D6F8EFE700BF020F00208804002028030020B8570000145700002DE9F04141
:202360000C4B1C68A4B100F0A1F8054600F0AEF806460C2000F0C4F807460D2000F0C0F87D
:202380003A46034631462846A446BDE8F0416047BDE8F08184040020704700BF704700BF7E
:2023A00000207047002070470020704701207047704700BF0120704701207047704700BF24
:2023C00000207047704700BF0020704700207047002070470120704701207047704700BF05
:2023E000704700BF704700BF0D490E4A0E4808B500230B800D4913600B800D4953600B70AA
:202400000C49C2E90233C2E90433FEF73BFD064B084903F10800BDE80840FEF733BD00BF49
:20242000040F00201C0500200C050020060F0020130F002014570000124A70B50023124C13
:202440001370124E124A238005460C46114812493380C2E90033C2E90233C2E90433FEF701
:2024600011FD0C4B0C4903F10800FEF70BFD802C28BF802422462946084802F0EEFD3480BA
:20248000204670BD130F0020040F0020060F00201C0500200C050020145700008C04002072
:2024A000014B1880704700BF060F0020044A054B12881B780448134450FA83F0704700BFEC
:2024C000040F0020130F00208C040020014B1888704700BF060F0020014B23F81010704702
:2024E0001C050020014B33F8100070471C050020024B0C3803EBC000FEF7C4BC0C05002037
:20250000024B0C3803EBC000704700BF0C05002008B5FEF73DFCBDE80840FEF78FBC00BFFE
:2025200008B5FEF755F8002000F002FA01F070FD00F05AFD4FF08052064BD2F8A810D2F83D
:20254000A4205A604CF6F46C3620A3F800C09870D97008BD280300200148002100F0EAB84D
:20256000D801002010B5FEF71BFC0446BFF35F8F00F080F900B930BFBFF35F8F2046BDE8EB
:202580001040FEF711BC00BF0AB90020704708B508461146FEF74CFA002008BD0FB400B5D6
:2025A00083B004AA054852F8041B019200F0CEFD03B05DF804EB04B0704700BFA80100204C
:2025C0002DE9F8432F4D2A688242044618BF134640D0002B3CD01B689C42FAD1002C37D0B8
:2025E000294EA37B376853B1A36843B18C4206D000223460832104F10C0098472A68A24250
:202600002FD02AB11368A34236D01A46002AF9D1A37BE3B12D680023A373C5B14FF00208E7
:202620004FF00109AB7BDB070ED5AB682246872105F10C0043B1356085F80E809847023894
:20264000012814D985F80E902D68002DEAD13760BDE8F883002AFBD00B4E937B3768002BEF
:20266000C2D123682B60A37B002BD3D1EFE729462846FFF7A5FFE7E723681360A37B002B62
:20268000C8D1E4E7B8060020B406002038B583687BB104460A4804600220A07304F10C00E4
:2026A0000D4698470238012804D9832D02D00123A37338BD21462046BDE83840FFF780BFD8
:2026C000B4060020F8B5134A134B146800221A70D4B1124F0125022601E02468A4B1E37B3C
:2026E000002BFAD0A368E5810022822104F10C00002BF2D03C60A67398470238012804D9ED
:20270000A5732468002CEAD1F8BD21462046FFF757FFE2E7B8060020140F0020B40600209C
:20272000034B1878FF281ABF421C1A7080207047170F0020F8B5144A1568854205D00446C8
:202740002B461BB11B689C42FBD1F8BD002CFCD02560A3810D4DA3682F6814600126A67309
:202760005BB10A460221A1732C60812104F10C0098470238B04202D9A6732F60F8BD2146ED
:202780002046FFF71DFFF8E7B8060020B4060020014B8B221A707047170F00202DE9F84359
:2027A0002E4D2B78FBB92E4E3378BBB12D4C2E49227802EB4200013202F01F02227001EB37
:2027C0008002013B546851F82080177ADBB2337064B1812F1FD0A27BD2071ED4287818443D
:2027E000C0B2BDE8F883FFF76DFFDCE71F4A14685CB9F3E7A37B13F0010F424639462046B0
:2028000001D0FFF743FF246814B32B78002BF1D0FFF758FFEEE70122A273D4F80890B9F165
:20282000000FDBD0124B1C6002234246A373394604F10C00C8470238012805D9832F03D0ED
:2028400001223378A273C9E721462046FFF7B8FE337828781844C0B2BDE8F883140F0020F0
:20286000160F0020150F002034050020B8060020B4060020034A044B10781B781844C0B239
:20288000704700BF140F0020160F002030B40F4C94F800C0BCF1200F15D00D4B1B7863445C
:2028A00003F01F030CF1010C03EB430384F800C0084C44F8232004EB8303054619725D60AE
:2028C000002030BC7047012030BC7047160F0020150F00203405002018B1837B013B012B60
:2028E00000D97047024A0123C3731370704700BF140F0020FEF794B810B5044602F0BBFB6E
:2029000001462046FEF794F8BDE810400A20FEF787B800BF08B50448FEF730FBBDE8084061
:202920000248FEF72BBB00BFB0010020BC0100200E4A012100231160C2F80031D2F8003111
:20294000002BFBD0D2F8080508490023C0B2C2F80031D1F80031002BFBD0D1F808250123CF
:2029600040EA02204B6080B201F0ECBB00D0004090F805C0827903460079ACEB020290430E
:2029800009D01A6802F80C105A791979012002440A405A7170470020704700BF81794279E3
:2029A0000379521A1A4208D0026801F1010C525C03EA0C038371104670474FF0FF307047C2
:2029C00010B4164B1649002283B0C3F84021D3F840210192019AD3F8102522F00F0242F053
:2029E0000802C3F81025D3F8082542F00302C3F80825D3F804254FF480344FF4807022F096
:202A00000302C3F80425C3F80443C1F88001086001221A6003B05DF8044B704700800040BE
:202A200000E100E0024B01225A64D3F84405704700800040074BD3F8402102B9704700220A
:202A400082B0C3F84021D3F840310193019B02B000F002B800800040054B186838B110B423
:202A600000241C60D0E901215DF8044B104770473C0C0020704700BF08B5024B1B6A9847DD
:202A8000002008BD1C57000000207047014B1B6A184700BF1C57000000F0AAB9002070477B
:202AA00010B50A4B0A4A1B6882B004460093094800234021FDF75EFF21460748FFF758FFED
:202AC0000648FFF709FF012002B010BDB4060020E12A0000700C0020680C0020C80100200C
:202AE000044A05480549002303700B7013609380704700BF600C0020190F0020180F0020C5
:202B000010B5204B82B09B6A01A901209847C8B1C12001F069FA1F2001F066FAFE2001F057
:202B200063FA722001F060FA022001F05DFA7F2001F05AFA002001F057FA002001F054FA4C
:202B400002B010BD0446C12001F04EFA1F2001F04BFAFE2001F048FA722001F045FA0220E8
:202B600001F042FA012001F03FFA204601F03CFA012001F039FA9DF8040001F035FA02B0A0
:202B800010BD00BF1C57000010B5444A1378813B82B0032B57D8DFE803F009300E02404B7F
:202BA0001179DB6A0120984700284CD102B0BDE81040FFF7A5BF3A4B01A99B6A10209847BD
:202BC0000446C120002C59D001F00EFA1F2001F00BFAFE2001F008FA722001F005FA022092
:202BE00001F002FA7F2001F0FFF9002001F0FCF9002001F0F9F902B010BD294B01A99B6AB5
:202C00000F2098470446C120002CDDD101F0ECF91F2001F0E9F9FE2001F0E6F9722001F048
:202C2000E3F9022001F0E0F9022001F0DDF9204601F0DAF9012001F0D7F99DF8040001F04D
:202C4000D3F902B010BDC12001F0CEF91F2001F0CBF9FE2001F0C8F9722001F0C5F9022069
:202C600001F0C2F97F2001F0BFF9002001F0BCF9002002B0BDE8104001F0B6B901F0B4F9D5
:202C80001F2001F0B1F9FE2001F0AEF9722001F0ABF9022001F0A8F90320C6E7600C00206D
:202CA0001C5700002DE9F041058804467DB1B5F5A47F07D1822929D04FF4A47525800120EA
:202CC000BDE8F081002525800320BDE8F0813F4B2946DB6A04209847034680B93C483D4A0D
:202CE0003D4903703D483E4D937103700B608B803C4815601F23938001F052F9DCE73A480F
:202D0000FFF7FAFD25800220BDE8F0813148FFF745FE421CD0D02E4D2F4E304FDFF8CC809F
:202D20002B78C0B2052B0CD8DFE803F027361F1A11033071FFF728FF00232B703B7033604C
:202D4000B3802448FFF72AFE431CE9D1B4E77388184301287080334623D105232B70F0E78C
:202D60000002042370802B70EBE730707F30C0B2022822D903232B70E3E73B7818F8032076
:202D8000824214D10133DBB2042B3B70D9D101232B7000233B70D4E7022801D12870D0E7B2
:202DA0000D4B00222A703A701A609A80C9E70A4B00223A701A609A80C3E7FFF7E5FE074A88
:202DC000002313702B703360B380BAE71C570000190F0020680C0020600C0020180F002029
:202DE000400C0020A12A000018560000D457000038B5FFF76BFBC5B2C12001F0F5F81F2045
:202E000001F0F2F8FE2001F0EFF8722001F0ECF8022001F0E9F8AC1C002001F0E5F8200AA6
:202E200001F0E2F8E0B201F0DFF845B10024FFF73DFB005D013401F0D7F8AC42F7D10420F9
:202E4000FFF750FBC0B201F0CFF80320FFF74AFB60F07F00BDE83840C0B201F0C5B800BF1E
:202E60002DE9F0410488752C064643D07C2C22D0002C3AD1FFF754FC2D4B2E4F18702E4D70
:202E80003A682C6082B123462C4C984604F8038000219368802098472B6801332B6057F857
:202EA0002320002AF2D1DAB2254B1A70752333800120BDE8F0811E4B1B788B42F8D11E4DDD
:202EC0001E4CDFF87C801F4F2B68E25C02F07F02E2543A6801323A6098F8002001339342A5
:202EE0002B6013DB3B685BB9E0E7002303800320BDE8F081DFF848800F4D98F80020114FF1
:202F000000233B602B60002AD0D00C4CE256002A01DB2B68E0E7074A52F82320044B002061
:202F20001978FFF7B3FC0028CED17C233380BFE71B0F0020A0010020940C00204804002065
:202F40001A0F0020900C002070B50488672C064619D0792C31D04CB300230380032070BD58
:202F60005A1C22601B4A0024D4541B4B20461978FFF78CFC194B852118682246FFF786FC63
:202F800020B300232B60164C06E00A282368E7D00D28E5D07E2B14DD1248FFF7FFFC431CC6
:202FA0002546F2D167233380012070BDFFF7B8FB094A0B4B10701C60E5E78529F4D1084D76
:202FC000DFE704495A1CC8542260E5E7792333800120EAE7980C00201C0F0020B4060020D4
:202FE000180D00209C0D0020064B074810B40021064C1C607F2299719A805DF8044BFFF711
:2030000099BB00BF9C0D0020E80100201C0D0020074B82B001AA9A42019304D9CD2103F81D
:20302000011B9342FBD10348002102B0FFF782BB280F0020F801002038B5124C124D01F077
:2030400063F82378CD2B04D111E014F8013FCD2B0DD0AC42F9D32378CD2B08D001F054F839
:203060004FF0FF3038BD14F8013FCD2B02D1AC42F9D3F3E701F048F8AC4238BF281BEFD228
:2030800038BD00BF280F00200000042070B50388044653B1972B04D1154BDB686BB101208C
:2030A00070BD00230380032070BD11484FF4A061FDF780FD97232380F1E7FFF7BDFF0D4E9D
:2030C0000D4BF61AB04205460DD90C4B1B68002B09DD0B4A0B490C48FFF760FA0B48324662
:2030E0002946FFF75BFA0248FDF76EFDE2E700BFA40D002000000420280F002084010020F4
:2031000074560000A0550000905400007C560000102970B50C46054602D80AE0102C0BD95B
:20312000D5E90030084910229847103C0028F5D070BD08460029FBD02B6868680249224681
:20314000BDE87040184700BFE05700000B78002B00F00A852DE9F04F8A468FB08146904697
:203160004FF0000B544604E014F8013F002B00F05881252BF8D1544500F07D81A4EB0A0509
:20318000D9E900302A4651469847002840F0CC802378AB44002B00F0A5806378621C002B65
:2031A00000F0A0800020A3F1200110290AD8DFE801F08F09098C09090909090909890986D3
:2031C00009098100A3F13101082940F240812A2B00F0538100242E2B00F02E814FF0FF36C9
:2031E0006C2B00F02281682B00F052817A2B03D1537840F060000132002B73D0253BD9B2EF
:20320000532968D8532B66D8DFE813F0FD00650065006500650065006500650065006500E2
:2032200065006500650065006500650065006500650065006500650065006500650065003E
:2032400065006500650065006500650065006500650065006500650065006500650065001E
:20326000650065006500650065006500650065006500E4016500650065006500650065007E
:203280006500650065006500DC007C0165006500650065007C016500650065006500D300C9
:2032A000730293006500650070006500F801650065007D0240F0100012F8013F73E740F011
:2032C0000100F9E740F00600F6E740F00800F3E740F00200F0E702F1010A9AF80030002BF4
:2032E0007FF440AF58460FB0BDE8F08FD8F8007002F1010A08F10408002F40F0F280BB4FCD
:203300000625002E02DBB54228BF3546AC428CBF641B0024C20740F12982D9E9003039462C
:203320002A46984700283BD04FF0FF300FB0BDE8F08FD8F8003002F1010A08F10408002295
:203340000DF13301002B00F0D7800DF13307A84E394603F00F051B09755D01F8015D43EA9B
:203360000273120953EA0205F3D17D1A00F0C48003357823AC4201F8013C43F2230321F87F
:20338000033C8CBF641B0024C307A1F1030640F1DB81D9E9003031462A4698470028C3D19A
:2033A00021464846AB44FFF7B3FE0028BCD1A34493E7D8F8003002F1010A08F10408C3F8AE
:2033C00000B08AE7012CD8F800308DF8203038BF0124C70702F1010A04F1FF3408F10408B5
:2033E00040F19E81D9E90030012208A9984700289AD1214648460BF1010BFFF789FE0028A3
:2034000092D1A34469E702F1010AD9F800307949D9F8040001229847002885D10BF1010BF4
:203420005BE754457FF4AAAE5CE753786C2B36D0013240F06000DFE65378A3F13005092DE9
:2034400002F1010130D92A2B3FD00A46C6E6002402E0392B3FF6BFAE04EB840403EB440455
:2034600012F8013F2F2BA4F13004F2D82E2BE3D04FF0FF36C0E623788CE6D8F80040537807
:20348000002C08F10408B8BF40F001000132A2E65378682B20D0013240F04000ACE693780A
:2034A00040F080000232A7E6002202EB820203EB420211F8013F2F2BA2F1300240F22D818E
:2034C000392BF2D916460A468AE6D8F80060937808F10408023283E6937840F02000023235
:2034E0008AE63D78002D3FF40CAF3D4615F8013F002BFBD1ED1B04E7302301F8013C042520
:20350000013936E7002EC0F24E8120F0100040F42451029601F0E003402B00F0968200F20B
:203520000082002B00F01F8298F9000008F104084FEAE07CBCF1000FC0F2098250EA0C03E0
:2035400002F1010A00F08D8300234FF40055CDE90435CDE906190DF13605DFF89CE0CDF89D
:2035600004B0024663462F460394D41844F10004AEFB041626F0030101EB9601641A161B66
:203580009346994663F100024FF0CC3303FB06F10EFB0211A6FB0E363144052203F0010653
:2035A000A6FB02261219BBF10A0F4FEA530302F1300279F1000907F8012D43EAC1724FEA65
:2035C0005103D2D2EB1BDDF804B0039C0193DDE9061955E0002E02F1010AC0F2DF8020F0CA
:2035E000100040F4B241029612E000BFE0560000B8560000E8560000CDCCCCCC002E02F177
:20360000010AC0F2BC8020F0100040F41061029601F0E003402B00F0FB8100F27281002B99
:2036200000F0FD8198F800004FF0000C08F1040801F4C053B3F5C05F00F03081B3F5006FB5
:2036400000F00883B3F5805F40F0AB8150EA0C0300F064820DF13605034662462F4603F05B
:203660000706DB08303643EA4273D20807F8016D53EA0206F3D1EB1B01930023CDE9043318
:20368000DDE90132934238BFD61A41F6080303EA010341F2080228BF0026934200F0D580DE
:2036A000019D41F6080235449342029503D150EA0C0040F0A88100252A4601F001030393B3
:2036C000059B002B7CD0049B002B00F0CE80029B01339C4240F24E81E41A039B002B40F024
:2036E000C581C80640F150812644B14A1C46012577E0002E02F1010A46DB20F0100040F4CF
:203700008851029684E7002E02F1010A41DB20F0100040F4C85102967AE716460A466BE523
:2037200021464846FFF7F4FC00287FF4FDADD9E90030012208A90BF1010B984700287FF421
:20374000F3ADA344A344C8E521464846FFF7E0FC00287FF4E9AD3146D9E900302A4698479E
:2037600000287FF4E1ADAB44A344B6E521464846FFF7CEFC00287FF4D7AD3946ECE7012365
:2037800040F41061029343E7012340F4885102933EE7012340F4C851029339E7012340F45C
:2037A000B241029334E7012340F424510293B1E6002B40F0EF8101F001037E4A0393022528
:2037C000029B2B449C4288BFE41A039B98BF00242BB9C90640F10C8126440024039445B115
:2037E00002251146D9E900302A46984700287FF49BAD019B102E5B44029340F2A180B346CD
:20380000D9E900306C491022984700287FF48CADABF1100BBBF1100FF2D8D9E9003066492F
:203820005A46984700287FF47FAD029B019A1D443946D9E90030984700287FF475AD039BFE
:2038400035445BB905EB040B47E5019B012E38BF01260025F31802932A462EE72146484688
:20386000FFF756FC0028EDD05EE501F00603022B00F0DB80062BA3D1029B0133A34280F09B
:20388000F880E41A039B002B40F05381CD0640F18F812644494A049C0125A2E711F48043BD
:2038A00014BF474E474E50EA0C0200F045810DF136052F4600F00F020009B25C07F8012D1A
:2038C00040EA0C704FEA1C1C50EA0C02F2D1E81B029D0190A84241F6080275D28A43A5EBC4
:2038E00000063FF465AF029B9C4201F0010540F2D880029BE41A002D00F07B81039500250E
:2039000077E7602B00F0A880802B40F0FA8008F1070323F007039846D3F804C058F8080B61
:2039200086E6602B1FD0802B40F0DD8008F1070323F007039846D3F804C058F8080BF9E59B
:20394000002E3FF472AFD9E90030B34667E740424FF001034FF40056CDE904366CEB4C0CAF
:2039600002F1010AF5E5D8F8000008F104084FEAE07CDFE5039B0E4A002B74D111F01004C6
:2039800003D0039C01252CE7094A029221464846FFF7BEFB039000287FF4C6AC029A01258F
:2039A0001FE70023CDE904330DF13607019367E6DC560000CC560000F0570000D85600000C
:2039C000A4560000B85600008A437FD1002B6FD0019B02339C4201F0010640F2E180E41A20
:2039E000002E00F022810396A54A00260225F8E6214648460292FFF78BFB029A03900028F7
:203A00003FF4EDAE90E44A043ED59D4A022554E6B8F800004FF0000C08F1040808E6D8F8FD
:203A200000009C4608F1040802E6029B01339C422DD9E41A039B002B77D1CB0640F19680DB
:203A40002644904A049C0125CBE6B8F9000008F104084FEAE07C6DE5D8F800004FF0000CF3
:203A600008F10408E4E5039D0024BAE6864A039DB7E6039B002B5BD111F0100400F09880F5
:203A8000049C824A0125ACE6814A022515E6039B002B49D111F0100468D0049C794A01255C
:203AA0009FE6002D00F0A280002403952546A0E6019A0232944201F0010660D9A41A002ED3
:203AC0005AD00396724A1E4602258AE6019B9C4201F0010642D9019BE41A002E57D0039657
:203AE0000026354685E6002302F1010A4FF400520592029E04930DF1360701931A461D46A4
:203B0000DBE501F4C053B3F5C05F15D0B3F5006F00F09780B3F5805F40F08A800020844668
:203B200001900DF13607A8E5049C564A039D58E6049C564A039D54E6029B002B3AD101F030
:203B40000106002C57D0029B002E00F0A380039601931D461E460DF136074AE646B10024B3
:203B600003962546264644E618467047454A0CE73446354632462CE6454A022529E61C466E
:203B8000002EF9D00396424A1E46022529E6354632461EE601F00103394A039302250FE64E
:203BA000002E3ED000240396354A2646022518E6364AEAE641F608038B4340F08380029BCC
:203BC0009C4201F0010508D9029EA41BE5B1039500250DF1360701950BE6DDB10024039571
:203BE000029E01940DF13607254602E62C462A46EFE52A46EDE5002E5ED003960194254615
:203C000026460DF13607F4E5029E01950DF136072A46DEE5029E01952C460DF136072A462D
:203C2000D7E5174A34460225D3E5154A0225D0E50023CDE9043318469C460DF136070193B4
:203C40001EE50023CDE9043318469C4601930DF1360715E550EA0C03F3D00023CDE904332C
:203C600077E4029BE3B100221E464FF4005541F60803CDE904250B400DF1360701920FE56C
:203C8000D0560000D4560000DC560000D8560000CC5600001A4601931D460DF1360798E543
:203CA000029E019641F608034FF40052CDE904620B400DF13607F3E4019425460DF1360742
:203CC000224686E50023029E01930DF136070AE6074A08490346106803448B4201D81360CC
:203CE0007047054B0C221A604FF0FF30704700BF0802002000000420F40E00204FF0FF3053
:203D0000704700BF4FF0FF30704700BF01207047002070474FF0FF30704700BF4FF0FF3048
:203D2000704700BF4FF0FF30704700BF4FF0FF30704700BF10B44FF080414FF0805300204F
:203D4000C1F80C015E4AC1F81001C1F83805D3F80404C2F82005D3F80804C2F82405D3F8FE
:203D60000C04C2F82805D3F81004C2F82C05D3F81404C2F83005D3F81804C2F83405D3F80B
:203D80001C04C2F84005D3F82004C2F84405D3F82404C2F84805D3F82804C2F84C05D3F84B
:203DA0002C04C2F85005D3F83004C2F85405D3F83404C2F86005D3F83804C2F86405D3F89B
:203DC0003C04C2F86805D3F84004C2F86C05D3F83001D3F84444C2F87045082824D04FF021
:203DE0008043D3F80024D20744BF6FF00102C3F80024344AD2F8883043F47003C2F88830D8
:203E0000BFF34F8FBFF36F8F4FF01023D3F80022002A24DBD3F80432002B20DB2A4B2B4AC9
:203E20001A605DF8044B7047D3F83421002AD6D12748284A284CC0F88C46FB20C2F81805EB
:203E4000D1F8E42ED3F858422448134664F303034FF40072C1F8E43EC0F84026BFE7204A42
:203E60000123C2F80435D2F80034002BFBD04FF0102312211A4AC3F80012D2F80034002B38
:203E8000FBD04FF010231221154AC3F80412D2F80034002BFBD000231149C2F80435D1F855
:203EA0000034002BFBD0BFF34F8F06490D4BCA6802F4E0621343CB60BFF34F8F00BFFDE783
:203EC00000C0004000ED00E00C0200200090D0030050004000F00040488103000090024026
:203EE00000E001400400FA05802803D1024B0022C3F804250120704700C00040012070471F
:203F000030B5144D012383B02B60FEF78BFD6FF00304241A03E0FEF785FDC44203D5D5F853
:203F20000031002BF7D00B4B0022C3F80021D3F80825D3F80835920548BF6FEA8353054AEE
:203F400048BF6FEA9353012101935160019803B030BD00BF00C0004010B541600446FCF719
:203F6000EDFB206010BD00BF10B50446FCF7E6FBD4E90021C2F1010303448B4284BF521814
:203F8000226010BD10B50446FCF7D8FBD4E90032C3F10103184482422CBF0020012010BD3D
:203FA0000E4B186050B10E4A0E490423C2F80433C1F880310B600123136070470949084AA1
:203FC0000423C2F80833C1F88031C1F88030BFF34F8FBFF36F8F012353607047B40D002043
:203FE0000020004000E100E0084A82B0C2F81C05D2F81C31002BFBD00023C2F81C31D2F840
:204000001C310193019B02B0704700BF0020004010B4144B144C4FF0A0410022032083B080
:20402000C3F80025C1F818074020C1F80805C1F8202708200621C3F82445C3F86C25C3F828
:204040001405C3F80C15C3F81C21D3F81C210192019804210122C3F800159A6003B05DF825
:20406000044B70470020004000705F07074B002282B0C3F80821D3F808210192019A044A0A
:20408000D3F818051368C0B202B0184700200040B40D00204FF0A0434FF4F0310022C3F896
:2040A0000815C3F80C25704700B50F4A07CA85B001AB83E807000D491846FEF7B3F848B9B9
:2040C0000B48FEF7E9F860B90A4B01221A7005B05DF804FBFCF768F90548FEF7DDF8002800
:2040E000F2D0FCF761F9EFE710580000954000001E0F00201D0F0020024B1B7803B97047B2
:20410000FEF7BCB81D0F0020034B1B7803B97047024B1878FEF7E6B81D0F00201E0F00208D
:2041200008B5064B044613B10021AFF30080044B1B6803B19847204600F0CEFD000000009A
:20414000F00E002038B5104B1D682A6B0446B2B9182000F057F90246286320B90B4B0C485C
:20416000462100F0E7F80B490B4BC0E900130B4B83600B23838100210120C2E90401002323
:204180001461536138BD00BF1C0200201C580000335800000E33CDAB34126DE6ECDE0500E4
:2041A000002310B50446C0E90033C0E90433836081814366C2818361194608225C3000F057
:2041C00041FF0D4B63620D4BA3620D4BE3620D4B23630D4B24629C4206D003F168029442E4
:2041E00002D0D0339C4205D104F15800BDE8104000F030BF10BD00BFD7500000F950000019
:204200003151000057510000B80D0020024A0349034800F0F9BE00BF10020020875000003D
:204220002002002041680C4B994210B5044601D000F029FFA168094B994202D0204600F009
:2042400022FFE168064B994204D02046BDE8104000F019BF10BD00BFB80D0020200E002012
:20426000880E00200C4B0D4A0D4810B504211A600022FFF795FF0A4B01221C46092103F17D
:204280006800FFF78DFF04F1D0000222BDE810401221FFF785BF00BFF00E00200D420000BD
:2042A000B80D0020014800F0D6BE00BF200F0020014800F0D1BE00BF200F002010B5044659
:2042C000FFF7F0FF236A1BB1BDE81040FFF7F0BF044B2362044B1B68002BF5D1FFF7C2FFB8
:2042E000F2E700BF25420000F00E002070B50D4B0D4D5B1B9C100026A64209D101F092F845
:204300000A4D0B4B5B1B9C100026A64205D170BD55F8043B98470136EEE755F8043B9847DB
:204320000136F2E76C0200206C0200206C020020700200201FB514461A46094B1B68054681
:20434000D8684CB1074B0091CDE9013406492B4600F090F900F003FF044B1C46F3E700BFDD
:204360001C02002094580000A1580000CF58000038B50546002941D051F8043C0C1F002BA2
:20438000B8BFE41800F06AF91D4A136833B9636014602846BDE8384000F066B9A34208D9F2
:2043A000206821188B4201BF19685B6809182160EDE71A465B680BB1A342FAD9116850187D
:2043C000A0420BD120680144501883421160E0D118685B68536008441060DAE702D90C2386
:2043E0002B60D6E7206821188B4204BF19685B68636004BF091821605460CAE738BD00BF9F
:20440000FC0E0020024B0146186800F025B800BF1C02002070B50F4E0C463168054611B912
:2044200000F05EF930602146284600F059F9431C03D14FF0FF34204670BDC41C24F003045B
:20444000A042F8D0211A284600F04AF90130F2D1EFE700BFF80E00202DE9F843CD1C25F0D8
:20446000030508350C2D38BF0C25002D064601DBA94204D90C2333600020BDE8F883DFF8A0
:20448000D48000F0EBF8D8F800301C4644BB29463046FFF7BFFF431C044658D1D8F8004019
:2044A0002746002F43D1002C4BD023683946304604EB030900F014F9814542D121686D1AA4
:2044C00029463046FFF7A6FF01303AD023682B442360D8F800305A6862BBC8F800700FE0A6
:2044E0002268521B20D40B2A17D96119A342256018BF5960636808BFC8F8001062514B6078
:20450000304600F0B1F804F10B00231D20F00700C21A1CBF1B1AA350AFE76268A3420CBF46
:20452000C8F800205A60EBE723466468AEE73C467F68B6E71A465B68A342FBD10023536095
:20454000DEE70C233360304600F08EF894E70560D6E700BFFC0E0020B1F90C202DE9F04145
:20456000160705460C4651D44B68002B02DC0B6C002B49DDE66A002E46D0002312F4805249
:204580002F682B6031D0626DA389590705D56368D21A636B0BB1236CD21A0023E66A216A09
:2045A0002846B047421CB4F90C3006D129681D2946D8294ACA40D60742D500226260D90451
:2045C0002269226004D5421C01D12B6803B96065616B2F60C1B104F14403994202D028468D
:2045E000FFF7C6FE002363630EE0216A01232846B0470246501CC7D12B68002BC4D01D2B30
:2046000001D0162B1AD12F6000201EE00F69002FFAD093070E6808BF4B690F6018BF00238B
:20462000A6EB07088B60B8F1000FEDDD216AA66A43463A462846B047002808DCB4F90C306F
:2046400043F04003A3814FF0FF30BDE8F0810744A8EB0008E7E700BF01004020014800F02F
:20466000FABC00BF1F0F0020014800F0F5BC00BF1F0F00200EB403B5014603AB054853F879
:20468000042B0068019300F05DF802B05DF804EB03B070471C02002038B5074D0446084633
:2046A000114600222A601A46FFF738FB431C02D12B6803B1236038BDF40E002038B5074D1A
:2046C00004460846114600222A601A46FFF72AFB431C02D12B6803B1236038BDF40E0020B1
:2046E00038B5064D0023044608462B60FFF7F0FA431C02D12B6803B1236038BDF40E002041
:2047000038B5074D04460846114600222A601A46FFF70CFB431C02D12B6803B1236038BD6F
:20472000F40E002038B5064D0023044608462B60FFF7E4FA431C02D12B6803B1236038BD0C
:20474000F40E00202DE9F0470D469CB014461F46064618B1036A0BB9FFF7B0FD6B6ED907EA
:2047600005D4AB899A0502D4A86D00F074FCAB891B0701D52B699BB92946304600F01CFA43
:2047800070B16B6EDC0704D54FF0FF301CB0BDE8F087AB899805F7D4A86D00F05DFCF3E739
:2047A0000023099320238DF82930039730236A4F8DF82A304FF001082346994613F8012BCD
:2047C0000AB1252AF9D1B9EB040A0BD0534622462946304600F0E1FC013000F0A480099ADD
:2047E0005244099299F80030002B00F09C8000234FF0FF32CDE9052309F1010904930793EA
:204800008DF853301A934C46534814F8011B0522FBF7F6FC049BD0B9D90644BF20228DF8B2
:2048200053201A0744BF2B228DF8532099F800202A2A13D0079A4C4600204FF00A0C2146A5
:2048400011F8013B303B092B49D968B913E0C01B08FA00F018430490A146D4E7039A111D15
:2048600012680391002A01DB079204E0524243F002030792049323782E2B0AD163782A2BAC
:2048800032D1039B1A1D1B68039243EAE37302340593DFF8D490217803224846FBF7B0FCB2
:2048A00038B1049BA0EB09004022824013430134049314F8011B29488DF828100622FBF726
:2048C0009FFC00283ED0264818BB039B073323F0070308330393099B034409936CE70CFB1F
:2048E00002320C460120AAE700230134059319464FF00A0C204610F8012B303A092A03D9C9
:20490000002BC6D00591C4E70CFB012104460123F0E703AB00932A46124B04A93046AFF354
:204920000080431CD7D16B6ED90705D4AB899A0502D4A86D00F090FBAB895B063FF524AF89
:20494000099823E703AB00932A46064B04A9304600F00CF8E5E700BFD0580000DA580000AE
:20496000000000009B510000D65800002DE9F0430D7E85B0782D90460C9E07460C46994671
:2049800001F1430207D8622D0AD8002D00F0D780582D00F0BC8004F1420684F842503BE005
:2049A000A5F16303152BF6D801A151F823F000BF094A00001D4A00009749000097490000B6
:2049C00097490000974900001D4A000097490000974900009749000097490000254B0000C0
:2049E000474A0000D74A00009749000097490000474B000097490000474A00009749000062
:204A000097490000DF4A000033681A1D1B68326004F1420684F842300123A1E033682068B3
:204A2000191D3160060601D51D6803E04506FBD5B3F90050002D03DA2D236D4284F8433056
:204A40005B480A2311E021683368080653F8045B02D4490648BFADB23360237E54486F2BC4
:204A60005CD10823002184F843106668A660002E05DB21682E4321F00401216050D01646FF
:204A8000B5FBF3F103FB115C10F80CC006F801CDAC4663450D46F3D9082B0BD12368DB0742
:204AA00008D5236961689942DEBF302306F8013C06F1FF36921B2261CDF80090434603AAD7
:204AC0002146384600F07BFB01304ED14FF0FF3005B0BDE8F083236843F02003236035481F
:204AE000782584F845502368316813F0800F51F8045B03D113F0400F18BFADB23160D907DD
:204B000044BF43F0200323601DB11023AAE72848E7E7236823F020032360F6E70A23A1E713
:204B20001646B9E7336825686169181D30602E061B6801D5196002E06806FBD519800023E0
:204B400023611646B8E733681A1D32601E68626800213046FBF754FB08B1801B606063686B
:204B60002361002384F84330A6E72369324641463846C8470130A9D023689B0713D4E068F4
:204B8000039B9842B8BF1846A2E70123324641463846C847013099D00135E36803995B1A63
:204BA000AB42F2DCEBE7002504F11906F5E700BFE1580000F258000038B5284B05461868E6
:204BC0000C4618B1036A0BB9FFF778FBB4F90C301A0721D4D80607D409222A6043F040033D
:204BE000A3814FF0FF3030E0590712D5616B41B104F14403994202D02846FFF7B9FB0023EA
:204C000063630022B4F90C3062602269226023F0240343F00803A38122693AB99A0501D565
:204C2000180603D52146284600F098FBB4F90C3013F001020AD00022A26062695242A261D7
:204C4000226942B913F08000C8D138BD990758BF6269A260F4E70020F7E700BF1C02002063
:204C6000024B0146186800F0B2BB00BF1C02002038B5064D0023044608462B60FFF748F80A
:204C8000431C02D12B6803B1236038BDF40E002038B5074D00230446084611462B60FFF72D
:204CA00039F8431C02D12B6803B1236038BD00BFF40E002038B5074D00230446084611469E
:204CC0002B60FFF71FF8431C02D12B6803B1236038BD00BFF40E0020FEE700BF53B94AB9B7
:204CE000002908BF00281CBF4FF0FF314FF0FF3000F088B9ADF1080C6DE904CE00F006F8EB
:204D0000DDF804E0DDE9022304B070472DE9F047089D0F4604468C46002B48D18A421646B5
:204D200061D9B2FA82F34BB1C3F1200201FA03FC20FA02F29E4042EA0C0C9C404FEA164EA3
:204D4000B7B2BCFBFEF1220C0EFB11CC42EA0C4201FB07F0904209D9B21801F1FF3C80F0A8
:204D6000EE80904240F2EB8002393244121AA4B2B2FBFEF00EFB102244EA024400FB07F7E0
:204D8000A74209D9341900F1FF3280F0DA80A74240F2D7803444023840EA0140E41B002160
:204DA0001DB1DC400023C5E90043BDE8F0878B4206D90DB1C5E9000100210846BDE8F08735
:204DC000B3FA83F1002948D1BB4202D3824200F20781841A67EB030201209446002DE4D08F
:204DE000C5E9004CE1E7002A00F09280B2FA82F3002B40F0A8808A1A4FEA164E1FFA86FC45
:204E00000121200CB2FBFEF70EFB172240EA02420CFB07F0904207D9B21807F1FF3802D275
:204E2000904200F2E2804746121AA4B2B2FBFEF00EFB102244EA02440CFB00FCA44507D927
:204E4000341900F1FF3202D2A44500F2CB801046A4EB0C0440EA0740A2E7C1F120068B4057
:204E600022FA06FC4CEA030C07FA01F420FA06F3F7404FEA1C49234300FA01F81FFA8CFEF5
:204E8000B7FBF9F01C0C09FB107744EA074400FB0EF7A74202FA01F20AD91CEB040400F190
:204EA000FF3A80F09B80A74240F2988002386444E41B9FB2B4FBF9F309FB134447EA04445A
:204EC00003FB0EFEA64509D91CEB040403F1FF3780F08280A6457FD9023B644443EA0040BB
:204EE000A4EB0E04A0FB02E7BC427346B94663D360D05DB1B8EB030264EB090404FA06F665
:204F000022FA01F31E43CC40C5E9006400214CE76208480842EAC1710B0C43EA00438AB2D3
:204F200042EA0342B3FBF6F1E407B4463746B6461F23B0FBF6F0D21B41EA004161E76146F2
:204F400014E7104628E7C3F1200120FA01F29E4027FA01F19F403A434FEA164E1FFA86FC8A
:204F6000B1FBFEF70EFB1710110C41EA004107FB0CF8884504FA03F43AD9711807F1FF304C
:204F800001D288451FD8A1EB0801B1FBFEF808FB0CF70EFB181192B242EA0142BA422FD25B
:204FA000B21808F1FF31C6D2BA42C4D2A8F102013244C0E7F0459CD2BEEB020367EB0C0765
:204FC0000138B94695E7A6EB08084144B81EB1FBFEF808FB0CF7DCE73B467FE7504667E7EB
:204FE0000846FBE63444023832E7023F32441BE7A1EB08013846B1FBFEF808FB0CF7C8E794
:20500000414698E7704700BF2DE9F8430746884614460026D4E90195B9F1010905D52468BB
:20502000002CF7D13046BDE8F883AB89012B07D9B5F90E30013303D029463846C047064376
:205040006835E9E702440346934200D1704703F8011BF9E77047704770470A44914200F1C9
:20506000FF3300D1704710B511F8014B03F8014F9142F9D110BD034613F8012B002AFBD131
:20508000181A0138704738B50B6905460C4613B90025284638BD18B1036A0BB9FFF70EF9A5
:2050A000B4F90C30002BF3D0626ED00704D4990502D4A06DFFF7CFFF28462146FFF74CFA44
:2050C000636EDA070546E4D4A3899B05E1D4A06DFFF7C2FFDDE710B50C46B1F90E10FFF73D
:2050E000EDFA0028ABBF636DA3891B1823F48053ACBF6365A38110BD2DE9F0411F468B893A
:20510000DB0505460C46164605D5B1F90E1002230022FFF7C1FAA389B4F90E1023F480533B
:20512000A38132463B462846BDE8F041FFF7E8BA10B50C46B1F90E10FFF7AEFAB4F90C3010
:20514000421C0BBF23F4805343F48053A381A38118BF606510BDB1F90E10FFF7E3BA08B56A
:205160000620FFF77DFD0120FFF7B6FD9368013B002B10B4936008DA9469A34201DB0A29E3
:2051800003D15DF8044B00F087B81368581C1060197008465DF8044B7047F8B506460F4689
:2051A0001446D518AC4201D1002007E014F8011B3A463046FFF7DAFF431CF3D1F8BD2DE906
:2051C000F047164698468A680B69DDF820909342B8BF1346336091F8432007460C460AB1F5
:2051E000013333602368990642BF336802333360256815F0060506D104F1190AE3683268E9
:205200009B1AAB4226DC94F843302268003B18BF012392062BD404F1430241463846C84746
:2052200001301ED02368226903F00603042B02BFE5683368ED1AA3680CBF25EAE5750025FA
:205240009342C4BF9B1AED1800261A34B5421AD1002008E00123524641463846C8470130DD
:2052600003D14FF0FF30BDE8F0870135C6E7E1185A1C302081F84300224494F8451082F8B1
:2052800043100233C7E70123224641463846C8470130E6D00136D9E7F8B50E4614460546B4
:2052A00018B1036A0BB9FFF709F8A369A360A3891A0701D5236943B921462846FFF77CFC00
:2052C00018B14FF0FF373846F8BD23682269981A6369F6B28342374605DC21462846FFF733
:2052E000D2FE0028EDD1A368013BA36023685A1C22601E706269431C9A4204D0A389DB07B5
:20530000E1D50A2EDFD121462846FFF7BCFE0028D9D0D6E770B50C46B1F90E10002996B02E
:2053200015461E460ADAA18911F0800113D14FF48062002031602A6016B070BD6A46FFF741
:20534000B9FC0028EFDB019901F47041A1F5005359425941EBE700214022EAE78B8973B5E6
:205360009E0705460C4607D504F14703236023610123636102B070BD01AB6A46FFF7CAFFE7
:20538000009E28463146FFF767F8B4F90C3038B99A05EFD423F0030343F00203A381E3E7BA
:2053A00043F08003A381019B2060C4E90406002BE0D0B4F90E102846FFF75AFC0028D9D00F
:2053C000A38923F0030343F00103A381D2E71F2938B505460C4604D9162303604FF0FF30BB
:2053E00038BDC26B12B152F821304BB9284600F016F8224601462846BDE83840FFF748BC89
:20540000012B0AD0591C03D1162303600120E7E7002142F82410204698470020E0E7FEF702
:2054200075BC0000F8B500BFF8BC08BC9E467047F8B500BFF8BC08BC9E467047427574749E
:205440006F6E203400000000427574746F6E203300000000427574746F6E2032000000007E
:20546000427574746F6E203100000000427574746F6E2048414C2070726F636573730000CF
:205480004D61696E00000000494E464F000000005B252D34733A20252D3130735D2000000A
:2054A0005374617274696E6720436F6E74696B692D4E472D72656C656173652F76352E31A6
:2054C0002D31332D6765313430386538666500002D20526F7574696E673A2025730A0000DC
:2054E0002D204E65743A2025730A00002D204D41433A2025730A00002D203830322E3135A7
:205500002E342050414E49443A203078253034780A0000002D203830322E31352E3420444F
:20552000656661756C74206368616E6E656C3A2025750A004E6F64652049443A2025750AC2
:20554000000000004C696E6B2D6C6179657220616464726573733A20000000004374696D86
:2055600065722070726F6365737300004576656E742074696D657200284E554C4C204C4CD7
:20558000206164647229000025303278000000006E524635323834302049454545000000E7
:2055A00045525200546F6F206C6F6E673A2025752062797465732C206D61782025750A006F
:2055C00054583A20746F6F206C6F6E6720282575206279746573290A000000006E5246350C
:2055E00032383430204945454520524620647269766572006E756C6C6E6574006E756C6C84
:20560000726F7574696E670073656E736E6966662D7264630000000073656E736E69666664
:205620003A204572726F722073657474696E6720524620696E2070726F6D697363756F75C3
:2056400073206D6F6465000073656E736E6966662070726F636573730000000053656E73FE
:205660006F72730053657269616C20647269766572000000537461636B0000004368656361
:205680006B206661696C65643A2025752076732E2025750A00000000537461636B2063684A
:2056A00065636B003031323334353637383941424344454600000000303132333435363779
:2056C0003839616263646566000000003078000030580000200000002B0000002D0000005C
:2056E000286E756C6C2900002500000054656D7065726174757265000D00010E00010F00BF
:205700000110000100B000400B000300FF0006000000000000000000000000004D14000013
:205720006D130000C5150000C516000089120000DD1400005D110000C1110000251400002F
:20574000A10F0000BD0F000019170000E9110000C9100000F4550000FD2200005D230000E2
:2057600009230000FC550000992300009D230000A1230000CD230000A5230000A9230000E8
:20578000E5230000AD230000D5230000B1230000DD230000B5230000D9230000B9230000B5
:2057A000D1230000C9230000BD230000E1230000C5230000C1230000085600008D2A000044
:2057C000752A0000992A0000792A0000892A00009D2A0000C11FFE72C80100200000000011
:2057E0002020202020202020202020202020202030303030303030303030303030303030A9
:20580000EC560000013F0000E93E0000FD3E000001000000D0070000060000005245454E9C
:2058200054206D616C6C6F6320737563636565646564002F566F6C756D65732F64617461D4
:205840002F6A656E6B696E732F776F726B73706163652F474E552D746F6F6C636861696E22
:205860002F61726D2D31342F7372632F6E65776C69622D63796777696E2F6E65776C696292
:205880002F6C6962632F7374646C69622F72616E642E63002C2066756E6374696F6E3A201D
:2058A00000617373657274696F6E2022257322206661696C65643A2066696C6520222573BB
:2058C000222C206C696E65202564257325730A00232D302B2000686C4C00656667454647E0
:2058E00000303132333435363738394142434445460030313233343536373839616263646F
:205900006566000000000000F8A8FF7F0100000004010020B40000206400002014000020EC
:20592000000000000000000000000000000000000000000000000000000000000000000067
:20594000000000000000000000000000000000000000000000000000000000000000000047
:20596000000000003C54000001000000010019000300000000000000000000000000000079
:20598000000000000000000000000000000000000000000000000000000000000000000007
:2059A000000000000000000000000000000000000000000048540000010000000100180031
:2059C0000200000000000000000000000000000000000000000000000000000000000000C5
:2059E0000000000000000000000000000000000000000000000000000000000000000000A7
:205A000000000000545400000100000001000C0001000000000000000000000000000000CF
:205A2000000000000000000000000000000000000000000000000000000000000000000066
:205A40000000000000000000000000000000000000000000605400000100000001000B0085
:205A600000000000000000006C5400003504000000000000000000005C550000E90800008B
:205A800000000000000000006C550000950A0000000000000300000000001A01021402145C
:205AA00000000000DC55000051150000000000000058000000000000892500000000000049
:205AC000AA0008000C0C0020BC06002004000800340C0020140C00200000000048560000B0
:205AE000A52C000000000000000000005C560000612E0000000000000000000064560000DA
:205B0000492F00000000000000000000985600008D30000000000000280F00200090D003A8
:205B20000000000003000000B80D00202002002000000000B80D0020200E0020880E002052
:205B4000000000000000000000000000000000000000000000000000000000000000000045
:205B6000000000000000000000000000000000000000000000000000000000000903000019
:045B8000E10200003E
:0400000500000C41AA
:00000001FF
