:020000040000FA
:200000000000042081180000A9180000AB180000AD180000AF180000B1180000000000004A
:20002000000000000000000000000000B3180000B518000000000000B7180000B918000088
:2000400091350000752D000061A20000BB180000BB180000BB1800009D320000BB1800001A
:20006000A1670000BB180000BB18000099360000BB180000A1350000BB180000BB180000B4
:2000800049370000BB180000BB180000BB180000BB180000BB180000BB180000BB1800001B
:2000A000BB180000BB180000BB180000BB180000BB180000BB18000000000000000000004E
:2000C000BB180000BB180000BB180000BB180000BB180000BB180000BB180000BB18000088
:2000E000BB180000BB180000BB1800000000000000000000BB18000000000000BB180000E1
:200100000000000000000000000000000000000000000000000000000000000000000000DF
:200120000000000000000000000000000000000000000000000000000000000000000000BF
:2001400000000000000000000000000000000000000000000000000000000000000000009F
:2001600000000000000000000000000000000000000000000000000000000000000000007F
:2001800000000000000000000000000000000000000000000000000000000000000000005F
:2001A00000000000000000000000000000000000000000000000000000000000000000003F
:2001C00000000000000000000000000000000000000000000000000000000000000000001F
:2001E0000000000000000000000000000000000000000000000000000000000000000000FF
:2002000001F0FF01102A2BDB10F0070F08D010F8013B013A8B422DD010F0070F42B3F6D1A4
:20022000F0B441EA012141EA014122F007047FF000070023F0E80256083C85EA010586EA51
:20024000010685FA47F5A3FA87F586FA47F6A5FA87F68EB9EED1F0BC01F0FF0102F007024C
:2002600032B110F8013B013A83EA010313B1F8D10020704701387047002D06BF35460338AF
:20028000073815F0010F07D1013015F4807F02BF013015F4C03F0130F0BC0138704700BF73
:2002A0000348044B834202D0034B03B1184770478003002080030020000000000548064B11
:2002C0001B1AD90F01EBA301491002D0034B03B118477047800300208003002000000000E8
:2002E00010B5064C237843B9FFF7DAFF044B13B10448AFF300800123237010BD3228002002
:2003000000000000D4E8000008B5054B1BB105490548AFF30080BDE80840FFF7CFBF00BF5B
:2003200000000000500A0020D4E80000A3F5803A704700BF174B002B08BF134B9D46FFF734
:20034000F5FF00218B460F461348144A121A0CF034FE0E4B002B00D098470D4B002B00D0C9
:2003600098470020002104000D000D48002802D00C48AFF300800BF04BFF2000290000F009
:20038000E9F90BF021FE00BF00000800000000000000000000000420800300205828002033
:2003A000000000000000000000B585B00346002101AA44F20100CDE90111039300F004F8BD
:2003C00005B05DF804FB00BF72B6094BD3F8F030DB0700D500BEBFF34F8F0549054BCA6819
:2003E00002F4E0621343CB60BFF34F8F00BFFDE700ED00E00400FA0572B6024A136801331E
:2004000013607047680A0020034A1368013B136003B962B6704700BF680A002010B50446BE
:20042000006830B1002103F083FC54F8040F0028F8D110BDF0B5038883B0044663B1B3F55A
:20044000867F04D182290BD0012003B0F0BD00230380032003B0F0BD4FF486732380F3E7D9
:2004600001F0BEFABFF35F8F1649174B0E6800220A601F781A70FFB2BFF35F8F134D01F0AD
:20048000B3FA286820B9E7E755F8040F0028E3D090F84A3026FA03F3DA07F5D590F8493079
:2004A00047FA03F3DB07EFD500F0C6FD0028EBD0074B084A1B6800932B680221184600F00B
:2004C00059FDE1E77C0A002033280020000000204C1200204905000010B50C4A90F84B30D3
:2004E00011680B4A82B0013380F84B300446009103468021203000F03DFD064B1978002094
:20050000224602B0BDE8104003F0BEBC4C120020D90400003428002010B4084A084C1368A3
:200520000B4313602378012282401343DBB2237004485DF8044B03F0D9BC00BF7C0A002027
:20054000332800205401002070B582B0044600F073FD08B902B070BD04F12006304600F089
:200560006BFD94F84A10054694F8490001F0FAF980B994F848309BB9002DEBD1304600F049
:2005800041FD0F4B19782246284602B0BDE8704003F07ABC0128EFD194F84830002BEBD158
:2005A000002DD7D0074B084A1B68002584F84B50304600937E21234600F0DCFC034BE1E715
:2005C000352800204C120020D904000036280020F8B503F0A3FB304B304F187003F09EFB79
:2005E0002F4B304D187003F099FB2F4A7A60FF2139722A682D4B00261870FE60002A42D085
:200600002B4C09E091F84A00F9683A72834055F8042F0B43FB60B2B392F84A3092F8491062
:20062000526C03F01F0343EA41131F2BCABF03F01F034FF0A041214603F5E07342F08C02EC
:2006400041F823602B6893F84A1093F8490001F047F92A6892F84A3092F8490003F01F03E3
:2006600043EA4010012102F069FD2968387A91F8492082424FF00103C4D0FF28C2D055F8AD
:20068000042F002AC8D10B48002103F051FBBDE8F840024801F07AB9362800206C0A002052
:2006A000352800200000002019050000342800200003005054010020042800D0704708B5CB
:2006C000054A13680133136000F0AAFD00B908BDBDE8084000F08ABD800A002000B5134BB3
:2006E00083B000221A6002F0A3FBC0B9002002F0B9FB0F4B0F4A93E803000090ADF80410E2
:200700000D48694602F060FF60B901210A4802F0ADFF094802F09EFF03B05DF804FBFFF77C
:2007200043FEE3E7FFF740FEEFE700BF800A0020BCE60000B9060000B4E60000014B186874
:20074000704700BF800A0020014B1868C0097047800A00202DE9F04103F0D8F9FFF7BEFFC5
:2007600005F0E4FF03F012FB00216348634FDFF8E081634D634C644E03F0DAFA00F0F0FB38
:200780000BF0E6FB08F034FC03F0C8F903F0CCFB5E4B1B6898477B689847D8F80430984737
:2007A000EB885BBA33802368022B36DC584B29686A68196057485A60002103F0B9FA4FF056
:2007C000FF3009F0D3FF2368022B054610DC03F0C1F95148FFF722FE0BF0E2FB03F0DCFA33
:2007E00004460BF0E5FB002CF8D103F0B9F9F5E74A4A4B494B4803F0CFF94B4803F0CCF99D
:200800002368022BE3DD284601F0F2FA2368022BDDDD0A2003F078FBD9E7404A40494148B7
:2008200003F0BAF9414803F071FB2368022BBDDD3A4A3B493B4803F0AFF93D4B3D48196824
:2008400003F0AAF92368022BB0DD344A3449354803F0A2F9D8F80010374803F09DF9236844
:20086000022BA3DD2D4A2E492E4803F095F93348396803F091F92368022B97DD274A28493F
:20088000284803F089F92E484CF6FE2103F084F92368022B8ADD214A2149224803F07CF966
:2008A0002848142103F078F92368022B7FF77EAF1A4A1B491B4803F06FF92348318803F037
:2008C0006BF92368022B7FF771AF144A1449154803F062F91D4803F05FF92368022B7FF722
:2008E00065AF284601F094FA2368022B7FF75EAF0A2003F009FB59E798010020C4E60000F8
:20090000BC0C0020B801002020280020F4E60000B0260020BC0200202CE70000F4D3000026
:20092000FCD3000004D40000D0D4000014D4000034E7000044D4000054D4000060D40000F5
:200940006CD4000088D40000A8D40000B8D400008CE700002DE9F0430D468B6892F82C90AB
:2009600083B00646506BD3E90078144601F012FA686803F017FBA9681C4801F007FB1C4811
:20098000294601F003FB636B1B6813B30023A38503F036FB174BA3FB0023C21A03EB520331
:2009A0009B08C3EBC303C11A134B144A1B68009304F10C00234600F0DDFA3FB14A4631464B
:2009C00040463B4603B0BDE8F043184703B0BDE8F08304F10C0000F015FB2146084801F0B2
:2009E000D9F92146074801F0D1FAE6E76401002070010020254992244C120020090A00001B
:200A0000840A00207C010020002842D02DE9F047436B1D6886B00446002D37D0686803F05A
:200A2000D7FA7C490C2003F059F80121072003F049F8794B5B68984700282BDAAB682BB3AF
:200A400005202246294606B0BDE8F047FFF782BF05F09EFE6FF02806361A03E005F098FEF5
:200A6000C64202D5C8470028F8D0C847002800F0A4803B69032105A898470328AA6835D1B6
:200A80009DF81630434531D1002A6ED106B0BDE8F087704702F0B8FF604F90F802807B68BA
:200AA000039302F0B1FF064602F0B8FF039B01463046984703F022F8BB69039306469847DD
:200AC00098B9002E48D1D7F81C90C84768B9BB681E4602F0A3FFB047002851D0022804D07A
:200AE000AB68002BD2D00420ABE7AA68002ACDD094F82D3094F82C100133DBB2052B84F869
:200B00002D301BD8127A8A4222D9012B88BF1F267BD903F075FA424AB0FBF6F1126800929A
:200B2000404A01FB1601234604F10C0000F022FA686806B0BDE8F04703F02EBA0131002310
:200B4000C9B284F82D3084F82C10137A8B4215D822462946012076E7BE6802F05FFFB04780
:200B60000028BBD1AB68002B90D094F82C300020013384F82D0084F82C3062E70726C8E741
:200B800005F006FE6FF0180AAAEB000A04E005F0FFFD1AEB000F02D5C8470028F7D0039BE0
:200BA000984700287FF454AFC84700287FF450AF7B69984700283FF44BAFA96800293FF48A
:200BC00065AF94F82C3001330022DBB284F82D2084F82C300A7A9A4203D822462946022061
:200BE00031E703F00DFA104BA3FB0023C21A03EB52030B4A9B0812680092C3EBC303C11A55
:200C0000084A234604F10C0090E7033301269E40013E7EE7BC0C0020E0E60000F4E600003A
:200C20004C120020090A0000254992242DE9F041064682B00D200F4602F058FF054601F033
:200C400013F901210B2002F03DFF464B1C681CB954E02468002C51D02946201D01F048F839
:200C60000028F6D0606B01F0AFF8072808DD66B3012206213846334602B0BDE8F0411847CE
:200C8000394801F067F9054650B3384801F062F9A86008B303F05CF9D5F808806860B8B1D7
:200CA000052002F015FF10F0FF0308BF082388F80830C8F80060C8F80470606B294601F0DE
:200CC0001FF8636B1B689D4232D002B0BDE8F0812648414601F05AF92348294601F056F9B0
:200CE000606B01F071F80028C1D121461D4801F051F821461E4801F049F9B8E71C4801F01B
:200D000029F904460028B2D02946043000F0EAFF002304F130021348A385626323632146C2
:200D200000F0EEFF606B01F04FF807289FDCA7E794F82D30012B10D91F2503F061F90D4BB4
:200D4000B0FBF5F11B68009301FB15010A4A234604F10C0000F00EF9B7E7033301259D404E
:200D6000013DEAE7840A002070010020640100207C0100204C120020090A000008B5054868
:200D800001F0D6F8044801F0D3F8BDE80840034801F0CEB870010020640100207C0100202A
:200DA000014B1B6A184700BFF4E60000014B5B6A184700BFF4E6000010B50D4B82B01B688F
:200DC00098470C4B04469B6A01A91920984701280BD0002C019BB8BF1524802BD4BFC4EB63
:200DE0000300C4F1800002B010BD002002B010BDE0E60000F4E60000FFF718BF30B50D4CF2
:200E000083B0A56A69461920A84748B901A90420A84738B101F020F8FFF7B0FF236A9847F8
:200E200003B030BD0199E36A21F00201019104209847EFE7F4E6000000B583B002F0E8FD13
:200E4000032804D0244B9B689847002802DA03B05DF804FB0D2002F049FE204900F048FF31
:200E600018B902F04BFE0028F1D00C2002F03EFE1A4900F03DFF0028E9D100F0FFFF90B183
:200E8000072002F025FE0028E1D00223ADF8043002F0BAFD124B8278DB688DF8062003212D
:200EA00001A89847D3E701F011F8072002F010FE18B90C4B9B689847C9E70223ADF8043017
:200EC00002F0A2FD064B8278DB688DF80620032101A89847EDE700BFE0E60000BC0C00205B
:200EE000F4E600008CE70000F8B5038805464BB1452B03D1882915D00120F8BD00230380D0
:200F00000320F8BD134B1C6834B1A168201D00F073F92468002CF8D10F4B01221A704523A0
:200F20002B80E9E70B4B1C681CB9F8E72468002CF5D0231D9A42F9D10648084E214600F04A
:200F400029FFD4E90523376832600BB1E06998473760E4E7CC0B0020372800204C12002019
:200F6000024B03480021196002F0E2BECC0B00208801002070B582610D4A04461078E36198
:200F8000049B636130B9A1600A482146BDE8704000F0B6BE084D094B2E682B60201D00F09B
:200FA0002BF92E6021460348BDE8704000F0A8BE37280020CC0B00204C1200208801002085
:200FC00070B50C4B1B7804462BB921460A48BDE8704000F095BE094D094B2E682B60043084
:200FE00000F014F92E6021460348BDE8704000F087BE00BF37280020CC0B00204C12002077
:201000008801002010B50A4B1B7804463BB9C0E9033321460748BDE8104000F0BBBE043015
:2010200000F006F921460348BDE8104000F0B2BE37280020CC0B002008B5084B1B7801465A
:2010400023B10069B0FA80F0400908BD044800F0C5FE80F00100C0B208BD00BF3728002046
:20106000CC0B002010B50446C0B209F0B7F8204610BD00BF70B570B10E46451E002404E059
:20108000A64206D009F0AAF8013415F8010F0028F6D1204670BD0446FBE700BF10B5FFF77D
:2010A0004DFB0B4B1A68D2E9003192680B44191A52B1D2E9003423441B1A9268994228BF5E
:2010C0001946002AF5D14318024A136010BD00BFD40B0020D00B0020F8B5038805464BB3A0
:2010E000592B03D000232B800320F8BD872926D082291BD1284E3468C4B1002703E0A3681A
:2011000027469BB11C46204609F05AF80028F6D0E0682246882102F0B7FE03461F483BB377
:2011200002F0E4FEA3682746002BEBD1592301202B80F8BD184A012013605923F8E7164ECA
:201140003168002021B9F1E78C680120E4B12146CB689342F8D000B134608B68002BE5D02B
:20116000D3E90204944214BF194688600346F5E7E360A3686FB1BB6033680022A2602BB174
:20118000FFF78CFF3468B7E73460CFE7044A1360CCE73360F1E700BFD40B002098010020F4
:2011A000D00B002010B504460D4802F09FFE0D490D48E3680A6800685BB152B1134601E028
:2011C0009B6833B19C42FBD1E060BDE81040FFF765BFC4E902200C60BDE81040FFF75EBFEC
:2011E00098010020D40B00204C120020014802F07DBE00BF9801002010B5044608F0CAFFFB
:201200002046BDE81040FFF7CDBF00BF10B5044608F0C8FF2046BDE81040FFF7C3BF00BFD2
:20122000024B1868003818BF01207047D40B002010B5124B19688142044614D00B462BB13A
:201240009A68A24206D01346002BF9D10023C4E9023310BDA2689A6049B1FFF71FFF00237D
:20126000C4E9023310BD82681A60002AF5D1044B00221A600023C4E9023310BDD40B0020AF
:20128000D00B0020014B1888704700BF74030020002831D0037A022B30B410D00378022B1B
:2012A00013D00379A3B10024C37913F0030318BF012301B10C6002B1136030BC7047C379F4
:2012C0000579447A53B1C4B915B300231C46F0E7447A14F0030418BF0124E5E744B1002D7A
:2012E000F3D1023C012C8CBF002401242B46E0E7012DF4D12B46DCE77047032B14D0022BD6
:2013000023D0022C1FD0002DDFD12B460024D0E7022B11D0032B4FF00103F7D1A4F10204B2
:20132000B4FA84F46409C4E7032C15D0022C17D0002DCAD12B46F1E7A4F10304B4FA84F473
:2013400064090123B5E70123E0E7002DFBD1022CF2D101231C46ACE7002DB6D10123DDE7D6
:201360000123002DDAD0D1E730B5002383B00B608B80437DDB075CBF01230B70037E012B00
:201380000D46044627D901AA694604F11000FFF77FFF009B0BB10223EB70019B0BB1022389
:2013A0006B70E37D03F00303022B05D0A3F10303B3FA83F35B09DB00AB70637E03F0030306
:2013C000022B05D0A3F10303B3FA83F35B09DB002B7103B030BDC37D13F0030309D0437EF0
:2013E00013F0030305D0C38B828B9B1AB3FA83F35B092375C7E700BF022814BF0823022326
:201400000B4403E013F8012DFF2A03D19942F9D1012070470020704700B583B06946FFF783
:20142000A3FF9DF800309DF801209DF802009DF803100233134403449DF804209DF805002A
:201440000B441344184403B05DF804FB4378827890F800C0DB00120102F0100203F0080396
:2014600013430CF0070290F803C0134302794FEA4C1C0CF0200C920143EA0C0302F0400229
:2014800013430B704379827990F809C003F00103520043EA8C1302F0020290F807C01343C3
:2014A000027A4FEA8C0000F00C001201034302F0300213434B70704770B582B00D460446B6
:2014C0006946FFF751FF04F110002946FFF7BEFF9DF80030012B04BFA37EAB709DF801303A
:2014E0000CBF03200220022B06D1A38B2B54A28B431C120AEA5402309DF8026046B1A31969
:201500002A1813F8011D02F8011BA342F9D130449DF80330022B06D1E38B2B54E28B431CA2
:20152000120AEA5402309DF804605EB106F1080323442918083413F8012D01F8012BA342EE
:20154000F9D1304402B070BD10B40278437894094FF0000C002062F3070C64F30700D408CB
:2015600064F30F2C140964F3174C520963F30F2062F31F6C5A0862F317409A0862F31F60BE
:20158000074C084A0CEA04040240C3F301109B090C604A605DF8044B08724B72704700BF94
:2015A0000701010101010103012942DD2DE9F04186B00E4603A914460546FFF7C5FF0B46A5
:2015C00003CB9DF811201B8820616161238362B3AF1C03A802AA01A9FFF75AFE9DF8138094
:2015E000B8F1000F39D0029B63BBB8F1020FA3835DD0B8F1030F43D09DF81580B8F1000FB2
:2016000023D0019BBBB9A38BE383B8F1020F43D0B8F1030F28D0781B331A8642C4E90E73DD
:2016200000DA002006B0BDE8F081AB78A376EF1CCFE700207047029A3B88E38302B9A3836A
:201640000237E2E737F8023BCFE71E4904F1080000F048FBA4F81E80DDE71A49204600F018
:2016600041FBA4F81C80C7E707F108000346E21D13F8011D02F8011FBB42F9D10746CAE7F8
:2016800007F108000346621E13F8011D02F8011FBB42F9D10746AFE70A4904F1080000F054
:2016A00021FB7B78237217F8023B6372B3E70549204600F017FB7B78237017F8023B637070
:2016C0009AE700BFECE6000030B591B002F08CF9044602F09DF96A4601462046FFF764FFD3
:2016E00000283ED0044602F065F9D0B39DF810100B2002F0E7F99DF81310072002F0E2F939
:201700009DF817308BB1BDF81C50FFF7BBFD854205D0BDF81C204FF6FF739A4221D19DF83B
:2017200017006946FFF768FEB0B102A90C2002F0D5F99DF815303BB14FF6FF71062002F0FC
:20174000C1F9204611B030BD9DF81A10062002F0B9F9204611B030BD69460D2002F0BEF999
:20176000E3E74FF0FF34ECE7F8B505460B2014460F46A84700232074A37417B90720A847E5
:20178000C3B20026E37466750820A84701232376A07566740620A847A076FFF773FDE083C5
:2017A0000920A847012814BF032333466376FFF769FDA0830A20A847012803D0B74214BF3D
:2017C00002260326637EE675022B1DBF023EB6FA86F6760901262675F8BD00BF30B591B02C
:2017E0000546FFF74FFD4FF6FF74A0423AD04022002168460BF0E1FB02F080F96A4601464E
:201800001A48FFF7B1FF02F079F918B3ADF800400C2002F06BF9014602A800F063FA02F0FA
:20182000E3F80E9002F0F4F8034668460F93FFF7F3FD044615B9204611B030BD02F08AF832
:2018400080B102F0E1F801466846FFF735FE204611B030BD0D2002F049F90146684600F014
:2018600041FAD5E74FF0FF34E5E700BFD13A00000120FFF7B3BF00BF0020FFF7AFBF00BFDE
:201880000649074A074B9B1A03DD043BC858D050FBDC08F04FFAFEF74DFD0000E0E8000023
:2018A0000000002080030020FEE7FEE7FEE7FEE7FEE7FEE7FEE7FEE7FEE7FEE700F01F0361
:2018C00001219940C0F3471000F066B808B501F09BFB00B108BDBDE8084001F05FBB00BF84
:2018E00030B583B0154602238DF8063005F00C03002201F01F01082BADF8042041EA4014E3
:2019000026D00C2B1AD0042B02D101238DF8043015F0030306D0022B1ED0012B04BF0323C0
:201920008DF805300E4A01A9204601F077FB2B0608D4204601F078FC03B030BD03238DF8FF
:201940000430E5E70121204601F0F8FB03B030BD02238DF80430DBE701238DF80530E1E735
:20196000BD18000001F01F0141EA40101F28CABF054B4FF0A04300F01F00D3F8103523FA88
:2019800000F000F001007047000300500146014800F0B6B9D80B002070B50C4B1C689CB11D
:2019A00005460E4601E0246874B1237AAB42FAD1E36816EA0301F6D063682846002BF2D066
:2019C00098472468002CF0D170BD00BFD80B0020024B00221A60FFF779BF00BFD80B0020E7
:2019E000EFF3108072B6704780F31088704700BF2049002340FA03F2D20720D510B40A7846
:201A000091F801C08C7802F01F0242EA4C12E4B11F2AC6BF184C02F01F024FF0A0444FF09F
:201A2000010C0CFA02F2C4F808250133042B01F103011CD040FA03F2D407F6D5DFE70133A2
:201A4000042B01F10301D5D170471F2AC6BF0A4C02F01F024FF0A0444FF0010C01330CFA24
:201A600002F2042BC4F80C2501F10301E2D15DF8044B7047A8E60000000300500F4A1048C0
:201A800010B402F10C0C03241378517803F01F0343EA41131F2BC6BF03F01F0301464FF0FC
:201AA000A04103F5E0730332944541F82340EBD15DF8044B0F20FFF79BBF00BFA8E6000024
:201AC0000003005008B50848FFF77AFA074800F043FB40B1037A5B0801460372034800F0F7
:201AE00005FB0028F6D108BDDC0B0020A80100200146014800F05EBBA801002080B110B50A
:201B00000446FEF71BFE2368C01AB0F5963F05D2207A032894BF0020012010BD002010BDA4
:201B20000020704706292CD8F8B54523CB40DB070F4625D5054629462748144600F03AFBA2
:201B4000064618B3062F1BD0FEF7F8FD337A30602344102BA8BF1023022F337212D0E4014E
:201B6000A4B2FEF7EBFD3368C01AB0F5963F31D2337A032B8CBF0A221922B388F3B9B48098
:201B8000F8BD70470C34E401A4B2EAE7002FF7D1334611480822294600F042FB064600288A
:201BA000EED047F6FF73C380FEF7C8FD337A30602344102BA8BF10233372D0E7C2F16400CF
:201BC000064904FB02F203FB0022A1FB02125209B280F8BD1922D0E7A80100201F85EB5116
:201BE00038B50546042001F073FF29460446224800F0E0FA24B2034638B3B0F9062047F623
:201C0000FF718A422CD004EB840464005A201B4912FB004281FB0201D217C2EB61129988DB
:201C200014B2DC8081B904F15A0212B222EAE2721E2A1349A8BF1E22D201A1FB02121209EA
:201C400002F5807292B29A8038BD0B480822294600F0E6FA03460028F6D047F6FF72C28065
:201C60009A88DC80002AEFD147F6FF729442DAD14FF48072E7E700BFA80100201F85EB5162
:201C80008988888810B5084800F066FA58B104462146054800F092FB2146034800F026FA78
:201CA00004460028F4D110BDA801002000B5002183B0084800F0F8F9074B084A1B68009363
:201CC000074800234FF4E131FFF754F903B05DF804FB00BFA80100204C120020C51A00000E
:201CE000DC0B00200B684A6842600360704700BF08B508220BF038F9B0FA80F0400908BD02
:201D00000368D3B110B4002400E0134699421A680ED01C46002AF8D100230B600368C3B1B6
:201D20001A461B68002BFBD111605DF8044B70476CB1226000221A60EEE700230B600368F4
:201D40004BB11A461B68002BFBD1116070470260F0E70160E9E70160704700BF30B40568F3
:201D60004DB12B46002400E0134699421A6806D01C46002AF8D10D6030BC016070473CB1B1
:201D8000226000221A6005680D6030BC016070470260F6E703689BB110B4002400E0134630
:201DA00099421A6805D01C46002AF8D15DF8044B704734B1226000221A605DF8044B7047E3
:201DC00070470260F7E700BF03682BB100201B680130002BFBD1704718467047006810B93E
:201DE00004E0006818B18142FBD101207047704700B58BB00246282168460AF08FF8694651
:201E0000024801F0C9FE0BB05DF804FB18D50000D8B138B505460E48297801F0BDFE01243B
:201E2000E3070B4807D515F8011F013401F0B4FE082CF5D138BD2E2002F066F815F8011FCA
:201E4000034801F0A9FE0134EAE7024801F0A4BE2CD500001CD5000008B502F0D1F8014B46
:201E6000187008BD38280020034B197806204A1C1A7001F027BE00BF38280020F8B5FEF7E9
:201E80005DFC114E0746344600250C2001F02EFE2146FFF72DFF30B90135102D04F1100467
:201EA000F3D10020F8BD062001F012FE06EB05131A7B8242F5D19868381AB0F5206F8CBF69
:201EC00000200120F8BD00BFC40C002070B5174E002534460C2001F009FE2146FFF708FFAC
:201EE00010342B460135F0B9102DF3D10F2306EB031CE646ACF1100C9CE80F0066458EE872
:201F00000F00F6D1062001F0E3FD3073FEF716FC03460C20B36001F0E9FDBDE8704001464F
:201F20000248FFF7DFBE002BE1D1EBE7C40C002010B504464288406800210BF03EF82388A7
:201F40006288A0680021BDE8104003FB02F20BF034B800BF30B44588ADB14368002202E023
:201F60000132AA420CD0194601330C78002CF7D101230B700388806802FB030030BC7047A6
:201F8000002030BC70472846F8E700BF10B4448882688CB1002305E0B0F800C00133A34232
:201FA000624409D09142F7D14268D15C21B10020D0545DF8044B70474FF0FF305DF8044BAD
:201FC000704700BF83688B4208D84288008800FB023399422CBF00200120704700207047DC
:201FE000418849B143680020194413F8012B02B901308B42F9D17047084670472DE9F84F23
:20200000DFF89CA0224CDAF80830DFF898B0214E07468846A0EB030C04F1200954F8041F65
:202020004FEAAC0306FB03F3C1B18D68B5B11CF10C0F23D04868CA6800FB032070B11BF8A5
:20204000032009680A41D20708D5A847DAF80830A7EB030C4FEAAC0306FB03F34C45DDD133
:202060000D490E480022CA5439460BF80320FFF791FEB8F1000F04D1BDE8F88F4FF0FF3320
:20208000ECE739460648BDE8F84FFFF77FBF00BF980E0020ABAAAAAABC0E0020C40D002077
:2020A000C00100208003002038B10368072B04D80C4A52F82330984211D00B4A1368072B8A
:2020C0000BD810B48160074903605C1C41F82300146001205DF8044B704700207047816049
:2020E000012070479C0E0020980E0020174B9A6840B341B3F0B5DFF85CE0C5684468144E3A
:2021000016E012EB83011BD052F82310A1EB020C4FEAAC030EFB03F391B11CF10C0F03FBF7
:2021200004510CD061B1F35C07683B41DB0707D4491B91FBF4F101EB41030131E1D100215B
:202140000846F0BD01460846704700BFC001002080030020ABAAAAAA124B1968F9B1124B67
:202160009B68C91AD0B111F10C0F17D00F4BC268891001FB03F3416801FB032179B110B42E
:202180000B4C0268E35C1341DB0703D508465DF8044B70475DF8044BFFF7A8BF0021FFF770
:2021A000A5BF00BFC40D0020C0010020ABAAAAAA8003002070B5154A154B1468002914BF82
:2021C0000D461D46064614B91DE02468DCB1211D2846FFF78DFD0028F7D00E4B0E4A9B684B
:2021E000E41AA31002FB03F36EB10C340BD07268F06802FB030030B108493268CB5C134188
:20220000DB0700D570BD002070BD00BFC40D0020ECE60000C0010020ABAAAAAA80030020DE
:202220002DE9F84F002800F093805E4BDFF884810D46002908BF1D4629460646FFF7BAFF81
:202240000746002831D00027D8F800401CB965E02468002C62D0211D2846FFF749FD0028BD
:20226000F6D0DFF84C91504AD9F80830E41AA3100C3402FB03F351D07268F46802FB0344C2
:20228000002120460AF099FEF3687268E31A93FBF2F35A1C06D03068444901228240C85C07
:2022A0000243CA542046BDE8F88FD8F8004014B90EE0246864B1211D2846FFF719FD0028DD
:2022C000F7D0DFF8EC90D9F80830E41A0C34BAD13748FFF785FE0028B5D1D8F80040002C30
:2022E00036D0DFF8CC90DFF8D0B0DFF8BCA007E03846211D03F0CCFB07462468002C48D0A1
:20230000D9F80830E31A9B100AFB03F31BF80330002BF2D1002FEBD1271DEEE72448FFF777
:2023200019FE0446C0B1DFF8889022482146FFF7E7FCD9F80830201D2946E41AFFF7D2FCBB
:2023400014F10C0F726827D1002108460AF035FE00242046BDE8F88F002FF9D0D8F8004031
:202360001CB9F5E72468002CF2D0211D3846FFF7BFFC0028F6D0DFF83890D9F80830E31A32
:202380000C33E5D0002CE3D000212046FFF736FECBE7002FDCD057E7034BA41004FB03F3F7
:2023A0006BE700BFECE60000ABAAAAAA80030020C0010020C40D0020BC0E002028B311B393
:2023C000C3684268CB1A93FBF2F35A1C1BD030B50E4C056814F803C0012202FA05FE2CEABC
:2023E0000E0C04F803C0C3684468CB1A93FBF4F3591C06D0064C0068E15C824021EA0202C0
:20240000E254012030BD00207047704780030020BC0E002098B189B1C2684368891A91FBD6
:20242000F3F14B1C0AD0064A036812F801C0012000FA03F343EA0C0353547047002070476F
:20244000BC0E0020B0B199B1C2684368891A91FBF3F14B1C0CD010B4074C0268635C01205B
:2024600000FA02F223EA020363545DF8044B704700207047704700BFBC0E002088B179B1B0
:20248000C2684368891A91FBF3F14B1C08D0054B986801EB410110EB810002D0043070475E
:2024A00000207047C001002038B5104B1C6834B101280D4608D090B12468002CFBD100207A
:2024C00038BD2468002CFAD0A3682846002BF8D098470028F5D038BD2468002CEFD0636816
:2024E000002BF9D098470028F6D038BDCC0E0020054A01231361D2F8503513F0FF03FAD126
:20250000C2F8FC3F0120704700100040F1B119281AD8DFE800F0170D19196D64605C443FAC
:20252000193B1919193835322F192C292623201D344B354AD3F80835A2FB03239B080A3391
:20254000DBB20B600020704701207047022070477D230B60F6E700230B60F3E710230B600D
:20256000F0E70A230B60EDE720230B60EAE703230B60E7E708230B60E4E7D8230B60E1E7AB
:202580001A230B60DEE70B230B60DBE71F4B1B780B60D7E71E4B93F900300B60D2E7194AA1
:2025A000012382B05361D2F81C31002BFBD00023C2F81C31D2F81C310193019BD2F848354C
:2025C00003F07F035B4200200B6002B07047114B5B790B60B6E70F4B5B780B60B2E70D4B34
:2025E000DB7800220A60002BACD001230B60A9E7084B1B7800220A60002BA3D004230B6094
:20260000A0E700BF00100040CDCCCCCC392800203A280020CC0100200120704730B583B013
:20262000FFF7DEF9BFF35F8F1D4B1B78ABB11D4B1D4902224FF0FF34C1F80843C3F8802112
:20264000C3F88020BFF34F8FBFF36F8FBFF35F8F03B0BDE83040FFF7C7B903F0FF02124BB0
:202660001049C3F83021D3F830410194019CC3F83421D3F8342100924FF0FF34009DC3F8FB
:20268000084302224FF44054C1F88021C3F804430A60BFF35F8F03B0BDE83040FFF7A4B973
:2026A000CC01002000E100E000100040154BD3F8FC0F30B1D3F85025D2B2032A02D0002022
:2026C0007047704710B4104C104922780978053AD2B201F0FF0051B17A2A11D8D3F830219A
:2026E00072B9D3F83401B0FA80F0400905E07A2A03D894F8800080F001005DF8044B704710
:202700000020FAE700100040D00E0020CC010020074A1378053B7A2B08D8064BD3F830315F
:2027200013B992F8800070470120704700207047D00E0020001000400D2801D00120704731
:20274000042A05D121B1034B1B680B600020704702207047D40F002070B51B4CD4F85055B7
:20276000EDB2032D82B02AD0184B194A1949C4F80415C3F8102502F5DE421432C3F8142520
:2027800001264FF00062C3F80465C3F80425FFF745FFD4F8003243F01003C4F80032D4F831
:2027A0000032022D43F40023C4F8003209D00023C4F85831D4F858310193019B666002B032
:2027C00070BDA66002B070BD0010004000F0014038110040D00E002070B5324B324D00229C
:2027E00084B0C3F83821D3F838410094009CC3F80C21D3F80C410194019CC3F83421D3F810
:2028000034410294029CC3F830212C78D3F830310393631F7A2B039A02D8023CA1420ADAFA
:202820008122002120480AF0C8FBFFF795FF0024204604B070BD2246691C0AF0C9FB2B19CB
:202840001A4E5B78174A3F2B9ABF9B00DBB2FF233370D2F84815164B01F07F01494249B2AD
:202860001970042089B201F02DF93178032001F029F9104B2A7810491A74D1F84C055860C4
:20288000D1F8481599605200DA605968064802391960812200210AF090FBFFF75DFF2046C9
:2028A00004B070BD00100040D00E0020392800203A280020D40F0020008000407D2910B5B8
:2028C0000C4609D801460A48A31C00F8013B22460AF07EFB002010BD064A0749074801F091
:2028E0005BF97D222146064801F056F9012010BD540F002034D5000044D5000004D4000085
:2029000048D5000010B4174B17490F22C3F810258A780A3A02EB8202C3F808250879CC798E
:202920008A794979120642EA0422024342EA0142C3F86C260D4C0E4840F202210022C3F886
:202940003415C3F838457F21C3F83C2540F20122C3F81405C3F81815C3F850265DF8044B54
:20296000704700BF00100040CC010020211001000800000608B5084BD3F8FC2F1AB1FFF79D
:20298000EBFE012008BD0122C3F8FC2FFFF7BAFFFFF7E2FE012008BD0010004010B51C497A
:2029A0001C4C1D484FF08042002382B00B6023704B6003708B60CB600B74C2F80031D2F88E
:2029C00000310093012300991360D2F80031002BFBD00024C2F80041D2F8003101932146FD
:2029E0000E48019B01F0A4F9214681220C480AF0E4FA0C4B0122C3F8FC2FFFF783FF0A4AF5
:202A00001378DBB21370FFF709FE204602B010BDD40F00203A28002039280020D40100203E
:202A2000D00E002000100040CC01002000B51B4BD3F8FC2F85B052B3FFF78EFE174B00220A
:202A4000C3F84821D3F8481103910399C3F84421D3F8441102910299C3F84C21D3F84C2130
:202A6000019201220199DA6202E0D3F844211AB9D3F84821002AF8D0084BD3F84801D3F88D
:202A80004431B0FA80F0400905B05DF804FB0122C3F8FC2FFFF736FFCEE700BF001000405D
:202AA00010B50388044683B140F2D332934203D1822905D0012010BD00230380032010BD64
:202AC000114A1378053B7A2B03D940F2D3332380F0E70E4BD3F830311BB992F88030002BDF
:202AE000F3D009F065FA00F0B1FE00F07DFF8021FFF772FE0028E8D080B200F06FFF044BEA
:202B0000DB689847E1E700BFD00E002000100040C4E6000010B57D2884B060D8364BD3F8F2
:202B2000FC2F002A4FD0354CFFF716FEE378002B43D16378304ADBB20121C2F80C35D160CC
:202B4000D2F85035DBB2022BFAD100232C49C2F80415C2F80C31D2F80C1101910199C2F872
:202B60006C31D2F86C1102910299C2F85431D2F854310393039BD2F8003223F01003C2F8A5
:202B80000032D2F80032012143F48023C2F80032116003F0FDFD6FF00204241A03F0F8FD36
:202BA000E042FBD4144AD2F85035DBB20B2BFAD0FFF7D2FD002004B010BDFFF737FF002830
:202BC000B7D10220F7E701220C4CC3F8FC2FFFF799FEFFF7C1FDE378002BAAD0EDE7094AA4
:202BE00009490446094800F0D7FF2146084800F0D3FF012004B010BD00100040CC010020CA
:202C0000540F002034D5000044D5000004D4000064D500007D2910B50C460CD801460D48C1
:202C2000A31C224600F8013B0AF0D2F92046BDE81040FFF76FBF084A0849094800F0ACFF66
:202C4000214608487D2200F0A7FF2046BDE81040FFF760BF540F002034D5000044D5000073
:202C600004D4000048D5000008B507280FD8DFE800F0101F0E0E40494F043C4B3C48C9B228
:202C80005971D0F8FC2F002A55D1002008BD012008BD01295FD0002945D1354A01231361AD
:202CA000D2F8503513F0FF03FAD1C2F8FC3FECE7A1F10B030F2B36D82C4B2D4AC8B29870D5
:202CC000D2F8FC3F002BE0D001231361D2F8503513F0FF03FAD10A3909B201EB8101C2F837
:202CE000FC3FC2F80815D2F8FC3FF3B1FFF734FDCBE7072917D81D4BC1F380011970FFF705
:202D00008DFCC2E701290ED8184BC9B2D970BCE7164A174BC9B25170D3F8FC2F002AB4D005
:202D2000C3F80C15B1E7022008BD0123C2F8FC3FFFF7E8FDDAE793F804C093F807E09A79AF
:202D40005979130643EA0E2343EA0C0343EA0143C0F86C3699E7064BD3F8FC2F002AC5D19C
:202D6000C3F8FC1FFFF7CEFDC0E700BFCC01002000100040184B1B7803B1704700B503F010
:202D8000FF02164BD3F8301183B029B9D3F8342192B903B05DF804FBC3F83021D3F8302116
:202DA00000920F4B00990F48012283F8802003B05DF804EB01F09AB8C3F83411D3F834318F
:202DC000019381220648019B0AF0F7F803B05DF804EBFFF7C1BC00BFCC0100200010004083
:202DE000D00E0020D401002010B580B1012800D010BD0E4C2369A070002BF9D01A68226135
:202E00005B68012098472369002BF7D1F0E7074CA36801226270002BEAD01A68A2605B681A
:202E200000209847A368002BF7D110BDEC0F002038B50A4C237813B18525284638BD0848AE
:202E40006360A3602361E36000F042F8054600F04BF801232370284638BD00BFEC0F002049
:202E6000E92D000038B5194DAB78044673B110B14368012098470020FDF7BEFAEB68013399
:202E8000EB60BDE838400020FDF7BEBA03F0FF00FDF7B2FA3CB12A697AB1134601E01B6844
:202EA0005BB19C42FBD1EB6863B1EB680133EB60BDE838400020FDF7A7BA2260EB682C612F
:202EC000002BF2D100F026F8EFE700BFEC0F0020044A137923B901211060918018467047D8
:202EE0008520704700100020084B1A68D20707D5074A4FF080410123C1F818351370704707
:202F0000C02283F8002301221A60F1E700E100E03B2800204FF08043002282B0C3F8042142
:202F2000D3F804210192019802210122C3F804139A6002B0704700BF10B54FF0804382B042
:202F4000D3F8002162B10021134AC3F80011D3F80011507900910121009CC3F80813B8B1F5
:202F60004FF08043D3F8042182B10022C3F80421D3F8042101920221074A0198C3F80813C4
:202F80001368012002B0BDE81040184702B010BD136851719847E3E70010002030B5174DB1
:202FA00095F86A4083B034BB3022A818FF210AF004F83022FF21284609F0FFFF104BA5F8C1
:202FC00068404FF0FF31C022C5E9181483F8062340221A600B4BC3F87C41D3F87C110191E6
:202FE00001984FF000420121204685F86A10C3F8042303B030BD082003B030BD900300203B
:2030000000E100E000600040034B93F86A00003818BF0120704700BF90030020F0B5444D7D
:203020002B1893F93030002B01DB0820F0BD8B78C3F340069B0754BF0823002303F1804CC3
:203040000CF1FF3C54BF4FF00C0E4FF0080E05EB8C0C02E001339E453ED95CF8044F013403
:20306000F8D12C1845F823205AB284F8302016B9EC1884F858008C7867071ED4E60747D5D7
:203080001F2887BF2B4C00F01F0606464FF0A04404EB8604D4F8006726F00206C4F80067BB
:2030A000254FC60800F0070E17F806C0012404FA0EF444EA0C04BC558C780978A4070DD46F
:2030C000A2F1080345FA83F393F8602042EA811283F860200020F0BD0420F0BD9B0003F1AB
:2030E000804303F5C0430202D3F8100520F44F3020F44070C3F810050904D3F8100502F424
:203100007C5201F440310A430243C3F81025E1E71F284E7887BF074F00F01F0404464FF0EC
:20312000A04704F5E074B60047F82460B8E700BF9003002000030050F403002030B4374C00
:2031400004EB000C82B09CF93030072B11DD234493F858309B09032B35D0012B0CBF4FF4A2
:2031600000324FF440321F2849D900F01F002C4B35E0DAB2072A23D8980000F1804000F56E
:20318000C04003F140029200D0F8105592B202F1804202F5C04245F00105C0F810550020D0
:2031A000106012680192019A51B19CF9302054F822202AB11B49012202FA03F3C1F804333E
:2031C00002B030BC70471F281CD84FF0A0421346D2F81025C24002F001020232120403EBB7
:2031E0008003D3F8001721F44031C3F80017D3F800170A43C3F8002702B030BC70474FF06D
:20320000A043ECE7064BD3F8102500F01F00C24002F0010202321204A9E700BF9003002055
:203220000003005000600040194B034493F93030072B18DCDAB2072A14D810B49A0002F1E4
:20324000804202F5C042134CD2F81005012120F0010001FA03F3C2F81005C4F808335DF836
:20326000044B704770471F2886BF0B4B00F01F004FF0A04303EB8003D3F8002722F4403293
:20328000C3F80027D3F80027C3F80027704700BF9003002000600040000300502DE9F04F07
:2032A0000022164689B0CDE90222724B724C73480122354604E0043383424FEA420211D06B
:2032C00019680129F7D1D4F804131142F3D01D60196800910433834246EA020600994FEAED
:2032E0004202EDD1644BD3F87C110129F2B220D0D2B1634F01250024A30003F180432E42BE
:2033000003F5C0430BD0D3F8100557F82420D3F81015C0F30520C1F3014102B190470134E7
:20332000082C4FEA4505E7D1002E15DB09B0BDE8F08F0021C3F87C11D3F87C3101934FF06F
:20334000A041019BD1F810154E4B0291D3F810350393002A40F08B8000224B4DCDE9042235
:203360004FF0FF330693A5F16308484C07934FF00009012614F9013F5A1C32D0C3F3C20E5A
:203380000EF120020DEB020C03F007021CF8087C06FA02F21742D9B203F03F0021D008EB84
:2033A0000007890997F9307058F82770002F4CD003294CD01F288BBFDFF8C8E04FF0A04E8D
:2033C00003F01F0303460EEB83031CF818ECD3F800C71EEA020FCCF3014C1AD0BCF1020F99
:2033E00040D0AC42C6D1B9F1000F9FD04FF0A0430299D3F81035234A9942D2F8102502D129
:203400000399914292D0CDE90232DDE904230692ABE7BCF1030FE4D1032903D0002FE0D088
:20342000B847DEE74FF40032D3F800C72CF4403CC3F800C7D3F800C709F1010942EA0C02D3
:203440005FFA89F9C3F80027E8E70329C9D10DF1100B0DF1100A1BF80EB04BEA020B0AF8D4
:203460000EB0A7E70329D9D14FF44032DCE746F000463EE70061004000600040206100400F
:203480009003002000030050F3030020EF03002010B54FF0804386B0D3F80443620703D5AE
:2034A000D3F80821002A62D1A30605D54FF08043D3F81421002A4FD1600605D54FF08043AA
:2034C000D3F81821002A3BD1210604D54FF08043D3F81C214ABBE20504D54FF08043D3F816
:2034E0002021B2B9A30512D54FF08043D3F824216AB10022C3F82421D3F82421214B05922F
:20350000059A1B68022006B0BDE81040184706B010BD0022C3F820211A4AD3F820310493A5
:2035200001201368049A9847DCE70020C3F81C01144AD3F81C3103931368039A9847CAE703
:203540000022C3F81821104AD3F81831029301201368029A9847B7E70020C3F814010A4A59
:20356000D3F8143101931368019A9847A4E70022C3F80821054AD3F8083100931368009A26
:20358000984791E7081000200C1000201010002008B5FFF77DFFBDE80840FFF7CDBC00BFC6
:2035A000074B002282B0C3F80021D3F800210192019A044AD3F808051368C0B202B018474B
:2035C00000D000401410002030B41E4C437944F823201D4C03EB4303E35C83BB8A7890F969
:2035E00004305201002BD2B224DB03F1604303F5614383F8002390F90430002B09DB134D99
:203600004FEA531C012203F01F0302FA03F345F82C3003680A88C3F8082543790879C978DC
:2036200003EB4303E21850700120E0549170002030BC7047064D03F00F03EA54DBE7082003
:2036400030BC70471C1000201810002000E100E014ED00E00368044A01211960437903EB93
:2036600043030221D15470471810002010B40368002483B0C3F80041D3F80041036801942F
:203680000122019CC3F8442311B10368C3F8042303B05DF8044B70472DE9F041274E284FF8
:2036A000DFF8A08084B000244FF48035D6F804332B4211D057F824300022E0B263B1C6F847
:2036C0004853C6F8085347F8242057F824200392D8F80030039A98470134032C4FEA450528
:2036E000E4D1164BD3F80423D10702D5D3F80021C2B9124BD3F80423920710D5D3F80421EF
:203700006AB10022C3F80421D3F804210D4B0192019A1B68052004B0BDE8F041184704B0D1
:20372000BDE8F0810022C3F80021064AD3F80031029304201368029A9847DAE700B00040C9
:2037400040B100401C10002010B5084CD4F8003182B04BB1064B1B6898470023C4F80031E5
:20376000D4F800310193019B02B010BD000001402010002070B5114B114A1D781160DDB994
:20378000104E027801211970C6F80C25416804464FF47A720023C803490C09F031FAC6F870
:2037A0000405237A084A5B01DBB282F810334FF480331360284670BD082070BD3D2800208D
:2037C000201000200000014000E100E0044B054901220220C3F804231A600870704700BF6B
:2037E000000001403D28002010B504460020FCF703FE0E4A1378072B11D80D492370581C85
:203800001070D1F80805012202FA03F30343C1F8083500240020FCF7F7FD204610BD04247B
:203820000020FCF7F1FD204610BD00BF3C28002000000140034B044A00F5C07043F8202094
:20384000704700BF000001403546526E0D490E4A0E4808B500230B800D4913600B800D495D
:2038600053600B700C49C2E90233C2E90433FEF739FA064B084903F10800BDE80840FEF75B
:2038800031BA00BF22280020B4100020A4100020242800203E280020ECE60000124A70B517
:2038A0000023124C1370124E124A238005460C46114812493380C2E90033C2E90233C2E938
:2038C0000433FEF70FFA0C4B0C4903F10800FEF709FA802C28BF802422462946084809F0BC
:2038E00077FB3480204670BD3E2800202228002024280020B4100020A4100020ECE6000029
:20390000241000202DE9F0410E4A0F4B14781F88E519802D03DD00252846BDE8F081DFF81C
:20392000308022464146064609F052FB074B1B8830191C443A4658FA84F109F049FB2846C6
:20394000BDE8F0813E28002024280020222800202410002030B5134B134C144A94F800C055
:203960001B881288634452FA83F39BB21A18802A16DC013B9AB21BB2002B0CDB0C4D511C59
:20398000024429442A44013B1BB211F801ED02F801E95D1CF7D1844484F800C0012030BDCF
:2039A000002030BD222800203E2800202428002024100020074A1388834209DB0649B1F8BD
:2039C00000C080B21B1A60440880138001207047002070472428002022280020014B188098
:2039E000704700BF24280020044A054B12881B780448134450FA83F0704700BF22280020DA
:203A00003E280020241000200048704724100020014B1888704700BF242800200549064A0D
:203A2000064B128808781B88104453FA80F080B2704700BF3E280020222800202428002063
:203A400030B50E4C0E4D84468E460FCCCCF80000CCF80410CCF80820CCF80C3003CCCCF838
:203A60001000CCF814100FCDCEF80000CEF80410CEF80820CEF80C3030BD00BFB410002052
:203A8000A410002010B584468E460068DCF80410DCF80820DCF80C30084C0FC4DCF8100088
:203AA000DCF8141003C4064CDEF80000DEF80410DEF80820DEF80C300FC410BDB4100020A1
:203AC000A4100020014B23F810107047B4100020014B33F810007047B4100020024B0C383D
:203AE00003EBC000FEF7FEB8A4100020024B0C3803EBC000704700BFA4100020014902487C
:203B0000FEF7F6B8ECE60000AC10002008B5FDF75FFFBDE80840FDF7B1BF00BF08B5FCF785
:203B200057FD002000F072FA06F06CFB02F01CFF4FF08052064BD2F8A810D2F8A4205A601F
:203B40004CF6F46C3620A3F800C09870D97008BDBC0C00200148002100F0EAB88402002072
:203B600010B5FDF73DFF0446BFF35F8F00F080F900B930BFBFF35F8F2046BDE81040FDF766
:203B800033BF00BF0AB90020704708B508461146FDF770FA002008BD0FB400B583B004AADC
:203BA000054852F8041B019205F0D0FA03B05DF804EB04B0704700BFEC0100202DE9F8437E
:203BC0002F4D2A688242044618BF134640D0002B3CD01B689C42FAD1002C37D0294EA37B5E
:203BE000376853B1A36843B18C4206D000223460832104F10C0098472A68A2422FD02AB1F5
:203C00001368A34236D01A46002AF9D1A37BE3B12D680023A373C5B14FF002084FF0010962
:203C2000AB7BDB070ED5AB682246872105F10C0043B1356085F80E8098470238012814D9B1
:203C400085F80E902D68002DEAD13760BDE8F883002AFBD00B4E937B3768002BC2D12368D1
:203C60002B60A37B002BD3D1EFE729462846FFF7A5FFE7E723681360A37B002BC8D1E4E706
:203C8000501200204C12002038B583687BB104460A4804600220A07304F10C000D469847B8
:203CA0000238012804D9832D02D00123A37338BD21462046BDE83840FFF780BF4C12002076
:203CC000F8B5134A134B146800221A70D4B1124F0125022601E02468A4B1E37B002BFAD00B
:203CE000A368E5810022822104F10C00002BF2D03C60A67398470238012804D9A573246828
:203D0000002CEAD1F8BD21462046FFF757FFE2E7501200203F2800204C120020034B1878C0
:203D2000FF281ABF421C1A708020704742280020F8B5144A1568854205D004462B461BB10F
:203D40001B689C42FBD1F8BD002CFCD02560A3810D4DA3682F6814600126A6735BB10A46D4
:203D60000221A1732C60812104F10C0098470238B04202D9A6732F60F8BD21462046FFF7D7
:203D80001DFFF8E7501200204C120020014B8B221A707047422800202DE9F8432E4D2B78F5
:203DA000FBB92E4E3378BBB12D4C2E49227802EB4200013202F01F02227001EB8002013B81
:203DC000546851F82080177ADBB2337064B1812F1FD0A27BD2071ED428781844C0B2BDE8CE
:203DE000F883FFF76DFFDCE71F4A14685CB9F3E7A37B13F0010F42463946204601D0FFF7EA
:203E000043FF246814B32B78002BF1D0FFF758FFEEE70122A273D4F80890B9F1000FDBD05C
:203E2000124B1C6002234246A373394604F10C00C8470238012805D9832F03D001223378C3
:203E4000A273C9E721462046FFF7B8FE337828781844C0B2BDE8F8833F28002041280020DB
:203E600040280020CC100020501200204C120020034A044B10781B781844C0B2704700BFC3
:203E80003F2800204128002030B40F4C94F800C0BCF1200F15D00D4B1B78634403F01F031F
:203EA0000CF1010C03EB430384F800C0084C44F8232004EB8303054619725D60002030BCA1
:203EC0007047012030BC70474128002040280020CC10002038B5837B034CDB07256801D5DB
:203EE000FFF7D2FE256038BD4C12002018B1837B013B012B00D97047024A0123C37313701C
:203F0000704700BF3F280020FDF7ACB810B5044609F06CF801462046FDF7ACF8BDE81040A6
:203F20000A20FDF79FB800BF08B50448FEF700F8BDE808400248FDF7FBBF00BFF40100209E
:203F4000000200200148FEF74BB800BF0002002038B50F48FDF7FEFFB0B104460D48FDF7F4
:203F6000F9FF0546206058B1FFF7CCFC05F19A01A5F8800005F18200FFF762FD204638BDE1
:203F800003482146FEF702F80024204638BD00BF00020020F4010020006800F19A01823065
:203FA000FFF74EBD10B5044621460748FEF70AF800B910BD21680548FDF7E8FF214602485C
:203FC000BDE81040FDF7E2BF00020020F401002010B5044621460948FDF7F4FF00B910BDEC
:203FE0002468B4F880102046FFF758FC04F19A0104F18200BDE81040FFF744BD0002002034
:2040000008B508F021F880B208BD00BF0E4A012100231160C2F80031D2F80031002BFBD032
:20402000D2F8080508490023C0B2C2F80031D1F80031002BFBD0D1F80825012340EA022082
:204040004B6080B207F0D2BF00D00040817942790379521A1A4208D0026801F1010C525C03
:2040600003EA0C038371104670474FF0FF30704770B5038884B0044663B11E2B04D000239C
:204080000320238004B070BD1D4BDB6853B1012004B070BD1A484FF4A061FDF7ADF81E2348
:2040A0002380F4E7174E336998470546164A17491748FDB9FFF770FD1648FFF727FF40F273
:2040C000FD532946CDE900356846B368CDE902559847F36898470C4A0C490D48FFF75CFDF8
:2040E0000D48FFF713FF6846FDF782FE0A20FFF70BFFC4E7FFF750FD0848FFF707FFBEE738
:20410000D417002034E7000098D50000FCD3000004D40000A0D50000C8D50000E4D500009A
:2041200070B5134E337803B170BD04460D4606F05DFA034684B10F4B2068616803C395B14E
:204140000D4BA868E96803C30A480122002106F07FFB0123337070BD59689A68054C00686A
:20416000DB680FC4EBE70549024806F007FDEBE743280020E4170020EC170020B026002034
:2041800070B5254D2E7882B036B3244B002403F1540193F820201AB193F82120012A15D079
:2041A0001C339942F5D1204606F0BCFA04B980B302F018FA4023024600930020214600F054
:2041C000BBFB00F057FA002002B070BD1A7CFE2A19D003F11004E3E706F008FA0346104CD3
:2041E00059689A680068DB680FC40E49A4F1100006F0C4FC01223146A4F1100006F028FB74
:2042000001232B70C1E75A7C802AC9D003F11004C6E74FF0FF30D7E743280020CC1E0020A8
:20422000E4170020B0260020054B187B30B1B3F84E00DB8AC01AB0FA80F04009704700BF98
:20424000F41700202DE9F843DFF878809DF82490154607460C461A484FF4B07200211E4684
:2042600008F0ABFEB8F82030AB4205D108994A46304602F019FA18B900252846BDE8F883AA
:204280000F4AF0231146D37301254FF0FF3357731573CB64C2F808804FF2F0034FF6FF72D1
:2042A000A1F85020A1F858300A4620686168E36802F11C0CA268ACE80F002846BDE8F88392
:2042C000F41700204C02002030B5437D012B83B003D90025284603B030BD90F8511090F8C1
:2042E0005030028ACDE90031044600F13C030146007EFFF7A7FF05460028EAD0144B627D85
:20430000206A617F58611976E08B618B9A73002258831982606D217F83F85C209974A17D60
:2043200083F85410217D83F8531018609968E07D83F8520083F855200B689847054801F0FF
:2043400087FE01F0D7FF02F02DF8284603B030BDF41700201CD600002DE9F041554D2B7B40
:20436000B5F84E40002B6FD195F85C30032B58D0FFF75AFF064620B1AB68BDE8F041DB698F
:204380001847D5F844804C4F01F0B4FC01F04CFC686C01F017FCA5F84E003868FDF7DCFE87
:2043A0000446002834D1B5F84E20B8F1000F54D0B5F84C30934252D9B5F85030A5F84C2030
:2043C0004FF6FF718B4259D0D31A002BB8BF5B42B3F5007F4CDC95F85B30002BCCD06B6C01
:2043E000002B53D0B8F1000F5BD001F067FE002385F85B30AB68BDE8F041DB6918472368F4
:204400003BB321463868FDF771FE04460028CAD0204601F0D7FBB5F84E308342EFD82660D2
:20442000EFE7002001F000FC4FF6FF739C42A5F84E30A1D0214801F00BFE01F0B3FFAB685F
:20444000BDE8F041DB69184705F16400FCF7DAFD8AE7FCF773F92060D3E7A5F84C20B5F8FF
:2044600050304FF6FF718B42B5D08A42B3D0ABE71348A5F8502001F0EBFDACE795F85B30E8
:20448000002B3FF479AF6B6C002BAED100230B4885F85C3001F0DCFD01F06CFD01F082FF00
:2044A000A5E70123074885F85C3001F0D1FD01F065FF9AE7F41700207002002024D60000A8
:2044C00034D600004CD60000094A137B73B110B4044640B102F11C0CBCE80F00206061609D
:2044E000A260E36001205DF8044B704718467047F417002010B5FFF797FE124C60B994F868
:204500005820531CDBB2120658BF03F07F03002084F8583001F026F9FDF7B4FB01F0AEFB12
:2045200006F02EFF01F092FF94F841305B0602D40023237310BD044802F092F8002323739B
:2045400010BD00BFF417002020180020024B032283F85C2001F09CBFF417002008B50F4B55
:204560001A7B8AB19A6C511C0ED082420DD9121AB2F5967F9A6407D2586C28B101F02EFBFA
:20458000BDE8084000F090BF08BD00210322996483F85C20BDE8084001F07ABFF4170020AE
:2045A00010B5084C237B5BB194F840200146D20804F11C0008F0D8FCB0FA80F0400910BD1E
:2045C000184610BDF417002010B5FFF72DFE70B1104C94F85220531CDBB21206227B58BF5C
:2045E00003F07F03F02184F85230E17302B910BDFFF71AFE08B984F85C00A3681B68984747
:2046000001F03CFB044801F023FDBDE8104001F03FBF00BFF417002058D6000010B50A4CFE
:20462000237B03B910BDFFF7FFFD08B984F85C00A3681B68984701F021FB044801F008FD0C
:20464000BDE8104001F024BFF417002058D60000074B9A7B187B1AB9003818BF0120704784
:2046600028B193F85C00012894BF002001207047F4170020024B1B7B03B97047FFF76CBE65
:20468000F41700202DE9F041654D2B7B06460C462BB16A7B237E9A4209D0BDE8F081FFF78F
:2046A000C3FD98B12B7B002BF3D1BDE8F0815D481022214608F058FC0028EED1628AEB8A74
:2046C0009A4209D2BDE8F041FFF746BE2046FFF7FBFD0028E6D1E0E7E17D95F8520001F02B
:2046E00063FF638A002839D14FF6FF72934204D095F85730013385F8573095F85210E07D42
:2047000001F052FF48B1B5F84E20EB8A9A424DD0FFF78AFD074600285ED0224601213046B5
:2047200000F0A6FEB0B1304601F0D6FA0746002839D090F80680304601F0CEFA00283CD05E
:20474000638A8380637E8371AB6C73B117B16B6C9F425CD02B7B002B9FD0B3E7EA8A9A4283
:20476000F8D1314801F074FCF4E76B8BC3EB03135B01AB64AB7B002BECD0002FEAD06B6CC9
:204780009F42E7D1607E414601F00EFF0028E1D0EA7B531CDBB2120658BF03F07F03EB73E1
:2047A00001F08CFCD6E74FF0F008C4E7E37D1F4885F85230FFF708FFAFE7304605F01EFE01
:2047C00001460028C6D01A4B012218682346FDF727FD0028B4D1BDE701F038FE384601F064
:2047E00023FA2046FFF770FD2B7B002B95D0FFF71BFD08B985F85C00AB681B68984701F08F
:204800003DFA0C4801F024FC01F042FE85E76B8BAA7BC3EB03135B01AB64002A9AD0B1E7E9
:20482000F41700201018002068D6000084D600007002002058D6000011B1084801F008BCE6
:2048400010B50A460321044600F012FE20B12046BDE8104000F042BE10BD00BFA0D60000B7
:2048600070B591F823600C460546BEB1FF2E1BBF0D4B5B8B4FF0FF3373430A4601460020D8
:2048800006F0EAFC18B194F92530002B00DB70BD218C2846BDE8704001F030BC0A4601467A
:2048A000304606F0B5FCEEE7F417002070B5154D0E4695F85910044601F076FE08B185F825
:2048C000594095F85830A34200D070BD95F85C30012B76B20BD1002E11DB02230A4885F8F1
:2048E0005C3001F0B5FBBDE8704001F02BBC01F029FC002EE9DA032385F85C3070BD01F00A
:2049000021FCF8E7F4170020B0D6000070B505460E461C463AB924B11DB1064BAE801B7B19
:2049200023B9012070BD01F0ADFBF4E7FFF714FD012070BDF41700202DE9F047254C82B069
:204940009846237B9DF828A005460E46174653B1102204F11C0008F007FB80B34FF0F009D6
:20496000FFF7C8FD01E04FF0F0093B463146CDE9008A28460122FFF765FC0122A27340F6D5
:204980000842154922823C22616162831E2180221248217600234FF0FF31A4F84E20022234
:2049A000A37484F85290A16484F85330A4F8543084F85C2002B0BDE8F04701F049BB94F857
:2049C000523003F101091B065FFA89F9C8D409F07F09C5E7F417002000048000BCD6000051
:2049E00002484FF4B072002108F0E7BAF4170020104B987918B993F82A20632A01D0012092
:204A0000704793F82920A2B993F82B1004290FD10949087B68B191F80DC093F82D0060453C
:204A200006D1B1F84E2083F82D0052BADA85E6E710467047B0210020F417002070B5164AFA
:204A40000546118815482B2207F04AF904461448FFF7A6FD08B9002070BD1249002006F0D0
:204A600087FB0F490646002006F082FB14B1A278032A06D00028EED0002EECD04369B3422A
:204A8000E9D1074C0FCC48F2FE0600212E606960AA60EB60012070BD2E280020B02100206E
:204AA000C8210020101800202DE9F04F744B754819888DB02B2207F013F918B18378032BB4
:204AC000044603D000200DB0BDE8F08F90F803E0BEF1000F01D10120F5E7037945791A0963
:204AE00003F00F0C437802920133DB00DBB2A3EB1513083BCCF110069B1BC2F1100B93FBDF
:204B0000FBF30133DBB29E454FEA15150393D9D85C4B5D49C31A04930FC90DF1200888E82A
:204B20000F006378E1780133DB00DBB25B1B083B9B1B93FBFBF3DBB25A1CD2B2571AFFB202
:204B4000BA426CD9029ACDF81CC0012908BF62469246049AA2EB04090BFB074609F11009C8
:204B6000A9EB0A0208364FF0000908EB0A01CAF1100ACDE9054E4D46CDF804A04C46B246AD
:204B800000913E4691461F4609EB0A02B2F5A06F98D8019A0098514608F01AFA404605F04D
:204BA000C1FD88B30135EDB214B9012D8AD801249DF82020FF2A85D0BDF82020BDF8220086
:204BC000024392B2CAB9BDF82600BDF824200243BDF828000243BDF82A000243BDF82C0089
:204BE0000243BDF82E0092B252EA000C3FF46AAF1AB9B0F5807F3FF465AF721CBE42DA444B
:204C0000D2B208D01646BFE7404605F017FF0028C8D10446CCE7DDE9054EDDF81CC0039B7F
:204C20000298049AA3EB0E03DBB20821BEF1010F08BF604610321BFB031C02EB0C031B1A13
:204C4000B3F5A06F3FF63EAF0F4B0290C0F1100600F118070FCB88E80F000A4B04EB0C050A
:204C6000D8193246294608F0B3F90298324608EB0001284608F0ACF9E378013BE3702AE7AC
:204C80002E280020B0210020C8210020002919DBCB0717D44378ABB92DE9F041425A40F296
:204CA00063439A4200EB010409D1194D2B7B33B16A7BE3789A4202D1A3789A0604D5002015
:204CC000BDE8F08100207047124AA788D2F800800C20DE09FEF70AFF01464046FDF76AFADC
:204CE0007FBAB5F84E10A578BFB2B94294BF002101218E42C5F380131CBF45F04005A570CC
:204D000086EA01023946BDE8F041FFF7FFBD00BFF4170020700200202DE9F0412A4F2B4E64
:204D2000398882B001230DF10702304606F05EFFE8B1044606F106089DF80730112B16D0B6
:204D400037D8002B3AD1A378632B14D03988A31BC91A204600230DF1070289B206F046FF19
:204D6000044620B19DF80730112B8046E8D1012002B0BDE8F081237888F80030657801354A
:204D8000ED00684206F000FFD8B13988283989B2304606F023FF3A88A31B9A4211DDD21ADD
:204DA0006119204608F0F0F898F800308DF80730C2E72B2BDFD03A2BC8D1D8E7062BC5D185
:204DC000D5E70020D4E700BF2E280020B02100202DE9F04F964F3B7B87B053B3954C228B5B
:204DE00048F2FE039A4224D0237EFF2B21D0FFF71BFA054678B904F1080005F093FC28B10B
:204E00008D4BE27993F806319A4217D007B0BDE8F04FFFF7EDBDFFF77FFF04F11800FFF728
:204E2000BFFB30B104F11801002006F0A1F9064660BB0125284607B0BDE8F08F7F4E3288BC
:204E4000B2F59F6FF6D804F128084146283A04F1300008F099F8A379A56284F82830B7F86D
:204E60004E307A7B88F8045040F263415BBA08206185A571E38584F82D2006F085FE318879
:204E80002839204689B206F0A9FEBFE707F11C01002006F06DF98346002840D0684900206A
:204EA00006F090F9D8B3D6F814A0BAF1000F00F0B880DFF8949101964FF000080F25D3455E
:204EC0002F4631D002AED9F81830514630469847DFF87CC130466246002316F8011B12F81E
:204EE00001EF8E4502D10133102BF6D1AB420ADDDAF814A008F10103DBB2BAF1000F00F058
:204F00008E809846DBE7002510F8013B1CF8012F9A4206D10135102DF6D12F46E8E70025E0
:204F200088E72F46EDB2E3E708F1FF32019E43465FFA82F8C7F11007C5F1180A07FB08AAA4
:204F40000AF0FF081AF0070A06D0CAF1080A5FFA8AFAD0445FFA88F80193384B1A8802EB22
:204F60000801B1F5A06FDADC36490988283104EB010941446018283A494608F005F84246F0
:204F80004846002108F019F82B22A179A271B8F1080248BF08F1FF32D21084F829202A4AE0
:204FA000019BD2F8189084F82B30032284F82A2005EB051284F82C204FEA0A12234B84F813
:204FC000281084F82D20A8EB0A040DF1080A55441C442B464D46994673699B450BD0314635
:204FE0005046E41BA8473A464946204607F0F0FF7669002EF0D131465046A8479AE80F0077
:205000000F4C84E80F00404606F0BEFD0B4B19882839A4F1180089B206F0E0FD09E7019EE1
:2050200088E753464FF0080801270F2594E700BFF4170020B0210020CC1E00202E280020E7
:20504000C82100203028002034E70000D8210020C721002008B50C4A137B43B10B4B0C4953
:205060001B88527B2C335818CB5C9A4203D0BDE8084006F06FBDC1788078FFF717FCBDE82D
:20508000084006F067BD00BFF417002030280020B02100202DE9F0418EB02622002104A8C1
:2050A00007F08BFF444A454C1188454B207B01F12C02D6189A5C8DF8322010B1607B904243
:2050C00004D006F047FD0EB0BDE8F0813D4A1588083300222C3D6D1ACDE90422CDE90622C3
:2050E0000FCBADB2032D8DE80F006F46E9D97378227E8DF835308DF833205B06F278ADF88F
:20510000302047D40424AC4250DA4FF0000804E0AB42D6DC1C46AC4248DA325D2146631C33
:20512000002AF5D0AB42CCDA33195B7802331C44AC42C6DC052A18D0062AECD1052BC0DDD8
:205140007218132B52798DF83320E4DD8B1D06EB030CF058DCF80410DCF80820DCF80C303F
:205160000DF1100CACE80F00D5E7032BA9DD7218D2788DF834200732D210101D9842A0D1C2
:205180000431314408A8CDE90888CDE90A8807F01FFFC0E7132D94D904F11C001022311D2D
:2051A00007F0E2FE00288CD11424ACE704A93846FFF756FB85E700BF30280020F417002088
:2051C000B02100202E28002008B5084B1B7B4BB10748017EA1F1FF01B1FA81F108304909BF
:2051E000FFF72AFBBDE8084006F0B4BCF4170020B02100202DE9F0419CB05C22002105A846
:2052000007F0DBFE964ACDF8322040F60841954A954EADF82E1080211488ADF83610934A9E
:20522000012106F10803ADF824101E2117888DF831100FCB2C3CE41BA4B201AD172C85E8D8
:205240000F0004D806F086FC1CB0BDE8F08107F12C039F19F35C3A798DF82C3022F07F00B6
:20526000002360F30703C2F3C200797860F30F2302F0070262F3174361F31F630A937B79B0
:205280008DF82D307B88B868F9683A695BBAADF826307B6905AE182C0FC618BF182300F043
:2052A000DA80F95C0029CDD05A1CA242CADAFA1850780230C618A642C4DC02390629C1D806
:2052C0000FF2040C5CF821F0E75300009553000037530000455200004552000045520000E7
:2052E000E55200002028ADD191788DF864108029A8D803F11001537A107A1B0407EB010C0C
:2053000043EA00637858D17A0B43917A43EA01231893D378DCF80410DCF808208DF8653044
:20532000DCF80C300DF1500CACE80F00A64280F292803346B5E7102884D192F803C010797C
:2053400000216CF307013B4460F30F21507993F806C060F31741D07940EA0C20ADF8340086
:2053600093F808C0507A40EA0C20ADF8360093F80AC0987BD37A43EA0C23ADF82430537B07
:2053800063F31F61D37BCDF82E1043EA0023ADF83230CBE707287FF755AFF918B2F802C0B7
:2053A00091F804E05179ADF84CC0090441EA0E6192F807E0927941EA0E0141EA02225FFA00
:2053C0008CFC12920CF10702D210D11D8142BFF639AFBCF1800F3FF635AF0833F9180EA814
:2053E00007F0F6FDA2E705287FF72CAF117992F802E092F803804FEAD11C00234CEA480CE6
:205400006EF307036CF30F23C1F3011C6CF3174301F00F0161F31F631A9353798DF86C3095
:20542000BEF1000F82D0BEF1070F0AD0BEF1020F7FF408AF07287FF705AFD388ADF86E30DC
:2054400074E707287FF7FEAE9179D37943EA0123ADF86E306AE705A92846FFF713F9F1E670
:205460003C0000042E280020B021002030280020F0B583B005460E46174604F09BFF044661
:2054800010B1204603B0F0BD0C20FEF72FFB22460146CDE900670123284604F015FF04468A
:2054A000204603B0F0BD00BF10B50446FFF7E2F8074B084A08491B88002C14BF2046104635
:2054C0000022CA520223BDE810409B2105F0A2BC30280020141A0020DC2100202DE9F04F2D
:2054E0008FB08146FFF7C6F801F006F818B1B9F1000F00F02781954B954A1B88954E2C3345
:205500009C18717BD15496F85230637000F0F4FF002869D0FF21084696F85430B27B8E4D17
:2055200003F0070343EAC20396F85320003A18BF012243EAC213002260F3070261F30F2242
:2055400063F31742F37B63F31F620023C4F80220E3800FCDA060E1602261636100F0CCFFD4
:20556000002846D13378002B43D07178B578F078A37640F202622283CA0142EA05120243DE
:205580004908072B2277E17600F0D580022B40F0D980B2796377F379A277E37726234FF031
:2055A0002708CDE90B384FF0290A2823CDE9093A4FF02B0B2A23CDE9073B2F222E23CDE9FB
:2055C0000532302301932D252C23CDE9033525232020029322234FF0240B4FF023081A4684
:2055E0004FF0210A0D9027E0B6F84E10080AC9B292E71E231F22CDE90B3221212023CDE9DB
:20560000093123252223CDE9073527272623CDE90537282301934FF0250E2423CDE9033EB9
:205620001D23182002931A234FF01C0B4FF01B081A464FF0190A0D904FF0040E04F800E0CC
:205640000E2004F80A000298B18A777CB57C96F810C0F38A4FF0000E04F802E004F808C053
:2056600004F80B7025540B9D079A080A60550C98357E21540998190A21540A9996F84000B4
:205680006354B368198C738B0F0AA754089AA154039A04F802E0049AA554059A190AA15421
:2056A000069AA35480B900F027FF20B92B4BB9F1000F08BF9946019B01229B2148460FB08E
:2056C000BDE8F04F05F0A6BB0D9AF16B019D96F841A0A31802F11C064FEA1168C1F30747FC
:2056E00002964FF0080BC1F30726C9B204F805B09E759E76D975D976029E194D98741E219E
:20570000597483F813A083F8148083F818805F755F7602F1200E00233032A35101920FCDBA
:2057200004EB0E0C44F80E00CCF80410CCF80820CCF80C30B7E7F388E377022262771A0ABE
:20574000A2772BE70FB0BDE8F08F00BF30280020B0210020F417002010180020141A002052
:20576000201800202DE9F041044600F03BFF2A4E0746706C00F032FA0546FEF77BFF337BF1
:20578000002B47D0736C002B44D0002F42D0002D40D0B37B002B3DD0204B214A1B88717B60
:2057A0002C330520D1541344221E187196F85810D9704FF0120018BF012258710021D201D9
:2057C00080205A7099709971D871B868D7F800C006F11C027E68FF681861197703CAC3F861
:2057E0001E00A2F1080041F206425F61C3F808C0DE605C77C3F822109A61AA68E968C3F81B
:205800002A10C3F82620BDE8F0412E2302229B2105F000BBBDE8F081F417002030280020DD
:20582000B021002070B50D4614460646FEF722FF0C4A0D4BB2F800C00C4A0CF12C0C527BD3
:2058400003F80C209C4430468CF8034000248CF802508CF80140BDE87040042303229B21E8
:2058600005F0D8BA30280020B0210020F417002008B5074805F024FA064805F021FA064842
:2058800005F01EFABDE80840044805F019BA00BF4002002034020020280200201C020020FB
:2058A000704700BF014B00221A707047F417002008B500F09FF908B1808808BD4FF6FF7019
:2058C00008BD00BFB0B138B50446858800F092F928B183884FF6FE722B44934202D94FF627
:2058E000FF7038BD204600F085F930B18388E81880B238BD4FF6FF7070474FF6FF73F6E75E
:2059000070B50546FFF7DEFF0B4B0446586CFFF7D9FF2B680646BF3423B9B442B4BF0020DB
:20592000012070BDFAF70AFF2B68C01AB0F5963FF3D9002070BD00BFF417002008B500F088
:2059400059F928B18088B0F5007F8CBF0020012008BD00BF38B50446FFF7B4FF054620464F
:2059600000F048F940B18388B3F5007F05D8B5F5004F8CBF0020012038BD002038BD00BFA8
:20598000F8B50D4678B30446FFF79CFF0646204600F030F938B38388B3F5007F23D8A5B3C6
:2059A0002846FFF78FFF0746284600F023F960B38388B3F5007F28D8B7F5004F25D8B6F546
:2059C000004F20D81A4E736CA3422AD09D4221D02046FFF777FF06462846FFF773FF8642CE
:2059E00011D22046F8BD9DB12846FFF76BFF0446284600F0FFF858B18388B3F5007F07D8D4
:205A0000B4F5004F04D82846F8BDB6F5004FE8D90020F8BD2046FFF773FF0028D8D02846F3
:205A2000F2E72846FFF76CFF0028DAD1736CCDE7F417002018B370B5144B8688DD8A04461F
:205A400000F0D8F828B183884FF6FE72334493420DD94FF6FF73A0884FF6FF7228449042E8
:205A600028BF1046984238BF184680B270BD204600F0C0F830B1838833449BB2EBE74FF686
:205A8000FF7070474FF6FF73F6E700BFF417002070B5054608460C4600F08CF898B10B4B3F
:205AA0009B685B6998470646284600F083F838B1064B9B685B699847B04201D2204670BDE3
:205AC0002C46204670BD4FF6FF76EDE7F417002008B50C4BD3F82821824204BF0022C3F87C
:205AE0002821D3F80421824204BF0022C3F80421054B01461868FCF761FCBDE8084000F0A0
:205B0000C7BC00BFF4170020700200202DE9F843264D2B7B0026002B32D0254F81463868EE
:205B2000FCF71AFB044658B34FF6FF78AB685B692046F3B19847404503461AD0EA8A82429C
:205B400017D8A98A204639B1B5F84C200A44424528BF424693420CDCAB68DB68984740B193
:205B6000B9F1000F0FD1AB6830469B6921469847064621463868FCF7B9FA04460028D5D1A8
:205B80003046BDE8F88321463868FCF777FCFBF7AFFFFBF7B3FF0028E5D121463868FCF7E6
:205BA000A5FA04460028C1D1EAE700BFF417002070020020024B01461868FCF7FBBA00BF7A
:205BC0007002002020B1044B9B685B6903B118474FF6FF70704700BFF417002008B5044BD8
:205BE00001461868FCF74AFCBDE8084004F000BC7002002008B5044B01461868FCF73EFC76
:205C0000BDE80840FBF774BF7002002008B5054B01461868FCF732FCFBF76AFFBDE80840A3
:205C2000FBF76CBF7002002070B5124D696C81421FD0114E04463068FCF704FC2146306877
:205C4000FCF7E8FB696C3068FCF718FC04F0D0FB04F046FC04F02AFC21463068FCF70EFCEF
:205C600004F0C6FB002104F0EBFB01236C6485F85B3070BDF417002070020020F8B5144E7F
:205C80000020FFF7D1FF3068FCF766FAD8B1114D04460027D5F828313068A342D5F8043136
:205CA00008BFC5F828712146A34208BFC5F80471FCF784FB00F0ECFB21463068FCF716FA37
:205CC00004460028E6D1BDE8F840FEF7D3BC00BF70020020F417002008B504F06BFB04F0B3
:205CE00063FB034B01461868BDE80840FCF762BA7002002038B5FEF797FA20BB0546FFF714
:205D000005FF0446F8B1144B01461868FCF7B6FBFBF7EEFEFBF7F2FE68B9104DD5F828315E
:205D2000A3B16B6CA34209D00120FFF7EFFE38B10446204638BD094BC3F82851204638BD05
:205D40006B6C002BFAD10024204638BDC5F8284100F0F8FAE5E700BF70020020F4170020A7
:205D6000024B03491868FCF79FB900BF70020020D15A000070B5134D134B95F85520134EFD
:205D800080249440A3FB043482B0A3092B66FEF737F9E4090E4A2B6E04FB00F0A2FB002097
:205DA00004EBD0315A1A3468009401202A66A5F85600084A002305F1A400FBF7DBF802B025
:205DC00070BD00BFF4170020D34D62104C120020018000801D5E000008B5054BD3F8040143
:205DE000FFF7FCFE18B1BDE80840FFF777BB08BDF41700200348002290F85C1100F5967088
:205E0000FFF710BDF4170020024B1B7B03B97047FEF770BBF4170020FEF72CBC10B582B01F
:205E2000FEF716FC38B3194C94F8563073B9637C217C94F855200B449A42BCBF013284F8FB
:205E4000552002B0BDE81040FFF794BFFEF7ECF998B1B4F84E30A4F850300020FFF73EFB25
:205E60000B4A216E1068009000230A4A0A4884F85630FBF77FF802B010BDA37C002BE8D081
:205E800094F857209A42EBD2E3E700BFF41700204C1200201D5E00009818002010B5164CC2
:205EA00094F85A30207E013382B084F85A30FFF759FC94F85A30042B17D8FEF7A1F80F4B5B
:205EC000A3FB00235B0A0E4A03EB8303A0EBC31000F5A071136800930A4A002389B204F1B7
:205EE000E400FBF747F802B010BD074802B0BDE81040FEF793BB00BFF4170020CDCCCCCCBA
:205F00004C1200209D5E0000C8D6000010B5154C82B0012384F85A30FEF772F8124BA3FB8E
:205F200000235B0A114A03EB8303A0EBC31000F5A0711368009304F1E4000D4A002389B20A
:205F4000FBF718F894F85820207E531CDBB2120658BF03F07F0384F8583002B0BDE8104052
:205F6000FFF700BCF4170020CDCCCCCC4C1200209D5E000000B5104883B0FBF75DF810B94A
:205F800003B05DF804FBFEF73BF80C4BA3FB0023DB0A0B4AC3EB0313A0EB032000F5F061C8
:205FA00013680093074A0448002389B2FAF7E2FF03B05DF804FB00BFF419002089888888F2
:205FC0004C120020C95F000008B5FEF72DF950B9094B1A7B42B15A6C32B1B3F84E204FF657
:205FE000FF739A4200D008BD0020FFF75DFABDE80840FFF7BFBF00BFF417002010B5124CE3
:20600000237B43B9FFF7B6FFFEF734FBBDE810400E48FAF7D5BF3C20FEF7A0FA3C2005F00B
:206020007DF9237B002BEDD0636C002BEAD0B4F84E204FF6FF739A42E4D0FEF71BFBBDE89F
:2060400010400248FAF7BCBFF4170020D419002010B5FEF7FDFA48B1094C94F8553013B12E
:20606000627C9A4202D200F047FA00B110BD637C84F8570084F85530BDE81040FFF77ABE0D
:20608000F41700200A490B7B03B9704700B5094A83B0126800920023C1F80401064A01F11F
:2060A000C4001946FAF766FF03B05DF804FB00BFF41700204C120020D95D000010B50C4CA5
:2060C000237B82B00BB1A37B0BB902B010BDFDF797FF084B084A1B680093C0F308010023AF
:2060E00001F5807104F1E400FAF744FF02B010BDF41700204C1200200D5F000010B50E4CF9
:20610000227B82B00AB902B010BD03468C469A6859680068DB6804F5967EAEE80F00074AE2
:206120000023126800927046054AA4F85CC11946FAF720FF02B010BDF41700204C120020DB
:20614000F55D0000134B1A7B12B11A7EFF2A00D1704710B55C8B82B002FB04F4FDF750FFD8
:206160000D4BA3FB00231B0BC3EB0313A0EB432000F5F050E40180B2084B094A1B68009326
:20618000844288BF241A002306482146FAF7F2FE02B010BDF4170020898888884C120020B2
:2061A0000D5F0000D81800202DE9F041354CFAF7C5FA237B002B3AD0D4F8285115B128469F
:2061C000BDE8F0810746606C18B1FFF71FFD002853D0FDF715FF034603EB830202EB0212A5
:2061E00002EB022203EB4203274E9BB245F25552934230681FD9FBF7AFFF0446B8B14FF6BE
:20620000FF7706E021463068FBF770FF04460028D5D02046FFF7FAFC0028F3D12046FFF711
:20622000D1FC65B3B8423CBF07462546EAE700252846BDE8F081FBF78FFF04460028F6D09A
:206240004FF0000806E021463068FBF74FFF04460028B4D02046FFF7D9FC0028F3D1204659
:20626000FFF7C8FC0028EED0036815B1FA1A4245E9D9A7EB03082546E5E7656C9FE7074678
:206280002546BFE7F41700207002002030B583B0FFF78AFF0546FFF7A1FC30B10446284622
:2062A000FFF7A8FC2046FFF719F90E4C237B0BB903B030BDFDF7A4FE0B4A0C49030AA2FB90
:2062C00003234FF4345202FB13000B68009300F5B451074A002389B204F58470FAF74AFEEA
:2062E00003B030BDF41700200B5BB0054C1200208D62000010B50F4C237B82B00BB902B0E5
:2063000010BDFDF77DFE0C4A0C49030AA2FB03234FF4345202FB13000B68009300F5B451ED
:20632000074A002389B204F58470FAF723FE02B010BD00BFF41700200B5BB0054C120020AD
:206340008D62000010B50A4C237B82B00BB902B010BDFDF755FE074B074A1B680093C0F36D
:206360000801002304F58470FAF704FE02B010BDF41700204C1200208D62000010B5084CE1
:20638000237B03B910BD04F18400FAF755FE0028F8D104F18400BDE81040FAF733BE00BF19
:2063A000F417002010B50C4C237B82B00BB902B010BD04F18400FAF73FFE0028F7D0074B9A
:2063C000074A1B6800934FF41641002304F18400FAF7D0FD02B010BDF41700204C1200203A
:2063E000095E000010B5134C13482368134A82B04FF4F05100930023FAF7BCFD1048FAF770
:206400001BFE08B902B010BDFDF7FAFD0D4BA3FB0023DB0AC3EB0313A0EB032000F5F06182
:2064200023680093084A0648002389B2FAF7A2FD02B010BD4C120020D4190020FD5F00004A
:20644000F419002089888888C95F000010B50F48FAF7D8FD0D4B1C4603F12000FAF7D2FD56
:2064600004F14000FAF7CEFD04F16000FAF7CAFD04F18000FAF7C6FD04F1A400FAF7C2FDAC
:2064800004F1D800BDE81040FAF7BCBD581800200848037B03B9704700B5074A83B011684D
:2064A00000910023054A19466430FAF763FD03B05DF804FBF41700204C120020195E00006E
:2064C000044B187B20B193F85C00003818BF0120704700BFF4170020054B187B30B193F802
:2064E0005C00A0F10200B0FA80F04009704700BFF4170020704700BF014B1878704700BFE1
:206500004428002010B50C48002340F2FF214FF0D052C0E90013C0E9023204F069F9FEF71C
:206520005FFAFFF71DFCFFF75DFFFFF7A1F9BDE8104004F0E3BE00BF141A002010B50A4C5F
:20654000237B012B00D010BDFFF734FB0028FAD0D4F82831984204BF0023C4F82831BDE81E
:206560001040FFF795BF00BFF4170020034698B10A4671B110B40A4C03CC18605960D16840
:206580001269DA604FF0010C996060465DF8044B70478C466046704784466046704700BFEB
:2065A00010180020704700BF7F2801DD7F290EDD884206DC13DA091A7029D4BF00200120DC
:2065C0007047401A0F28CCBF00200120704701F58071091A1029D4BF002001207047002002
:2065E000704700BF2DE9F8431B4F97F80C80B8F1000F04D097F84080B8F1000F21D147463D
:20660000164C002604F1540594F820301BB194F82130012B05D01C34AC42F5D13046BDE8FF
:20662000F883237CFE2B4FEAD8020CD004F1100987B14946384606F097FC002808BF4E46C9
:20664000E9E72C37DCE7637C802BE4D004F11009002FEED14E46DEE7F4170020CC1E00207C
:2066600000B5027D85B0073200230146D2086846CDE90033CDE9023306F0AAFC6846084917
:2066800004F07CFA684604F04DF808B104F046F8044B002283F8402005B05DF804FB00BFAA
:2066A000B0260020F4170020A0B3F0B54B1E7F2B85B00C4606D812F04003154605D1184675
:2066C00005B0F0BD002005B0F0BD164BE71D00260146FA081846C3E90066C3E9026606F088
:2066E00077FC4FF0FF31016104750146FA1045756846CDE901660096039606F069FC6846CF
:20670000094904F03BFA684604F00CF818B1012005B0F0BD704701460122684604F098F8B9
:20672000F5E700BF20180020B026002010B4164B1649002283B0C3F84021D3F840210192BC
:20674000019AD3F8102522F00F0242F00802C3F81025D3F8082542F00302C3F80825D3F86D
:2067600004254FF480344FF4807022F00302C3F80425C3F80443C1F88001086001221A608A
:2067800003B05DF8044B70470080004000E100E0024B01225A64D3F84405704700800040B1
:2067A000074BD3F8402102B97047002282B0C3F84021D3F840310193019B02B000F002B8B1
:2067C00000800040054B186838B110B400241C60D0E901215DF8044B10477047241A0020F1
:2067E0002DE9F0410488752C064643D07C2C22D0002C3AD1FDF792FA2D4B2E4F18702E4D7D
:206800003A682C6082B123462C4C984604F8038000219368802098472B6801332B6057F89D
:206820002320002AF2D1DAB2254B1A70752333800120BDE8F0811E4B1B788B42F8D11E4D23
:206840001E4CDFF87C801F4F2B68E25C02F07F02E2543A6801323A6098F8002001339342EB
:206860002B6013DB3B685BB9E0E7002303800320BDE8F081DFF848800F4D98F80020114F37
:2068800000233B602B60002AD0D00C4CE256002A01DB2B68E0E7074A52F82320044B0020A8
:2068A0001978FDF7F1FA0028CED17C233380BFE746280020E40100202C1A0020E80F002099
:2068C00045280020281A002070B50488672C064619D0792C31D04CB300230380032070BDB5
:2068E0005A1C22601B4A0024D4541B4B20461978FDF7CAFA194B852118682246FDF7C4FA36
:2069000020B300232B60164C06E00A282368E7D00D28E5D07E2B14DD1248FDF797FB431C77
